:020000040100F9
:10200000000004305D2000014F22000101418000EA
:102010004D220001FF210001C9370001000000002E
:1020200000000000000000000000000015418000DA
:102030004B22000100000000512200015322000148
:10204000DFF814D001F0E0F800F04EFC0048004743
:10205000A5910101AFF300800000043001488047E2
:1020600001480047993700015D9701012DE9F05FB4
:102070000546002092469B468846064681464024F7
:102080001BE0284641464746224600F0C2FE534622
:102090005A46C01A914110D311461846224600F004
:1020A000A9FE2D1A67EB01084F46224601200021A8
:1020B00000F0A0FE17EB00094E41201EA4F1010420
:1020C000DFDC484631462A464346BDE8F09FA0F192
:1020D0004101192900D82030704700000649074AFD
:1020E0000868504343F239021044086040087047C2
:1020F0000149086070470000449600306D4EC641AB
:1021000040EA01039B0703D009E008C9121F08C079
:10211000042AFAD203E011F8013B00F8013B521EF9
:10212000F9D27047D2B201E000F8012B491EFBD270
:1021300070470022F6E710B513460A4604461946D2
:10214000FFF7F0FF204610BD421E12F8013F002BA2
:10215000FBD111F8013B02F8013B002BF9D170478C
:1021600010B5044604E00B7800F8013B03B1491CAC
:10217000521EF8D2204610BD421C10F8011B002947
:10218000FBD1801A704710B5002200E0521C835C1E
:102190008C5CA34201D1002BF8D1D8B2E1B2401A35
:1021A00010BD30B504460020034600E05B1C93429E
:1021B00003D2E05CCD5C401BF8D030BD034611F883
:1021C000012B00F8012B002AF9D11846704730B5D1
:1021D00005460020034600E05B1C934205D2EC5C00
:1021E000C85C201A01D1002CF6D130BD00487047E0
:1021F0009C29020143F6512CC3F2000C6047FEE714
:1022000058585247010000001555000000200001F9
:10221000002000016EED52490101000000000000A5
:1022200000000000000000000000000000000000AE
:10223000000000000000000000000000000000009E
:1022400043F2196CC3F2000C6047FEE7FEE7FEE7BD
:10225000FEE7FEE770B500B91068002512E00B46F6
:1022600002E0A64203D05B1C1C78002CF9D1E3B23B
:102270002B4305D02CB125B1002100F8011B04E04F
:102280000546401C0678002EE9D11060284670BD36
:10229000004ADFE7489600300FB400B58DB010A9B2
:1022A00009900B9000914FF0FF300A9000200C90A5
:1022B00005480690054807906A4609A80F9900F05E
:1022C000E7FD0DB05DF814FBAD2E0001CB2E000133
:1022D0002DE9FF5F1D464FF0FF3BD5E901469146D2
:1022E0005F464FF00008A9697F1C01988847296A5A
:1022F000824688470028F6D1BAF1FF3F0CD024F47B
:10230000C064002E19DD600614D5BAF12B0F09D078
:10231000BAF12D0F0ED103E0584604B0BDE8F09F8E
:1023200044F48064A9697F1C01988847761E824620
:10233000002E02DDBAF1300F03D0B9F1000F26D024
:1023400032E0A969761E44F400747F1C0198884726
:102350008246002E05DDBAF1780F06D0BAF1580F8B
:1023600003D0B9F1000F10D01EE0B9F1000F02D078
:10237000B9F1100F18D1A969761E24F400747F1CDE
:10238000019888478246102002E0082000E00A20D9
:10239000814609E008FB0908A969761E44F4007427
:1023A0007F1C019888478246002E05DD494650462D
:1023B00000F05AFD0028EDDAE96901988847A00588
:1023C00002D46FF00100A8E7E00725D1600613D51D
:1023D000600502D5C8F1000000E0404629680A1DEA
:1023E0002A600968220501D5087015E0220701D589
:1023F000088011E008600FE02868011D296000686E
:10240000210502D580F8008006E0210702D5A0F85A
:10241000008001E0C0F8008038467EE72DE9FF5FCC
:10242000D2E901A74FF00008916999461446DDF8FA
:1024300038B0464601988847054659EA0B0005D052
:1024400009E0A169761C019888470546216A28465B
:1024500088470028F5D1681C03D05FEACA7005D010
:1024600015E04FF0FF3004B0BDE8F09F2068011D7B
:102470002160D0F800800AE05FEACA7001D108F854
:10248000015BA169761C7F1E019888470546002FD5
:102490001ADD681C18D0B9F1000F0DD0E81705EB54
:1024A000D060421120F01F0059F822102A1A012092
:1024B00090400142E0D107E0BBF1000FDCD1216A7E
:1024C000284688470028D7D0E16901988847BBF1A2
:1024D000000F07D1002E05DD5FEACA7002D100218E
:1024E00088F80010A068B84203DDBBF1000F03D0EC
:1024F00017B16FF00100B6E73046B4E72DE9FF4FA2
:10250000087883B09946FF2805D0491C2D2804D0AF
:102510000024002008E000200BE00124F9E700EB94
:10252000800003EB4000491C0B78FF2BF7D104B16E
:10253000404200230293147819461D462D2C01D0E9
:102540002B2C04D1521C2D2C13D000240294AA460B
:102550001478FF2C0FD00A25A3FB057801FB058119
:102560004FF0000C03FB0C11521CE3194AEB010164
:10257000EEE70124EAE7814453EA010002D019F5AD
:10258000C87F06DA03980021C0E9001107B0BDE852
:10259000F08F0025AE4E2F46DFF8B882184600F0C7
:1025A00059FBCDE90001B9F1000002DAC9F10004DC
:1025B00000E004460023A74A1AEB030B42EB045A3F
:1025C00012E0E00707D02A4633463846414600F07D
:1025D00042FA074688462A4633461046194600F016
:1025E0003AFA05460E466410002CEAD1DDE90001F6
:1025F000B9F1000F5A46534606DA00F09EFA3A4601
:10260000434600F09AFA05E000F025FA3A464346C0
:1026100000F021FA029A0AB181F00041039AC2E95E
:102620000001B3E72DE9FF4F1F468DB0D7E9014602
:102630004FF0FF382E2045464FF000090B90B96946
:102640006D1C0E988847396A824688470028F6D163
:10265000BAF1FF3F0AD024F4D064002E11DDBAF1A4
:102660002B0F08D0BAF12D0F0BD102E0404611B06C
:102670008DE744F48064B9696D1C0E9888478246E2
:10268000761E6946600501D52D2000E02B208DF8CF
:10269000000001F1010B0DF1200809E0B9696D1C82
:1026A0000E98884782460F9844F40074761E0560A1
:1026B000002E02DDBAF1300FF0D00B998A453ED1E1
:1026C00044F0800406E00F99681CA9F1010944F464
:1026D00000740860B9696D1C761E0E9888478246A2
:1026E0003028F0D02BE00B998A4505D1200603D481
:1026F00044F08004761E18E0504601F017FC08B341
:102700000DF11301761E44F400748B4508D2AAF132
:1027100030000BF8010B200607D5A9F1010003E0FA
:10272000200602D409F101008146A00502D50F99C7
:10273000681C0860B9696D1C0E9888478246002E97
:10274000D1DC53E0002E51DDBAF1650F02D0BAF1B1
:10275000450F4BD1A00549D5B9696D1C24F44074CF
:10276000761E0E9888478246002E0CDD2B2804D05A
:10277000BAF12D0F07D144F48074B9696D1C0E981D
:1027800088478246761EE00501D52D2100E02B21E9
:1027900008F8011BCDF82C8021E00DF12901761EEF
:1027A00044F4007488450CD2AAF1300010F0FF0008
:1027B00088F8000002D10B99884509D908F1010871
:1027C00006E0E00501D5244801E042F20F708146A1
:1027D000B9696D1C0E98884782460F980560002ED7
:1027E00004DD504601F0A2FB0028D6D1F9690E980D
:1027F0008847FF208BF8000088F800000020069032
:1028000007904B466A4608A906A8FFF777FEA00581
:1028100002D46FF001002AE714F0240F0AD0E00779
:1028200014D1DDE906123868031D3B600068C0E979
:1028300000120BE0DDE9060100F0AAFA0146E0070C
:1028400004D13868021D3A600068016028460EE72E
:10285000000014400000F03FF1D8FFFF2DE9F047E1
:1028600091460F4680460446002614F8015B2DB1C0
:10287000FFF7BCFC0068405DC007F6D12B2D02D0ED
:102880002D2D18D0641E4A463946204600F02EFBF6
:1028900027B13968A14201D1C7F8008071054FF016
:1028A00002040BD54042002803DD01F01FF904604B
:1028B000A007BDE8F08746F48066E4E70028F8DA70
:1028C00001F014F904606FF00040F2E770B50646BD
:1028D00001F00CF9046805460A2200213046FFF792
:1028E000BDFF2C6070BD000070B5054C054D03E0C8
:1028F000206820448047241DAC42F9D170BD0000FF
:10290000143E0201183E02012DE9FE4F804681EA85
:102910000300C00F0C46009021F0004123F0004559
:10292000B8EB0200A94105D24046214690461C461C
:102930000B46024623F00040104347D0270DC7F353
:102940000A00C3F30A510290401A019040286BDA42
:10295000C3F3130040F4801B0098924620B100237B
:10296000D2EB030A63EB0B0B01985946C0F140020E
:10297000504600F03FFA06460D4650465946019A29
:1029800000F057FA10EB08006141002487EA115269
:1029900084EAE7731A4340D0009A62B3019A012A8D
:1029A0004FEA075215DC001B61EB02014FF00042B9
:1029B00002EA0752CDE90042001C41F5801132467F
:1029C0002B4600F077FB03B0BDE8F08F4046214670
:1029D000F9E7001B61EB0201001C41F580130018B0
:1029E0005B412018A2F5001747EB030140EAD570C0
:1029F000B6196D4111E06D084FEA360645EAC0751B
:102A00004FEA0752001B61EB0201001C41F58011E7
:102A100049084FEA30000019514132462B4603B0B5
:102A2000BDE8F04F00F037BB0098012240000023C2
:102A3000D0EB020263EBE073009821464FEAE074AA
:102A4000B8EB000061EB0401E9E783F000435BE7CA
:102A500081F0004158E72DE9FE4F81EA030404F0BC
:102A6000004421F0004100944FF0000B23F000439C
:102A700050EA01045ED052EA03045BD0C3F30A5467
:102A8000C1F30A552C44A4F2F3340194A0FB025480
:102A9000C1F3130141F48011C3F3130343F4801312
:102AA00001FB024400FB034E840A970A44EA815466
:102AB00047EA8357A4FB076802958D0A05FB078543
:102AC0004FEA932C04FB0C542705029D4FEA06584D
:102AD00047EA1637B5EB08056EEB070C870E920E2A
:102AE00047EA811742EA8312A7FB0201B6EB0B010A
:102AF00064EB00042B0D43EA0C335E1844EB1C50CE
:102B0000DA465146E7FB0201C5F313044FEA0B33E3
:102B100043EA14534FEA0432019C43EA0603A4F14A
:102B20000C040294009CCDE900B400F0C3FA03B099
:102B3000BDE8F08F00200146F9E72DE9F04D81EA6C
:102B4000030404F0004B21F0004514464FF0000A46
:102B500023F0004150EA050220D054EA01021DD0C2
:102B6000C5F30A570246C5F31303C1F31300C1F3BB
:102B70000A5640F4801543F48013A7EB0608101B97
:102B8000D64608F2FD3873EB050002D308F10108C0
:102B900001E092185B41B8F1000F03DA0020014612
:102BA000BDE8F08D00204FF48011064684460EE00B
:102BB000171B73EB050705D3121B63EB05030643D5
:102BC0004CEA010C49084FEA300092185B4150EA88
:102BD0000107EDD152EA030012D082EA040083EA31
:102BE0000501084305D0101BAB4106D2012200238A
:102BF00006E000224FF0004302E06FF001025310A4
:102C00001AEB06004CEB085110EB0A0041EB0B01EC
:102C1000BDE8F04D00F03FBA0EB5C10F80EAE0709C
:102C20000844CA07002140F233438DE80E000A46EB
:102C30000B4600F03FFA03B000BD0EB540F2334141
:102C400002910021CDE900110A460B4600F032FA4C
:102C500003B000BD0EB540F2334202920022CDE92E
:102C60000022134600F026FA03B000BD20F0004019
:102C7000C20DC0F3160040F400007F2A02DA0020E3
:102C8000014670470021962A03DCC2F19602D0402B
:102C90007047963A00F0AEB870B5C1F30A5201F031
:102CA00000450024C1F3130140F2FF3341F48011C9
:102CB0009A4201DA002070BD40F233439A42A2F2F8
:102CC000334203DC524200F0A4F800E090402C4371
:102CD000F1D0404270BDC1F30A5210B5C1F31301E7
:102CE00040F2FF3341F480119A4201DA002010BD16
:102CF00040F233439A42A2F2334203DC524200F0E4
:102D000088F810BD904010BD00F0004230F0004047
:102D10000AD0C10D01F56071C0F3160042EA0151FD
:102D2000C208400711437047002001467047000069
:102D300030B5041E71F1000404DB4FF00044404242
:102D400064EB0101141E73F1000405DB1C464FF017
:102D50000043524263EB04038B4208BF824230BD02
:102D600030B5041E71F1000404DB4FF00044404212
:102D700064EB0101141E73F1000405DB1C464FF0E7
:102D80000043524263EB0403994208BF904230BDB6
:102D900001F0004330B421F0004150EA010206D0B6
:102DA0000A0DA2F56072C1F31301002A02DC30BCE7
:102DB00000207047440F44EAC104C100E01830BC51
:102DC00000EBC25000F030B930B50B460146002090
:102DD0002022012409E021FA02F59D4205D303FADD
:102DE00002F5491B04FA02F52844151EA2F101025E
:102DF000F1DC30BD202A04DB203A00FA02F1002089
:102E000070479140C2F1200320FA03F31943904028
:102E10007047202A04DB203A21FA02F00021704793
:102E200021FA02F3D040C2F1200291400843194632
:102E30007047202A06DBCB17203A41FA02F043EA1A
:102E4000E07306E041FA02F3D040C2F12002914063
:102E500008431946704710B50446FFF7C7F90068E4
:102E6000005D00F0010010BD3A2800D2303820F09B
:102E70002002412A01D3A2F13700884201D34FF04A
:102E8000FF3070470268114413780160184670479C
:102E9000D160044951610449116200211161114658
:102EA00000F0C4B9852E0001572E0001426842B1DE
:102EB000016811F8013B23B1521EC0E90012184607
:102EC00070470121C160881E704742685AB1C368CB
:102ED000016843B983688B4205D0491E521CC0E982
:102EE0000012002070474FF0FF3070472DE9F05F6F
:102EF00082460078002715468B460AF10104B94640
:102F0000302801D09DB113E014F8010B0127782877
:102F100003D0582801D045B10AE00DB1102D07D1DA
:102F20000027102514F8010B02E0082500E00A250F
:102F30000026B0460EE005FB080005FB06F1012760
:102F400001EB10461FFA80F8B6F5803F00D3B94672
:102F500014F8010B2946FFF787FF0028EBDABBF1D5
:102F6000000F05D00FB1641E00E05446CBF80040BE
:102F7000B9F1000F06D000F0B9FD02210160C81EB2
:102F8000BDE8F09F48EA0640FAE700000FB40023CE
:102F900000B589B00CA900910B996FF00042CB608D
:102FA0001E4B06931E4B07930423CDE901321D4AA5
:102FB000089202466B460020FFF734FB09B05DF82B
:102FC00014FB70B586B006464FF0FF300091CDE996
:102FD0000101002015460C4604903246694604A8BB
:102FE000FFF7D4FF02460498211825B108B108461E
:102FF00000E020462860049800280DD0002A02DD59
:103000000098884208D0081B0094CDE9010432469C
:10301000694604A8FFF7BAFF06B070BDAD2E0001E7
:10302000CB2E0001572E00010029A8BF7047401C7D
:10303000490008BF20F00100704710B4B0FA80FCCE
:1030400000FA0CF050EA010404BF10BC704749B10B
:10305000CCF1200421FA04F411FA0CF118BF01217B
:1030600021430843A3EB0C01CB1D4FEA00614FEA5B
:10307000102042BF002010BC704700EBC35010442A
:103080000029A4BF10BC7047401C490008BF20F0B5
:10309000010010BC704710B5141E73F1000408DA6B
:1030A000401C41F1000192185B411A4301D120F00C
:1030B000010010BD2DE9F04D92469B4611B1B1FAC9
:1030C00081F202E0B0FA80F220329046FFF792FEE1
:1030D00004460F4640EA0A0041EA0B0153465A46AD
:1030E000084313D0114653EA010019D0C8F1400239
:1030F0005046FFF78EFE05460E465046594642465C
:10310000FFF778FE084305D0012004E02046394649
:10311000BDE8F08D0020054346EAE0762C433743B6
:103120000A986305E40AA0EB08000022FD0A44EABD
:1031300047540A3002D500200146E9E7010510197D
:103140006941DDE9084500196941BDE8F04DA2E794
:103150002DE9F041054621F000400C46284309D0F6
:10316000C4F30A5040F23341884205DD2846214627
:10317000BDE8F0812846FBE740F2FE31884210DCD2
:103180000CDB4FEA043040EA155050EA053105D017
:10319000104804F0004101430020E9E70020014607
:1031A000E6E7A0F233404642C6F1400228462146F7
:1031B000FFF720FE07468846284621463246FFF79D
:1031C00028FE43463A46FFF766FF3246BDE8F04127
:1031D000FFF710BE0000F03FC1F30A52C1F3130124
:1031E00040F2FF3341F480119A4202DA0020014696
:1031F000704740F233439A42A2F2334202DC524219
:10320000FFF707BEFFF7F6BD064C074D06E0E06886
:1032100040F0010394E8070098471034AC42F6D31D
:10322000FEF712FFC43D0201143E02012DE9F34FE7
:103230008BB04FF0000801F10C000C464FF0010B71
:1032400046460DF1080A01906269012101989047F4
:10325000051E2DD0252D2CD0216A8847C0B162696A
:10326000012101989047216A88470028F7D1411E23
:1032700062690198904700E0761CA1690B98884725
:10328000216A88470028F7D1E1690B988847DBE776
:10329000A1690B9888470746A84201D1761CD3E75D
:1032A000E1690B9888477F1C02D1B8F1000F6FD0FD
:1032B00047E1002762693D463946019890472A2830
:1032C00004D162690121019890470125DFF88892B5
:1032D0006269012101989047A0F130010A290AD2C0
:1032E0004F45E5DC07EB870100EB4107303FDFD4BA
:1032F00045F01005ECE7E90601D46FF000476C28B3
:103300000AD04C2814D0682815D06A280DD074280B
:103310001CD07A281AD01DE06269012101989047DB
:103320006C2802D045F0040514E045F002050DE0DC
:1033300045F020050AE0626901210198904768285C
:1033400002D045F0080505E045F4006562690121F9
:1033500001989047C4E9015765283DD019DC5828E9
:103360007AD00CDC452837D004DC252826D041282B
:1033700031D131E046282FD047282CD12CE05B28D2
:1033800077D0612828D063287CD0642823D15AE0E4
:10339000D1E06F2848D008DC66281DD067281BD0F4
:1033A000692821D06E2816D127E0702845D07328CF
:1033B00068D0752847D078280DD14DE0A1690B98C9
:1033C0008847054625283FF469AFE1690B9888478F
:1033D0006D1C3FF46AAFB4E023466A466FF001000B
:1033E0000B99FFF71FF99FE045F040006060A807C8
:1033F00023464FF0000236D43EE0E8077FF447AFA3
:103400002068011D21600068290501D506701BE7B1
:10341000290701D5068017E7A90703D5F117C0E9E9
:10342000006111E706600FE745F040006060A80703
:1034300023464FF0080216D41EE040F60E0125EA9E
:103440000100606016E045F040006060A807234678
:103450004FF00A0207D40FE045F040006060A80773
:1034600008D5234610226FF001000B99AFF30080BE
:103470005AE007E0234610226FF001000B99FEF797
:1034800027FF51E04FF000094F464B46632802D01A
:103490005B2807D041E02079C00601D40120A0605C
:1034A00001273AE062690121019890475E2805D121
:1034B0004FF001096269494601989047216939B97D
:1034C00000210A46534643F82120491C0829FADB0B
:1034D000B0B3216969B9C11700EBD16253110AEB8E
:1034E000830122F01F02821A01200B6890400343DF
:1034F0000B6062690121019890475D28E8D1B9F11C
:10350000000F09D00020514651F82020D24341F845
:103510002020401C0828F7DB02AB224600976FF002
:1035200001000B99FEF77AFF00280CDA401C08D145
:10353000BBF1000F05D04FF0FF300DB0BDE8F08FAC
:10354000FFE74046F9E7E90701D108F10108064421
:103550004FF0000B78E60000CCCCCC0C70B58C188A
:1035600010F8015B15F0070301D110F8013B2A1197
:1035700006D110F8012B03E010F8016B01F8016B84
:103580005B1EF9D12B0705D40023521E0DD401F880
:10359000013BFAE710F8013BCB1A921C03E013F849
:1035A000015B01F8015B521EF9D5A142D8D300207E
:1035B00070BD000010B51E480068002800D080478C
:1035C0001C4800210170881E1B490860192000F06A
:1035D0008EF91A4CD4F8C002800704D4F42218A142
:1035E0001CA005F48DF02A480168D4F8C40261F3E8
:1035F0001D3040F00100C4F8C40204F49DF1002124
:103600004FF03040C1608161C1174161016204F433
:103610004FF109484038016821F4800101601D48DC
:103620000068002802D0BDE81040004710BD00002F
:10363000602480005095003044C500A000E000A048
:10364000727769705F736C6565705F636F6D6D6FC6
:103650006E2E63004D43555F5355422D3E424C45FF
:103660005F44534C4545505F434F52525F454E2097
:1036700026204D43555F5355425F424C455F4453AE
:103680004C4545505F434F52525F48575F454E008F
:10369000542480006424800010B500214FF0304095
:1036A000C1608161C11741610162022000F04AF9E5
:1036B000BDE81040012000F045B910B5012000F030
:1036C00016F9BDE81040012000F03CB930B500F01B
:1036D0000703C3F10704082C00D9082403F10800EC
:1036E000072801D2002300E05B1C012505FA04F045
:1036F000401E084098409D406D1E1540284330BD37
:1037000005F400B00249096801F007010170704733
:1037100004C500A030B4062821D212490A6802F07C
:103720000702824212D00A680F4B1A400F4C224304
:103730000A6000BF00BF00BF00BF0A681A400C4B00
:10374000024333F8203042EA83420A6008491839BC
:1037500051F820000749886030BC75F44B9430BCA8
:103760007047000004C500A0F8FFE3FF0500080053
:10377000701102010089003004480068044900F01B
:10378000070051F8200003498860704704C500A075
:1037900058110201008900300248016841F47001AB
:1037A0000160704788ED00E002480068001D04F4E5
:1037B000ABB70000D08A003002484068001D04F416
:1037C000A3B70000D08A0030FEE700000FB4054B1D
:1037D00010B503A9044A029800F0B0FB10BC5DF8D4
:1037E00014FB0000EDF70001FC8A00300FB47CB53B
:1037F0000C0009AD01D0611E00E00021CDE90001FF
:10380000064B6A462946089800F098FB002C02D027
:10381000009A002111707CBC5DF814FB4346000146
:103820000FB4084B10B504A902AA039800F086FB58
:10383000044602A9002000F00FFF204610BC5DF8EE
:1038400014FB0000594600017CB50C001D461646CD
:10385000014601D0601E00E00020CDE90010064BBB
:103860006A462946304600F069FB002C02D0009AD7
:10387000002111707CBD00004346000137B514469D
:103880000846064B6A46214600F058FB0446694646
:10389000002000F0E1FE20463EBD00005946000138
:1038A000002809DB00F01F0201219140400980003F
:1038B00000F1E020C0F880127047002809DB00F01A
:1038C0001F02012191404009800000F1E020C0F872
:1038D00080127047002809DB00F01F02012191408F
:1038E0004009800000F1E020C0F8801270470028F5
:1038F00009DB00F01F02012191404009800000F126
:10390000E020C0F880127047002809DB00F01F0299
:10391000012191404009800000F1E020C0F88012B0
:10392000704700280DDB00F01F0201219140400983
:10393000800000F1E020C0F88011BFF34F8FBFF38B
:103940006F8F704700280DDB00F01F0201219140AE
:103950004009800000F1E020C0F88011BFF34F8FD4
:10396000BFF36F8F7047002809DB00F01F020121B1
:1039700091404009800000F1E020C0F8001170473C
:10398000002809DB00F01F0201219140400980005E
:1039900000F1E020C0F80011704700280FDB41095A
:1039A000890001F1E021D1F8001200F01F0201208E
:1039B0009040014201D00120704700207047002054
:1039C000704700280FDB4109890001F1E021D1F89F
:1039D000001200F01F0201209040014201D001209E
:1039E0007047002070470020704700280FDB410916
:1039F000890001F1E021D1F8001200F01F0201203E
:103A00009040014201D00120704700207047002003
:103A10007047002804DB00F1E02090F800047047B4
:103A200000F00F0000F1E02090F8140D704700281E
:103A300004DB00F1E02090F80004704700F00F0074
:103A400000F1E02090F8140D7047002804DB00F12D
:103A5000E02090F80004704700F00F0000F1E02033
:103A600090F8140D7047000002480068C0F302206F
:103A7000704700000CED00E002480068C0F302202F
:103A8000704700000CED00E002480068C0F302201F
:103A9000704700000CED00E0002809DB00F01F0279
:103AA000012191404009800000F1E020C0F800129F
:103AB0007047002809DB00F01F02012191404009F6
:103AC000800000F1E020C0F800127047C9B2002861
:103AD00004DB00F1E02080F80014704700F00F00D4
:103AE00000F1E02080F8141D704700000048704786
:103AF0005496003030B528B1144C031F00202168C3
:103B00000A4605E0084630BD9A4203D8104652687E
:103B1000002AF9D1002800D041680BD00468A3EB3B
:103B20000005A54204D11B681C440346046002E062
:103B3000436000E023603AB11C68D51AA54203D166
:103B400015682C441C6052685A6030BD4C96003099
:103B5000EFF310807047000030B583B0044600F0EA
:103B6000CFF89FED090B05468DED000B0022214695
:103B70006846FFF726FA284600F010F99DED000B85
:103B800003B030BD00000000000000000000000095
:103B90002DED020B019820F0004001909DED000BEF
:103BA00002B070470000000010B52DED020B2DEDA6
:103BB000088B84B09DED0C0B51EC100BFFF7C8FA8D
:103BC00041EC180B9DED0C0B53EC182B51EC100B2A
:103BD000FEF73BFF41EC190B0D989FED290B10F000
:103BE000004F53EC102B51EC190B9FED21AB9FEDC7
:103BF00022BB0ED0FFF79CF80ED953EC1B2B51ECD7
:103C0000190BFFF7ADF81CD214E000BF41EC180B04
:103C100017E0FFF78DF806D253EC1A2B51EC180B76
:103C2000FEF713FFF2E753EC1B2B51EC190BFFF7D8
:103C300097F806D853EC1A2B51EC180BFEF764FEDC
:103C4000E4E78DED028B9DED0C0B18EE901A10EE53
:103C5000900A8DED000B61F31E0003909DED020BA9
:103C600004B0BDEC088B02B010BD000000000000E5
:103C7000000000000000F03F000000000000E03FF6
:103C8000000000000000E0BF00B583B09FED060B10
:103C90000A4601468DED000B6846FFF792F99DED4F
:103CA000000B03B000BD0000000000000000000099
:103CB0002DE9F04782460F4C10480D4E0E4F001B69
:103CC0004FF0000820F007054FF0010900221146CF
:103CD000504611F087FE002802D1306810B1002054
:103CE000BDE8F0873C60C4E90058C6F80090EDE7F5
:103CF0005096003004B003304C96003000C00330C2
:103D00000148006870470000549600302DE9F047E4
:103D100004008A4616D054F8047CD4F800903E1F64
:103D2000564500D956462046FFF7E4FE054688462C
:103D300032462146504611F055FE40B1C0F8009081
:103D4000BDE8F087BDE8F0470846FFF7B1BF44E99A
:103D5000017955B129686A18211F8A4202D9611B6D
:103D6000091F2960C5F80480EAE7024AC2F800800A
:103D7000E6E700004C96003002E008C8121F08C1B8
:103D8000002AFAD170477047002001E001C1121FDC
:103D9000002AFBD1704780F3108870470149086002
:103DA00070470000549600302DE9FF5F82B000217B
:103DB000DDE90430020DDDF840B0034318D044F6CD
:103DC0001050A2F2FF3242431514119801281FD05F
:103DD000A5EB0B00401C5FEA000A4FF000064E4FB7
:103DE000DFF83891B046504615D5CAF1000413E00B
:103DF000119801244AA3012801D16FEA0B0102980E
:103E0000119AC0E90031C0E9024206B0BDE8F09F56
:103E1000CBF10000DFE704460021404A491842EB9D
:103E20000450CDE9001012E0E00707D032463B46CF
:103E300040464946FEF70FFE8046894632463B46DD
:103E400010461946FEF707FE06460F466410002C82
:103E5000EAD1DDE90401DDE90023BAF1000F06DA59
:103E6000FEF7F9FD42464B46FEF7F5FD05E0FEF78D
:103E700064FE42464B46FEF760FE04460E460022B4
:103E8000284BFEF76DFF03D84FF0FF30014607E0E7
:103E90000022254B20463146FEF736FDFFF79CF900
:103EA000102409E0002C0ADB0A220023FEF7DEF8CA
:103EB000039B30321A55641E50EA0102F2D1641C91
:103EC000039AC4F111031444119A012A03D0012268
:103ED00008430DD10AE0084304D000204FF0110B35
:103EE000119072E7A3EB0B056D1E0DE05B4504DD41
:103EF0004FF0000205F1010504E003DA4FF0000283
:103F0000A5F10105002AECD002981199C0E902310F
:103F1000C0E9004579E70000000014400000F03FD0
:103F2000300000000000F0430000E03F30380A2875
:103F300001D2012070470020704700002DE9FF4F9B
:103F400095B09A46884606460025EEE1252877D1A9
:103F500000242746F94A0121039400E0044316F89F
:103F6000013F203B01FA03F01042F7D130782A28B4
:103F700011D06FF02F033078A0F13002092A16D843
:103F8000039A44F0020402EB820203EB4202104463
:103F9000761C0390EFE758F8042B0392002A03DA0B
:103FA000504244F40054039044F00204761C3078EC
:103FB0002E2816D116F8010F44F004042A280DD03B
:103FC0006FF02F023078A0F13003092B09D807EBEE
:103FD000870302EB4303C718761CF3E758F8047B0A
:103FE000761C30786C280FD006DC4C2817D0682857
:103FF0000DD06A2814D104E0742810D07A280FD18B
:104000000DE044F400140AE044F4801401E044F4A8
:1040100040147278824202D104F58014761C761C1A
:10402000307866280BD013DC582877D009DC0028BC
:1040300075D04528F6D04628F4D047281AD193E108
:1040400018E0632835D0642879D0652812D18BE137
:10405000702873D008DC6728F1D069286FD06E28EB
:104060000DD06F2806D1ACE073282CD0752874D001
:10407000782853D05246179990476D1C54E1C4F3E9
:104080000250022809D003280DD0D8F800100428C7
:104090000DD00D6008F1040846E1D8F80010EA17C9
:1040A000C1E90052F6E7D8F800100D80F2E70D7074
:1040B000F0E718F8041B8DF8001000208DF80100BF
:1040C000EB46012003E058F804BB4FF0FF306107D6
:1040D0004FF0000102D40DE009F101018946B94217
:1040E0000FDA8145F8DB1BF809100029F4D108E04C
:1040F00009F1010189468142FADB1BF80910002908
:10410000F6D103985346A0EB090721463846179A83
:1041100000F080FA284400EB090507E044E008E1DC
:104120000DE01BF8010B524617999047B9F10109B0
:10413000F7D2534621463846179AF2E039E00A2171
:10414000C4F302524FF0000B0091022A06D058F837
:10415000040BC117032A09D00AE023E008F1070085
:1041600020F00702F2E80201904605E000B2C11714
:10417000042A01D140B2C117002906DA0A460021FB
:10418000404261EB02012D2202E0220504D52B22E0
:104190008DF80420012203E0E20701D02022F7E796
:1041A000914657E00A2100E010214FF0000B0091EA
:1041B0000BE010214FF0000B44F00404082700919D
:1041C00003E008204FF0000B0090C4F30252022AD3
:1041D00005D058F8040B0021032A08D008E008F1A4
:1041E000070020F00702F2E80201904603E080B2E7
:1041F000042A00D1C0B24FF0000922072AD5327834
:10420000702A07D0DDF800C08CF0100C5CEA0B0CB3
:1042100005D00EE040228DF80420012208E050EA8B
:10422000010306D030238DF804308DF805200222DA
:104230009146009B83F0080353EA0B030AD150EA2E
:10424000010201D1620705D530228DF804204FF01C
:1042500001097F1E3278582A04D039A20C920CAA88
:1042600002920BE03BA2F9E75B46009AFDF7FEFEE7
:104270000C9B9B5C029A521E0292137050EA010240
:10428000F2D1029804A9081A00F1200B600702D5A8
:1042900024F4803400E001275F4502DDA7EB0B002A
:1042A00000E0002000EB0B01009003984944401A05
:1042B0000390E00306D453462146179A039800F072
:1042C000A9F90544002706E001A85246C05D1799E8
:1042D00090476D1C7F1C4F45F6DBE0030CD5534621
:1042E0002146179A039800F095F9054404E0302020
:1042F0005246179990476D1C0099481E009000295E
:10430000F5DC08E00298029952460078491C0291B7
:10431000179990476D1CBBF10001ABF1010BF1DC6B
:104320005BE100F065F90544761C307800287FF4E5
:104330000DAE19B02846BDE8F08F00000928010035
:10434000303132333435363738396162636465660B
:1043500000000000303132333435363738394142CD
:104360004344454600000000600700D4062708F1DA
:10437000070020F00700F0E80223804603F0004C1D
:104380005FEA0C0001D097A009E0200501D596A0B6
:1043900005E0E00701D095A001E0AFF24C001390DA
:1043A000307823F0004365280CD006DC452809D07E
:1043B00046281DD047287FD13BE0662818D06728C3
:1043C0007AD136E00021112F01DB112000E0781CAA
:1043D000CDE9000104A90CA8FFF7E6FCDDE90D0119
:1043E0000C9A4FF0000B07F10109109200914EE07A
:1043F0004FF000400097CDE9011004A90CA8FFF789
:10440000D3FCDDE90D020C9B0F994FF0000B914698
:104410001093009211B9791C00EB0109B7EB090068
:1044200003D4C0F1FF3B07F10109A9EB070001909C
:1044300042E0012F00DA01270021112F01DD1120B8
:1044400000E03846CDE9000104A90CA8FFF7ACFC58
:10445000DDE90D010C9A00914FF0000BB946109266
:1044600021070FD4009A4A4503DA914601E0A9F1E9
:104470000109B9F1010F05DD109AA9F10101515CA3
:104480003029F4D0B84202DA10F1040F03DA012126
:10449000CDE9011010E0002803DC8344A9EB000102
:1044A00002E0411C494500DD8946A0EB0B00401CA1
:1044B00001904FF000400290200705D40198484534
:1044C00002DB4FF0FF30019000208DF84B00029886
:1044D0000DF14B07B0F1004F25D002200C902B209E
:1044E0000D90029800280CDA404202902D200D9089
:1044F00007E00A210298FEF767FC3031029007F8C6
:10450000011D0C99481E0C900029F2DC029800282D
:10451000EFD1791E0D980870307800F0200040F03F
:10452000450007F8020D11A8C01BC01D029013988A
:10453000007800B1012000EB0901019801EBE07166
:10454000029801440398401A401E0390E00306D4E9
:1045500053462146179A039800F05CF805441398D7
:10456000007818B15246179990476D1CE00323D587
:1045700053462146179A039800F04CF805441BE077
:10458000BBF1000F07DB0098584504DD1098179920
:1045900010F80B0001E0179930205246904701981F
:1045A0000BF1010B401E05F10105019004D12E20F5
:1045B0005246179990476D1CB9F10001A9F1010904
:1045C000DEDC05E017F8010B5246179990476D1C89
:1045D0000299481E02900029F4DC53462146179A9E
:1045E00003989EE62D0000002B0000002000000034
:1045F0002DE9F041044600251E461746880404D4E0
:1046000005E039462020B0476D1C641EF9D52846C8
:10461000BDE8F0812DE9F041044600251E46904694
:10462000C80301D5302700E02027880404D505E021
:1046300041463846B0476D1C641EF9D52846BDE892
:10464000F0814A68002A06D00A68531C0B6010707B
:104650004868401E486070470A68531C0B60107021
:104660007047000010B58CB004462C2101A8FDF75E
:1046700060FDA069019016490198884202D0E420AB
:104680000CB010BD207F8DF808000E2003904FF471
:1046900000100590C012069000200790202108917C
:1046A000042109910A900B90002101A800F0ACFCB4
:1046B000084C21688887002801DAE420E0E700F050
:1046C00091FC21688862091DC1620020D8E70000C2
:1046D000003001A0C88A00300FB41CB50B9C1C49E7
:1046E000CA688968CDE9001208218DF804100021FC
:1046F0008DF8051000280CD1069800909DF8150043
:104700008DF806009DF81400694600F0B1FD002800
:104710001AD1089800909DF81D008DF806009DF8AC
:104720001C00694600F0A4FD00280DD1B4F1C05F63
:104730000AD30A9800909DF825008DF806009DF890
:104740002400694600F094FD1CBC5DF814FB0000D9
:10475000901102012DE9F05F0746894693464FEA22
:104760005B04A2464D465F4EDFF87C81EFF310807C
:10477000012181F31088D8F8A41221F02001C8F893
:10478000A41280F31088EFF31080012181F31088C8
:10479000D8F8A01221F02001C8F8A01280F31088E8
:1047A000306820F080403060504830603F20D8F8BA
:1047B000001160F30501C8F80011306820F46010A2
:1047C00040EAC7403060306820F4E02040EA07400B
:1047D0003060052F03D1306840F400403060062F70
:1047E00003D1306840F480403060306840F40050BD
:1047F0003060306820F060503060306820F00F008A
:1048000040F003003060EFF31080012181F3108845
:10481000344A3832116821F0E04141F080411160A2
:1048200080F31088306840F08040306001E0D8F8B4
:104830000000D8F80401C0F300200028F7D1EFF3FE
:104840001080012181F31088116841F0004111604E
:1048500080F3108834E000204FF47A711AE0884227
:1048600017D9306820F080403060306840F0004058
:104870003060306820F00040306011F0F3FB1C48DD
:104880000168491C016054464D46052077F4B7D1B4
:104890006CE7401CD8F80421C2F30022002ADED0C5
:1048A000D8F8040100F07F01A14200D92146002080
:1048B00003E0D8F8002004C5401C8842F9D3641AEC
:1048C000002CC8D15FEACB7008D0D8F80401C0F33F
:1048D00000200028F9D0D8F800002880BDE8F05F5B
:1048E00011F0C0BB08C500A000E000A00A0708073F
:1048F0007495003070B5C46AE069C00707D04FF402
:104900007A71204603F402F798B10EF0B9FC002545
:10491000256211F097FB0B48057094F829000228D6
:104920000FD1012084F829002046BDE870400EF028
:1049300093BB05480068D4E90621491E22F81100FE
:10494000E5E770BD5093003000E000A070B50D4D5C
:10495000286890F83E10012912D1001D03F4D8F602
:10496000012802D008B1002070BDEFF310840120AF
:1049700080F310882868001D0EF0F8FD84F310887D
:10498000012070BDC88A00302DE9F04707468946EE
:1049900016464FF0E02ADAF81480DAF81850FEF7DD
:1049A000EBFE15484FF47A710068B0FBF1F37343E6
:1049B000124919E0701C17D0DAF81840A54201DB43
:1049C000281B02E0A8EB040028441B1A25460EB160
:1049D000002B09DC042087F82900F86A40F0010068
:1049E000F8620120BDE8F087D1F8040100F07F00F3
:1049F0004845DFD30020F5E70889003000E000A03B
:104A000070B505460C46002C02D00DB1A54201D16F
:104A1000002070BDA86840B1406820B1214619F05F
:104A200067FEA8684460012070BDAC60646000202F
:104A30002060F8E72DE9F04107460846069914463C
:104A40009846002F03D010B10CB1A74202D100202C
:104A5000BDE8F08131B109F0B5FD0546E06840F4EC
:104A6000007607E0414609F025FD054695B1E0686E
:104A700020F40076A089800504D4206A10B1D8F80B
:104A8000041088472562E66021463846BDE8F041BB
:104A9000FFF7B6BF0020DBE72DE9F04107460E46E1
:104AA0004FF000080024274D0BE004EBC40005EB99
:104AB0008000801C07223946FDF773FB40B1641C5F
:104AC000E4B22878A042F0D8B8F1000F18D102E083
:104AD0004FF00108F8E728780A21B0FBF1F201FB5A
:104AE00012040A2801D2401C287004EBC40105EB13
:104AF00081003968C0F80210B988C180B9790172A3
:104B00002B7811A21021002003F404F6307800075E
:104B10000BD504EBC40005EB800006F14601BDE8AF
:104B2000F0410A301C22FDF7EBBA04EBC40005EBA0
:104B3000800006F12A01BDE8F0410A301C22FDF791
:104B4000DFBA0000185B0130523A313A61646420E8
:104B50006C746B206974656D2C206E756D203D2022
:104B600025640A000449896B084004490A78104307
:104B700000220A7070470000002001A070910030F0
:104B80000C4900280BDC0868C0F34120012805D03F
:104B9000086820F4C06040F40070086070470A287C
:104BA000FCDB086810F4C06FF8D0086820F4C0601F
:104BB000086070470CC500A010B50D4A1368002BA3
:104BC0000FD093F83E2062B168B161B193F83F20F5
:104BD0005AB10A460146181D0EF032FC0028FFD1DA
:104BE00010BDE92010BDE42010BDE72010BD00007D
:104BF000C88A003070B50F4D2868002815D090F88D
:104C00003E1091B1002480F83E40046444640720C3
:104C100016F038FE2868001D0EF046FA002805D16F
:104C2000286890F83F0010B102E0E92070BD2C60C8
:104C3000002070BDC88A003010B5094C20680028DB
:104C400003D090F83F10012901D0E92010BDB0F940
:104C50003C0000F093F92168002081F83F0010BD6E
:104C6000C88A003070B500280AD00F4D296849B1B4
:104C700091F83E2032B191F83F1029B1EA2070BD81
:104C8000E52070BDE92070BDEFF31084012181F3B0
:104C90001088FFF7E7FC18B92A68012182F83F1055
:104CA00084F3108870BD0000C88A00307FB50446C8
:104CB0000E46002C30D0194D04F138002860E06A0F
:104CC0000390D4E90412E0688DE8070094E80E0030
:104CD000A06AFFF701FD00281CD1286840C01822F7
:104CE00004F12001FDF70CFA2868001D0EF0DCF934
:104CF00000280FD12868001D0EF016FA002809D1EF
:104D000007220321064816F0A5FD2968012081F835
:104D10003E00002004B070BDE520FBE7C88A0030EB
:104D20009011020110B50B4B1C68002C0DD094F8AB
:104D30003E3053B158B151B14AB113460A4601460B
:104D4000201D0EF021FC002010BDE92010BDE42044
:104D500010BD0000C88A00302DE9F04106460F461C
:104D6000154672B63846FDF707FA402801D94020AB
:104D700002E03846FDF700FA80463046FDF7FCF9C0
:104D8000402801D9402002E03046FDF7F5F90446FD
:104D90009C211048FDF7CDF9424639460D48FDF7F4
:104DA000AFF90C48224631465C30FDF7A9F90948B5
:104DB0004FF0AA31016445644FF0BB3181644FF07C
:104DC000CC3101654FF0DD318165002000F004F841
:104DD000FEE70000BC9E003030B5ADF20C4D04463D
:104DE0004FF4806103A8FDF7A4F9194D202085F840
:104DF0003F0085F89B003CB12846012C436DC26CF6
:104E000009D0022C0CD00FE0114A12A15C3203A889
:104E1000FEF706FD08E012A103A8FEF701FD03E07E
:104E200017A103A8FEF7FCFC03A90CA2686CCDE94E
:104E30000121009019A3064A19A1002000F072FB7D
:104E4000012C01D000F046FB0DF20C4D30BD0000EE
:104E5000BC9E00305B4552524F525D2025730000CE
:104E60005B5741524E494E475D20506172616D3033
:104E70003A25642C506172616D313A25640000005E
:104E80005B504152414D5D20506172616D303A2559
:104E9000642C506172616D313A256400000000009D
:104EA0006170705F6173736572742E63000000003F
:104EB000014876F4E1940000E08A00302DE9F041E9
:104EC00006460F4690461D4672B64046FDF754F919
:104ED000402801D9402002E04046FDF74DF9044644
:104EE0009C210D48FDF725F9224641460A48FDF769
:104EF00007F909484FF05531016445644FF06631B8
:104F00008164C6644FF0773101654765C9438165A7
:104F10000220FFF761FFFEE7BC9E00302DE9F04163
:104F200006460F4690461D464046FDF725F94028A7
:104F300001D9402002E04046FDF71EF904469C21BD
:104F40000D48FDF7F6F8224641460B48FDF7D8F824
:104F500009484FF011310164456449008164C66419
:104F60004FF03331016547654FF044318165BDE84D
:104F7000F0410120FFF730BFBC9E003070B508281B
:104F800001D3E82070BD164D00EB400005EB401446
:104F90002078C8B1EFF31086012080F31088201D1F
:104FA0000EF06EFC00202070FF202071002000EB2E
:104FB000400105EB41110978012902D0401C082865
:104FC000F5D3082802D007E0E92070BD002016F0D4
:104FD00059FC032003F4A0F386F31088002070BD71
:104FE00078960030082801D30020704700EB40017C
:104FF000044800EB4110017809B1001D7047002002
:1050000070470000789600302DE9F0470546894644
:1050100000244FF0FF3846464FF0010A002D16D00D
:105020003349032019F05CFB287990B1012810D096
:1050300002280ED003280CD004280AD0052808D056
:10504000062806D0072804D04046BDE8F087E520B2
:10505000FBE7EFF31082012181F31088254F04EB69
:10506000440107EB41110B7813B10B7983420DD149
:1050700004EB440007EB401090F82D00022803D009
:1050800026B20120087004E0082402E0641C082C09
:10509000E5D382F31088082C23D20022032116487E
:1050A00016F0D8FB04EB440107EB4114287920717A
:1050B00004F10800242205F10801FDF721F80F484A
:1050C00060630F48E06300202064C4F85C90032014
:1050D00003F424F3032003F423F3201D0EF000FC5B
:1050E0008246BAF1000F00D046463046ADE70000D8
:1050F000B1428000789600308811020185F30001EA
:105100000DF300013EB504464FF400711A48FDF757
:1051100010F8207810B1012819D01DE0002117489F
:10512000A28830F831309A4207D100EBC10014A1B7
:1051300043681148FEF774FB0EE02E2902D0491C8B
:10514000C9B2EEE714A10C48FEF76AFB04E01DA10A
:1051500009486268FEF764FB074921A22069CDE98E
:1051600001210090D4E902231EA1002000F0DAF909
:10517000BDE83E4000F0C2B9589F0030A0120201C5
:105180004572726F7220636F646520307825303409
:10519000583A2025730000004572726F7220636FC9
:1051A0006465203078253034583A204E6F20666F81
:1051B000756E6420696E666F726D6174696F6E2EB4
:1051C0000000000028257329206973206E6F742069
:1051D00065737461626C69736865642E0000000019
:1051E000257300006170705F6572726F722E6300CC
:1051F00010B50C46062833D2DFE800F00303031E87
:105200002710184951F830002104090C04D018B1B6
:1052100021460EF021FD1FE0E42010BD2004000C0B
:1052200003D0A1B210480EF017FD200C14D0210CB1
:105230000E480EF011FD0FE014F0FF0F03D02046D2
:105240000EF05EFA08E0E42010BD14F0FF0F05D068
:10525000214600200EF072FD002010BDE42010BD9C
:10526000E62010BDDC110201000001A0001001A029
:1052700070B58EB005460C46564901F164004DC824
:10528000CDE90A02CDE90C36D1E91E23486F06AEFE
:10529000D1F880100DC6099114224E49843101A81D
:1052A000FCF72EFFACB14C49062019F019FA4B4916
:1052B000072019F015FA4A49122019F011FA454948
:1052C000444A2C31062D7CD2DFE805F00606064163
:1052D0005921E5200EB070BD207931F810000B90F7
:1052E000607932F810000C90A0790D9020680A9037
:1052F0003848143050F8350021880904090C04D0CE
:1053000018B10AA90EF0F6FC59E0E420E2E7207992
:1053100031F810000B90607932F810000C90A079F1
:105320000D9020680A9020680104090C05D080B215
:105330000A900AA92B480EF0DDFC2068010C3ED033
:10534000000C0A900AA928480EF0D4FC37E0207916
:1053500001EB4000408A0790607902EB4000C08872
:105360000890A079099020680690207810F0FF0F2F
:1053700003D006A80EF016FA21E0E420AAE720796F
:10538000031F032B01D8E720A4E702281AD001202D
:105390000290207901EB4000808C0390607902EB51
:1053A000400080890490A0790590206801902078C1
:1053B00010F0FF0F09D001A900200EF017FD00200A
:1053C00088E704E002200290E3E7E42082E7E62099
:1053D00080E70000C811020137438000314380009C
:1053E0002D438000000001A0001001A010B502466E
:1053F0000C460020062A26D2DFE802F00303031A37
:105400001F0B114850F83200A1B2BDE8104003F460
:1054100089B12104090C03D0A1B20C4803F482F134
:10542000210C10D0210CBDE81040094803F47AB1DA
:10543000A0B2BDE8104003F477B1A1B2BDE81040BE
:1054400000200EF0D6BC10BDDC110201000001A04E
:10545000001001A070B50C461546002D03D0012D9B
:1054600001D0E42070BD06282BD2DFE800F0030352
:10547000031E230E144951F8300020B1A1B22A4670
:1054800003F454F11BE0E42070BD2004000C04D0B0
:10549000A1B22A460D4803F449F1200C0FD0210C8B
:1054A0002A460B4803F442F109E0A0B229460EF067
:1054B000CDF904E0A1B22A4600200EF09DFC0020A8
:1054C00070BDE62070BD0000DC110201000001A0EB
:1054D000001001A00248406A002800D00047704731
:1054E00058A20030002806D0002904D0024AD26910
:1054F000002A00D01047704758A200300248006AC6
:10550000002800D00047704758A20030044A1044D9
:10551000807D084201D001207047002070470000C4
:1055200058A200302DE9FE4F0746924699460024C6
:10553000A046CDF80480CDF8088059480178B942DA
:1055400002D2807E00287DD10EAD0095EFF311864A
:105550000220FEF76CFA8346FEF78EFA401C01210A
:1055600081400BEB0100C0B280F311880121384665
:10557000FFF7CCFF38B14B484B4950F82720204665
:1055800000F0A4F804461C213846FFF7BFFF0028AE
:105590005ED046A24449204600F098F8204484B2E8
:1055A00004213846FFF7B2FFF8B152463E49204683
:1055B00000F08CF8204484B208213846FFF7A6FF9B
:1055C00038B13BA23849204600F080F8204484B22C
:1055D0000BE010213846FFF799FF30B135A2324970
:1055E000204600F073F8204484B208213846FFF7C3
:1055F0008DFF90B14A462C49204600F067F82044C0
:1056000084B210213846FFF781FF30B12AA2264923
:10561000204600F05BF8204484B210213846FFF7A2
:1056200075FF60B126A2052101A80C9BFEF7DEF8EC
:1056300001AA1D49204600F049F8204484B221A265
:10564000194900E029E0204600F040F8204484B2E7
:105650001548C4F5807120442B460D9AFEF7F4F8E6
:10566000CDF800804FF48071002804DB204488428C
:1056700001DC85B200E00D46A81C884200D9FE2559
:1056800011A20949284600F021F8284481B20648B1
:10569000FFF728FFF0B280F31188BDE8FE8F00000D
:1056A00058A20030EC8A003058A1003028000000D9
:1056B000200000003A000000204C696E653A0000AE
:1056C000256C6400292000000D0A000030B5054655
:1056D000002000290CD0002A0AD006E02B18FF2B4E
:1056E00006D8CC54521C401C80B21478002CF5D142
:1056F00030BD00002DE9FC41374A06214CF2010083
:1057000014F0AAFAFFF7D4FB4FF416501AF0BCFEBF
:105710004FF4E13019F0ACFD2F4CE0680190022508
:105720008DF8045000268DF8056007278DF8067067
:105730004FF00078CDF8008069460520FFF798FD0E
:10574000012241460520FFF785FE606901908DF832
:1057500004508DF805608DF80670042000906946AD
:105760000320FFF785FD012204210320FFF772FECD
:10577000E06901908DF804508DF805608DF8067091
:105780004020009069460320FFF772FD012240216E
:105790000320FFF75FFE07F061FF60B10FA040F24A
:1057A000C911CDE9001004F1360315A21DA1022094
:1057B000FFF7B8FE0BE01DA040F2CB11CDE90010C1
:1057C000054B0FA2363317A10020FFF7ABFEBDE853
:1057D000FC41002073F44692E8140201424D383532
:1057E00036332052544320696E697469616C697A5A
:1057F0006564207375636365737366756C6C79009B
:105800002E2E5C5372635C706C6174666F726D5C9B
:10581000757365725F7065726970685F73657475C2
:10582000702E63004E4F5F5441470000424D3835A3
:1058300036332052544320696E697469616C697A09
:105840006174696F6E206661696C656400000000B8
:1058500010B50848017800290AD1012101700648D5
:1058600073F450D0BDE810400021044873F4AC92AA
:1058700010BD0000CC8A00304D43800001B801010A
:105880002DE9F04104460D461746002D04D0012DA8
:1058900002D00120BDE8F081E4B1DFB160780128D9
:1058A0001AD0EFF311860220FEF7B3F88046FEF718
:1058B000DBF8401C0121814008EB0100C0B280F3FD
:1058C000118800206070A570E761F0B280F3118844
:1058D0000020DFE70120DDE70620DBE710B5044606
:1058E000002C0CD0204600F0B3F9FF20607000219E
:1058F000A160E160216161610020E06110BD0120D3
:1059000010BDF0B5DDE90745059981614FF47A7660
:10591000A2FB061C03FB06C3002702FB0732C0E9FB
:10592000021209196A41C0E9041200210162F0BDA6
:105930002DE9F0410446002C13D0EFF3118502202D
:10594000FEF767F80746FEF78FF8401C012606FAB7
:1059500000F03844C0B280F311881248002121625F
:105960000EE00020BDE8F081D4E90432D1E9047CE6
:10597000DB1B72EB0C0202D2016A216203E00846D3
:10598000016A0029F0D10462667006481038016887
:10599000491C0160016B4160E8B280F3118801206D
:1059A000E0E70000E09B00302DE9F04105460024CF
:1059B000EFF311860220FEF72CF80746FEF754F8A5
:1059C000401C012181407818C0B280F31188134A2D
:1059D000106BE8B115B102F1100010E00446206A26
:1059E00010631068401E10600CE0A94206D11168D7
:1059F000491E1160296A01622C4603E00846016ACB
:105A00000029F2D124B1002020626070106B506038
:105A1000F0B280F311882046BDE8F081D09B0030C1
:105A20002DE9F041EFF311870220FDF7F2FF044664
:105A3000FEF71AF8401C012181406018C0B280F3C3
:105A40001188114D002608E02078012804D1E16971
:105A500009B1A069884726702D6A2C6A002CF3D101
:105A6000094D103D07E0E16909B1A069884726703A
:105A7000206AA8632662AC6B002CF4D1F8B280F3E4
:105A800011880120BDE8F081E09B00302DE9F04154
:105A9000EFF311870220FDF7BCFF0446FDF7E4FF9A
:105AA000401C012606FA00F02044C0B280F31188A1
:105AB0001D4DA5F110082DE0D4E90430D8E90212FB
:105AC0005B1A60EB0200D8E91021D21A814124D37D
:105AD00026702046FFF768FFA078012806D01248FC
:105AE000283000212162016861B10FE0D8E902206D
:105AF000D4E9021351185841C4E904102046FFF7B5
:105B000017FF07E0046005E001F1200001680029AB
:105B1000FAD104602C6A002CCED1F8B280F311883F
:105B20000120BDE8F0810000E09B00302DE9FF5F1F
:105B300082460E4693464FF00008BAF1000F20D07F
:105B4000414886421DD8E6B1EFF311870220FDF7E8
:105B500060FF0446FDF788FF401C0121814060186A
:105B6000C0B280F3118850460FF0ACFF10B19AF824
:105B7000010040B1F8B280F311880F2004B0BDE8F5
:105B8000F09F0120FAE713F04FFA04460D464FF458
:105B90007A7106FB01F022462B4600210FF062FFCE
:105BA000DFF8A890B0B1D9F8040048B1D0E90410EA
:105BB000091B60EB0500C9E9021013F0C9FA04E003
:105BC0000021C9F80810C9F80C104FF00108D9E9F4
:105BD000020106E0D9F80400D0E90421101B61EBB2
:105BE0000501CDE9020132460023CDF800B0504650
:105BF000FFF787FE5046FFF79BFE18F00FFC4FF0B3
:105C0000E024D4F800014FF0806510F0806F01D0DF
:105C1000012000E0002020B91A20FDF741FEC4F861
:105C20000051B8F1000F0AD0D9F80400D0E90431CE
:105C3000D9E90202181A61EB020113F02BFAF8B24B
:105C400080F31188002099E7008AB907D09B0030C3
:105C50002DE9F04104460025002C39D0EFF31187DF
:105C60000220FDF7D6FE0646FDF7FEFE401C012190
:105C700081407018C0B280F311886078012824D167
:105C8000144E7068A0420BD113F0CEF9D4E904325F
:105C9000181A62EB0102C6E9020213F059FA012553
:105CA0002046FFF781FE5DB1706848B1D0E904215C
:105CB000D6E90203101A61EB030113F0EBF904E0DB
:105CC0001DB9706808B913F043FAF8B280F311886F
:105CD000BDE8F081D09B00302DE9FF470178002618
:105CE000DFF8F0804FF4007A002967D001296FD0E7
:105CF00002296DD187880025DFF8DC9054E0374811
:105D0000415DB8F80200B0F5FF7F3ED8421C94B266
:105D1000A8F8024009F80010022C09D309EB04008E
:105D200010F8021C0D2903D110F8010C0A2807D025
:105D3000002C37D009EB040010F8010C0A2831D1EF
:105D4000022C05D309EB040010F8020C0D2819D021
:105D50000CB1641EA4B294B109F8046020A04FF401
:105D60008771CDE90010CDE90249234B23A22CA174
:105D70000220FFF7D7FB2146174805F08FFCA8F853
:105D800002600FE0A41EA4B2E5E727A04FF48D71D6
:105D9000CDE90010184B19A221A10120FFF7C2FB89
:105DA000A8F802606D1CADB2BD42A8D304B0524643
:105DB000BDE8F0470949012000F058BBA8F802608F
:105DC00004B05246BDE8F0470449012000F04EBB44
:105DD000BDE8FF87D08C0030A4D90030A4D70030B4
:105DE00055415254312052583A205B256420627943
:105DF0007465735D20257300081502012E2E5C5317
:105E000072635C706C6174666F726D5C75736572E1
:105E10005F7065726970685F73657475702E63007A
:105E20004E4F5F5441470000554152543120525863
:105E300020627566666572206F766572666C6F7734
:105E40002C20726573657474696E670010B5044622
:105E5000114822784FF0FF3150F82220A2F8681044
:105E6000227850F82200A0F86A10606B002801D157
:105E7000A16B71B120B1204600F05EF8002807D177
:105E8000A06B20B1204600F009F8002800D10020C6
:105E900010BDE42010BD0000D08A003030B58BB0BA
:105EA00004462C216846FCF744F9A06B009094F856
:105EB0003D008DF804001D490098884205D12278E4
:105EC0001B4B03EB021252680292029AF2B1884213
:105ED00001D10F2003904FF400100490C0120590E0
:105EE00000200690079008900990A0200A900021B9
:105EF0006846FFF789F821780E4D55F82110A1F872
:105F00006A00002804DAE4200BB030BDE720FBE78C
:105F1000FFF768F8217855F821104863217855F883
:105F20002110091DC1620020EEE70000003001A031
:105F300080120201D08A003030B58BB004462C218B
:105F40006846FCF7F6F8606B009094F83C008DF81A
:105F500004001D480099814202D14FF00F000290C9
:105F600005D12078194901EB0010006803900398CF
:105F7000D8B14FF4801004904FF0000005904FF41A
:105F8000807106910790089009900A900146684632
:105F9000FFF73AF821780E4D55F82110A1F8680066
:105FA000002804DAE4200BB030BDE720FBE7FFF760
:105FB00019F8217855F821100863217855F8211037
:105FC000091DC1620020EEE7003001A0801202012D
:105FD000D08A00302DE9F0410446022C02D3E8209B
:105FE000BDE8F081364D55F82400C0B190F86C1032
:105FF000A9B1406E41680078FFF7FAF80028EFD1A8
:1060000055F82400406E0169007BFFF7F1F8002885
:10601000E6D155F824008169222902D012E0E5205A
:10602000DEE7406E816A90F82400FFF7E1F800286F
:10603000D6D155F82400406EC169007EFFF7D8F82C
:106040000028CDD11F4800EBC40090F9010002F4F4
:1060500063F355F82400002780F86C7055F824008D
:1060600080F8007155F8240080F8017155F824007B
:1060700080F8027155F8240080F80371EFF3108660
:10608000012080F31088002055F8201011B191F8FC
:106090006C1029B9401C0228F6D3012015F0F2FB40
:1060A00086F3108855F82400001D0EF009F955F804
:1060B000240090F86D0008B945F8247000208FE79F
:1060C000D08A00307012020170B500280ED004781A
:1060D000012C0DD0104E56F8241059B191F86C20B7
:1060E00042B191F86D1039B1EA2070BDE52070BD64
:1060F000E82070BDE92070BDEFF31085012181F328
:106100001088FFF7A3FE20B956F82420012182F859
:106110006D1085F3108870BDD08A003070B50228EC
:1061200001D3E82070BD134C54F820304BB193F8E4
:106130006D5035B139B132B193F80351012D04D00E
:1061400010E0E92070BDE42070BD002583F8035104
:1061500054F820305B680225C3F8885054F820308A
:106160005B681B6854F82000001D0EF0F3F800284F
:10617000EAD170BDD08A003070B504461A4D55F88A
:106180002400703015F065FF82B21646A2B155F8B2
:10619000240090F8011101290ED0012180F804118A
:1061A000802A0FD355F82400802200F1800170303E
:1061B00015F064FF80260CE055F82410002081F8CB
:1061C000000170BD55F8240000F18001703015F019
:1061D00055FF55F82400324600F18001001D02F4FD
:1061E000A7F20028EDD170BDD08A00302DE9F0472C
:1061F000ACB000286ED00178514F4FF00008002954
:1062000069D0012966D0022964D1B0F80490002435
:10621000DFF830A17CE04C48025D3888FF2873D855
:10622000411C89B239800AF8002002296ED30AEB9A
:10623000010010F8022C0D2A68D110F8010C0A2870
:1062400064D11D2912D00025032905D303223FA1C3
:106250003C48FBF7BCFFD8B3388808283FD3082256
:106260003BA13848FBF7B3FF98B338E028AA35487C
:1062700017F04CF803465BB138A2402118A8FDF78F
:10628000B5FA00283CDD81B218A81AF06FF937E0A2
:106290002998FCF739FD05460E462898FCF734FD91
:1062A0000A4601469DF8AD309DF8AC00DDF8A8C067
:1062B0008DE86610CDE905032F4A802108A8FDF777
:1062C00095FA00281CDD81B208A81AF04FF917E0F2
:1062D00002E003E030E025E0012500E001255DB1AA
:1062E0003A881849012019F023FE48B93A8815491F
:1062F000012000F0D1FB03E0398812481AF036F98A
:10630000A7F8008002E0FFE7A7F80080641CA4B2B1
:106310004C4580D32CB0F422BDE8F0470A49002058
:10632000FFF7FCBEA7F800802CB0F422BDE8F047D0
:1063300005490020FFF7F2BE2CB0BDE8F087000051
:10634000D08C003050C4003050C5003041543A0069
:1063500061646D696E41542B0000000050617273DE
:1063600065206661696C65642C206572726F723A93
:106370002025640D0A000000902F02012DE9F04154
:1063800005460F46002D06D02AB12C78022C04D3E6
:10639000E820BDE8F081E520FBE7304E05F158002C
:1063A00046F82400D2E900310A467030194615F04B
:1063B00031FE291D286D1AF01FF80028E9D156F882
:1063C0002410281D486656F82400076056F824005B
:1063D0001822083005F14001FBF792FE204856F8DC
:1063E000241000EBC4056868486056F82400001DBE
:1063F0000DF066FF56F82400001D0DF097FF1848B9
:1064000001220321103815F025FA56F82410012036
:1064100081F86C0056F82410002081F8000156F82D
:10642000241081F8010156F8241081F8020156F871
:10643000241081F803010B490C2018F051F90A4986
:106440000D2018F04DF995F9010002F467F195F966
:10645000010002F465F100209BE70000D08A0030C3
:1064600070120201A9370001B937000170B5022886
:1064700001D3E82070BD134C54F820304BB193F891
:106480006C5035B139B132B193F80351012D04D0BC
:1064900010E0E52070BDE42070BD002583F80351B5
:1064A00054F820305B680225C3F8885054F8203037
:1064B0005B681B6854F82000001D0DF0BFFF00282A
:1064C000EAD170BDD08A00302DE9F04104461A4D62
:1064D00055F82400703015F0BCFD82B21646002736
:1064E0007AB155F8240090F80111012909D0802AC9
:1064F0000ED300F180017030802215F0BFFD8026A0
:106500000BE055F8240080F800710020BDE8F08110
:1065100000F18001703015F0B1FD55F8240080F8CD
:10652000047155F82400324600F18001001D02F488
:1065300001F10028EAD1E9E7D08A003070B50228DD
:1065400001D3E82070BD104D55F8204064B194F897
:106550006C604EB151B14AB15E1C09D044F6206660
:10656000B34205D9E42070BDE52070BDE42070BDC4
:10657000002684F8026155F82000001D02F4DCF0CA
:106580000028F4D170BD0000D08A00302DE9F04120
:1065900006460C46174604F1080520466FF40CD158
:1065A000C3B21B48E1184268914202DD0320BDE8F6
:1065B000F0811849184A006809681268891A081A8F
:1065C000001FE91881421CD94FF4004513A2294647
:1065D000002002F49FF008F00BF930B118A2294610
:1065E000002002F497F00820E1E71DA229460020D0
:1065F00002F490F03A4621463046BDE8F0411AF0E8
:10660000EFBC3A4621463046BDE8F0411AF0E8BCFE
:10661000D8328000D0238000CC238000523A353A13
:106620004E5644532061726561206973206265692A
:106630006E6720636F6D7061637465642E0D0A0070
:10664000523A353A436F6D70616374696E67204EDC
:10665000564453206661696C65640D0A00000000B1
:10666000523A353A436F6D70616374696E67204EBC
:10667000564453207375636365737366756C0D0AB6
:106680000000000070B5002606710021032585700A
:106690002A46B0F844309B1E0AE003D1511BC1705A
:1066A000067170BD046CA45C3D2C09D0521C92B2E2
:1066B0009342F2DA417100F1210500F1050219E07F
:1066C000A2EB050101F10101C17002F1010291B2D9
:1066D000F0E7036C5B5C3A2B12D02C2B10D08C4271
:1066E00006D103799C5C0C1B5C5503795B1C037120
:1066F000491C89B2B0F84440A41E8C42E9DA70BD4E
:1067000003799C5C0C1B5C5503795B1CDBB2037149
:106710004C1C9C54ECE7002805D0012805D04028EB
:1067200003D009207047002070470620704770B5DD
:10673000002904D0002313606FF02F0611E0002021
:1067400070BDC45CA4F130050A2D01D3002070BDDA
:10675000156805EB850506EB45052C4414605B1CAC
:10676000DBB28B42EDD3012070BD000070B5044652
:1067700000202178002935D00A293BD2DFE801F03A
:106780003A050A0F14191E23282D35A1394800F0A7
:10679000F1F92FE038A1374800F0ECF92AE03DA1EB
:1067A000344800F0E7F925E042A1324800F0E2F970
:1067B00020E04AA12F4800F0DDF91BE04DA12D4853
:1067C00000F0D8F916E052A12A4800F0D3F911E000
:1067D00053A1284800F0CEF90CE059A1254800F05B
:1067E000C9F907E0B4F80221611C2248FBF788FCD4
:1067F00094F802011F490D220A5401440A224A70EA
:10680000554DEB6883B16978012902D0022906D081
:106810000AE0801CC2B217490120984704E0801C9E
:10682000C2B2144902209847012028742078082811
:1068300015D1494869681430407800EB8002102077
:1068400000EB82000C58002C09D02046FBF794FC8A
:1068500082B268782146BDE8704000F01DB970BD75
:106860004552523A20496E76616C696420696E70B7
:1068700075742E00BC9D00304552523A20556E73FF
:106880007570706F7274656420415420434D442EBE
:10689000000000004552523A204E6F20616C6C6F30
:1068A0007765642070617273652073746174652EFE
:1068B000000000004552523A20436F6D6D616E64D6
:1068C0002072657175657374206973206E6F742012
:1068D000616C6C6F7765642E000000004552523A7F
:1068E000204E6F20415420434D442068616E646CFB
:1068F00065722E004552523A20496E76616C696489
:1069000020706172616D65746572732E0000000005
:106910004552523A2048616C206572726F722E00A7
:106920004552523A20415420434D442065786563D6
:106930007574652074696D656F75742E00000000B4
:106940004552523A204F74686572206572726F72B8
:1069500020636F64652E0000609C003000B5C1B0FC
:106960004FF482716846FBF7E4FB0748017C01297C
:1069700007D00121017408208DF800006846FFF758
:10698000F5FE41B000BD0000609C0030002807D03B
:10699000012807D0022805D0032803D00020704723
:1069A00000207047072070472DE9F0410546002080
:1069B00028700024124E08274FF0040813E004EB5F
:1069C0008401706807EB8102835CEA78934208D106
:1069D00008EB8101AB784158286C1844FBF7E1FBC8
:1069E00030B1641CE4B23078A042E8D8BDE8F08150
:1069F000706804EB840110F8210028706C70F5E7D2
:106A0000609C003010B5044614210E48FBF791FB42
:106A10000C4848211430FBF78CFB0A48217901709F
:106A200021684160A1688160E168C1600121017451
:106A3000417000F15C01143001640021A0F84410A1
:106A400010BD0000609C003070B504460E4615462F
:106A5000032210A12046FBF7A4FB08B1002070BD63
:106A6000012209E0A05C0A2804D1A01810F8010C4A
:106A70000D2805D0521CD2B2B242F3D3002070BD13
:106A8000521CA5F844202146286CFBF739FB012055
:106A900070BD000041543A002DE9F047C2B00646EF
:106AA000894692464FF4827101A8FBF742FB00240D
:106AB000294D6E70A5F1480001260078132801D1F8
:106AC0002E740124287C0327012807D08DF8047038
:106AD00001A8FFF74BFE42B0BDE8F0874FF0020877
:106AE00085F810801C4A514614324846FFF7ACFF27
:106AF00070B119481430FFF7C5FD17481430FFF77F
:106B000053FF154E1436B4B13078142806D012E075
:106B10008DF8046001A8FFF729FEDCE700208DF85E
:106B200004000EA10DF1050000F024F8ADF80601F7
:106B300001A8FFF71BFE307840B12F7406494822A8
:106B40001431A1F15C00FBF7DBFAC4E78DF8048097
:106B500001A8FFF70BFEBEE7609C00307374617202
:106B6000742063616E63656C20636F6E6E65637421
:106B70002E2E2E000FB410B5C0B0044644AA6846AD
:106B80004399FCF77BFE6846FBF7F6FA0246694636
:106B90002046FBF7B5FA6846FBF7EEFA40B0C0B204
:106BA00010BC5DF814FB000070B5C2B0164C207C20
:106BB000032827D10420207404F114060C257078D2
:106BC000616800EB800005EB8000085878B1A06890
:106BD00000B180477078616800EB800005EB8000B1
:106BE000095842B00848BDE87040143008474FF4D7
:106BF000827101A8FBF79DFA05208DF8040001A819
:106C0000FFF7B4FD42B070BD609C00307CB50D460E
:106C1000002200920192694601F490F5044634BBCB
:106C20004FF42051684601F48BF5B8B942F60101E2
:106C3000684601F485F588B942F60301684601F417
:106C40007FF558B942F60201684601F479F528B992
:106C50004FF42451684601F473F508B1062406E0A8
:106C60000098C5F30B01808808430099888020466E
:106C70007CBD00002DE9F04105460C46FF26217A37
:106C80001E2905D022480279521E52B200683AE00D
:106C900004F10801284601F455F5064635E010F8E0
:106CA00032308B422DD11B4E56F82500406F30B349
:106CB00000273B4618A24021002001F42BF50620B6
:106CC00000EB052029F456D3C00605D5002717A2EE
:106CD0004021002001F41EF521460C3956F825000C
:106CE000743001F431F50020A08001266FB115A2A7
:106CF000402101F40FF5284601F428F505E00127AD
:106D0000D7E7521E52B2002AC9DA3046BDE8F081F8
:106D10007C058000C40E8000523A333A6578656382
:106D20007574653D307825780A000000523A333A90
:106D3000636F6E6E656374206E6F742063666D0A98
:106D400000000000523A333A73746172742065781F
:106D500065637574650A00000348024901600D21EE
:106D600041607047B09400307C0580002DE9FF5FE2
:106D700081460F460024A246CDF808A0CDF80CA00D
:106D8000584850F82900603001F4E2F480463D1F75
:106D900079882888544BCDE9001054A24021002066
:106DA00001F4B8F42888E8BB484601F4D3F4401E47
:106DB0002880002611E007EB460002AB8288002104
:106DC000484601F4C9F4C4B2CDF808A0CDF80CA02F
:106DD0000CB1B0463BE0761CB6B27888B042EAD837
:106DE00035E007EB48006B46818801AA484601F46C
:106DF000B5F4C4B23CBBBDF804002988884200D376
:106E0000084686B2022106F1080029F45DD08346C7
:106E1000ABF8046032460BF106000099FBF770F9FD
:106E2000304800E013E050F829005946603001F482
:106E30008BF4484601F494F42888801B288008F1DC
:106E400001081FFA88F8CDF808A0CDF80CA07888C2
:106E5000404503D9288808B1002CC2D044BB48461D
:106E600001F478F42988401A401E86B200250620D5
:106E700000EB09230F220421484600962BF4D4D3BB
:106E80008246AAF80260174850F82900066E0AE008
:106E90000AEB0500B288001DB11DFBF731F9B0887F
:106EA000284485B23668002EF2D1504601F45AF4D7
:106EB0004CB1062C07D007EB48003978828823466E
:106EC000484601F451F4084B14A2402100200094DC
:106ED00001F420F4062C03D0002004B0BDE8F09F9C
:106EE0000120FAE7C40E800064230201523A333ACB
:106EF0005B25735D20656E7465722C206E625F6821
:106F0000616E646C653D307825782C2072655F6C0D
:106F1000656E3D307825780A00000000523A333A19
:106F20005B25735D20657869742C207374617475BA
:106F3000733D307825780A0010B500210A4C0023F3
:106F4000002001EB410202EBC10204EB420222F8F5
:106F50001030401CC0B20A28F9D31375491CC9B2BD
:106F60000A29EDD310BD00009C5C01300078002898
:106F700002D1024901204880704700000091003092
:106F8000DFED180AB7EE001A10EE100A70EE601A64
:106F90001349884241EE210A02DCB0EE600A7047D4
:106FA00010EE100A1049884202DCB0EE600A704709
:106FB00010EE100A0D49884208DCDFED0D0A70EE74
:106FC000601AB0EE600A01EE210A7047DFED090A8F
:106FD00070EE601AB0EE600A01EE210A7047000000
:106FE0000080BB450080BB450000E14500400346F2
:106FF0000000E1450040034610EE100A0D498842AA
:1070000001DC0020704710EE100A0B49884201DBBA
:1070100064207047DFED090A30EE600A80EE201A26
:107020009FED070A21EE000ABCEEC00A10EE100A1E
:10703000C0B27047666666406666E6406666664051
:107040000000C842F0B505462DED028BA1B0384CCA
:1070500020784042284204D1002021B0BDEC028BB0
:10706000F0BD00262E606E60AE60EE608022314979
:1070700001A8FBF745F8304901A8FDF717FE08B154
:107080000020EAE701A8FDF7EDFD18B1FDF7B2FD1C
:107090000020E2E74FF480712848FBF74AF8668049
:1070A00080212648FDF788FD60880028FCD08022DA
:1070B00023492248FDF736FE9FED220B0024204F86
:1070C00007EBC40090ED001B51EC100B53EC112B9F
:1070D000FBF71AFC41EC100B641CA4B2802CEFD31C
:1070E00051EC100B9FED191B53EC112BFBF7B3FC6C
:1070F000FBF74EFE08EE100A9FED160A28EE000A76
:10710000FFF73EFFF0EE408AB0EE680AFFF774FF2B
:10711000C5ED028A28732E8018EE100A68600120DF
:107120006873FDF789FDFDF765FD012095E7000017
:1071300000910030402102016D6F00015853013071
:107140005854013000000000000000000000000062
:107150000000803FCFF7534004480178002901D058
:10716000012070470121017001207047009100301B
:1071700070B588B00446002C21D0607B00281ED05A
:107180006068FBF7C1FD05460E46A068FBF7BCFD35
:10719000CDE9065602460B462088217BCDE9041036
:1071A0000DA040F21D11CDE90010CDE90223194BCD
:1071B00019A223A10220FEF7B5F908B070BD22A0E4
:1071C0004FF48C71CDE90010124B13A21CA10220C8
:1071D000FEF7A8F9F1E700005B42415454455259CB
:1071E0005D20566F6C746167653A20252E326656B5
:1071F0002C2050657263656E743A20257525252C08
:10720000204144433A2025752028252E33665629EF
:1072100000000000C02102012E2E5C5372635C75D9
:107220007365725C626174746572795F766F6C7499
:107230006167655F7265616465722E6300000000BE
:107240004E4F5F54414700005B42415454455259F0
:107250005D20496E76616C696420766F6C7461673D
:1072600065206461746100001FB50F4890F8020149
:10727000002818D068464DF45DD0DDE900010B4CC4
:10728000CDE90201E1680844094920F070404860F6
:1072900008464DF4E5D2607818B1BDE81F4015F0FE
:1072A00045BA15F05FFA1FBDC01A800090940030F7
:1072B000B41A80000EB509480021417081700CA1FC
:1072C00040F28752CDE9002105A00290114B12A295
:1072D00019A10220FEF726F90EBD0000F090003043
:1072E0005B34475F50524F544F434F4C5D0000009A
:1072F000257320436F6C6C656374656420646174EE
:10730000612062756666657220636C656172656492
:10731000000000007F1C02012E2E5C5372635C751E
:107320007365725C626C655F34675F70726F746FF7
:10733000636F6C2E630000004E4F5F5441470000A6
:107340002DE9F04194B0044606F0BAFF804606F0FD
:10735000B7FF054606F0B4FF0746B8F1000F57D057
:10736000002D55D0002F53D03AA19FED380B284661
:1073700006F036FF39A23BA1284606F049FF2A460F
:107380003BA1404606F022FF6068FBF7BDFC0546C6
:107390000E462068FBF7B8FC8DE8630036A220217A
:1073A0000CA8FCF723FA0CAA36A1384606F030FFE9
:1073B000B4F90800FBF730FC41EC100B35A138465E
:1073C00006F00EFFE068FBF79FFC227C8DE80700CB
:1073D00033A2202104A8FCF709FA04AA32A13846F6
:1073E00006F016FF04F1110233A1384606F010FF33
:1073F0003A4635A1404606F0E9FE404607F054F80B
:107400000446404606F080FF204614B0BDE8F081F7
:1074100033A140F2B312CDE900212DA00290394BE7
:1074200039A241A10020FEF77DF8B8F1000F02D08B
:10743000404606F069FF15B1284606F065FF17B112
:10744000384606F061FF0020DFE700000000000082
:1074500000405A40636F646500000000247B494D82
:1074600045497D006465766963655F4944000000B5
:107470006865616465720000252E31662C252E3109
:107480006600000073656E736F725F6D657468618E
:107490006E65000073656E736F725F54454D5000EA
:1074A000252E33662C25640073656E736F725F62E0
:1074B0006174746572790000636F6C6C6563745FEE
:1074C00074696D6500000000626F6479000000005F
:1074D0005B34475F50524F544F434F4C5D000000A8
:1074E0002573204661696C656420746F2063726542
:1074F000617465204A534F4E206F626A65637473EE
:1075000000000000711802012E2E5C5372635C753E
:107510007365725C626C655F34675F70726F746F05
:10752000636F6C2E630000004E4F5F5441470000B4
:1075300070B58CB006F0C4FE064606F0C1FE0546E6
:1075400006F0BEFE0446002E2ED0002D2CD05CB3DB
:10755000202104A8FAF7EDFD202104A800F02CFC5E
:107560009FED1F0B20A1284606F03AFE04AA20A199
:10757000284606F04DFE2A4620A1304606F026FE9B
:10758000204A21A1204606F043FE224621A1304692
:1075900006F01CFE304606F087FF0446304606F033
:1075A000B3FE20460CB070BD20A140F2E312CDE93D
:1075B00000211AA00290264B26A22EA10020FDF742
:1075C000B1FF16B1304606F09FFE15B1284606F011
:1075D0009BFE14B1204606F097FE0020E2E7000073
:1075E0000000000000805940636F646500000000E7
:1075F0006465766963655F4944000000686561649D
:10760000657200002C5001306465766963655F76B1
:1076100065720000626F6479000000005B34475FB0
:1076200050524F544F434F4C5D000000257320468D
:1076300061696C656420746F206372656174652094
:107640004A534F4E206F626A6563747300000000F6
:10765000991802012E2E5C5372635C757365725C1F
:10766000626C655F34675F70726F746F636F6C2EEE
:10767000630000004E4F5F544147000070B58CB06E
:1076800006F01EFE064606F01BFE044606F018FE37
:107690000546002E63D0002C61D0002D5FD0202144
:1076A00004A8FAF746FD202104A800F085FB9FED11
:1076B000390B3AA1204606F093FD04AA39A12046D1
:1076C00006F0A6FD22463AA1304606F07FFD3A4C70
:1076D0002088FBF7B2FA41EC100B38A1284606F0DF
:1076E0007FFD6088FBF7A9FA41EC100B38A1284612
:1076F00006F076FD6068FBF707FB41EC100B39A143
:10770000284606F06DFDB4F90800FBF785FA41EC58
:10771000100B39A1284606F063FDB4F90A00FBF707
:107720007BFA41EC100B38A1284606F059FDA089E0
:10773000FBF783FA41EC100B37A1284606F050FD09
:107740002A4639A1304606F041FD304606F0ACFE2F
:107750000446304606F0D8FD20460CB070BD38A176
:1077600040F24522CDE9002131A002903D4B3EA2DE
:1077700045A10020FDF7D6FE16B1304606F0C4FD47
:1077800014B1204606F0C0FD15B1284606F0BCFD38
:107790000020E2E70000000000005A40636F6465CB
:1077A000000000006465766963655F49440000007D
:1077B00068656164657200004052013064657669F5
:1077C00063655F636F6C6C6563745F74696D65009E
:1077D0006465766963655F7570646174615F74691F
:1077E0006D6500006D657468616E655F74687265D3
:1077F00073686F6C6400000054454D50485F7468B6
:10780000726573686F6C640054454D504C5F7468CA
:10781000726573686F6C640077617465725F746819
:10782000726573686F6C6400626F647900000000B9
:107830005B34475F50524F544F434F4C5D00000044
:107840002573204661696C656420746F20637265DE
:10785000617465204A534F4E206F626A656374738A
:1078600000000000E91802012E2E5C5372635C7563
:107870007365725C626C655F34675F70726F746FA2
:10788000636F6C2E630000004E4F5F544147000051
:1078900030B58BB006F014FD054606F011FD044628
:1078A00015B30CB3202103A8FAF743FC202103A849
:1078B00000F082FA9FED180B19A1204606F090FC0B
:1078C00003AA19A1204606F0A3FC224619A12846C6
:1078D00006F07CFC284606F0E7FD0446284606F044
:1078E00013FD20460BB030BD18A140F27122CDE946
:1078F000002112A002901E4B1EA226A10020FDF71F
:1079000011FE15B1284606F0FFFC14B1204606F022
:10791000FBFC0020E6E700000000000000005E40E5
:10792000636F6465000000006465766963655F49A4
:107930004400000068656164657200005B34475F65
:1079400050524F544F434F4C5D000000257320466A
:1079500061696C656420746F206372656174652071
:107960004A534F4E206F626A6563747300000000D3
:10797000101902012E2E5C5372635C757365725C84
:10798000626C655F34675F70726F746F636F6C2ECB
:10799000630000004E4F5F544147000070B58CB04B
:1079A00006F08EFC054606F08BFC064606F088FCC9
:1079B0000446002D4BD0002E49D0002C47D020216A
:1079C00004A8FAF7B6FB202104A800F0F5F99FED12
:1079D000410B42A1304606F003FC04AA41A1304607
:1079E00006F016FC324642A1284606F0EFFB424E56
:1079F00096F80401FBF721F941EC100B3FA120465A
:107A000006F0EEFB96F80301FBF717F941EC100BBB
:107A10003EA1204606F0E4FB96F80501FBF70DF9C0
:107A200041EC100B3DA1204606F0DAFB3E48C3783E
:107A3000002B28D0632B26D03CA2042103A8FBF7FF
:107A4000D5FE03AA3AA1204606F0E2FB20E041A1C0
:107A500040F20B22CDE900213AA00290464B47A20A
:107A60004EA10020FDF75EFD15B1284606F04CFC46
:107A700016B1304606F048FC14B1204606F044FC2E
:107A800000200CB070BD47A229A1204606F0C0FB23
:107A900096F80601FBF7D1F841EC100B43A1204604
:107AA00006F09EFB46A24AA1204606F0B1FB44A286
:107AB0004BA1204606F0ACFB224651A1284606F019
:107AC00085FB284606F0F0FC0446284606F01CFC20
:107AD0002046D6E70000000000C05940636F64658F
