:020000040100F9
:10200000000004305D2000016F34000101418000B8
:102010006D340001693400017135000100000000D9
:1020200000000000000000000000000015418000DA
:102030006B34000100000000A5340001AB34000146
:10204000DFF814D000F0A0FF00F016FB00480047B6
:10205000691E0101AFF30080000004300148804791
:102060000148004741350001F91E01012DE9F05FEB
:102070000546002092469B468846064681464024F7
:102080001BE0284641464746224600F08AFD53465B
:102090005A46C01A914110D311461846224600F004
:1020A00071FD2D1A67EB01084F46224601200021E1
:1020B00000F068FD17EB00094E41201EA4F1010459
:1020C000DFDC484631462A464346BDE8F09FA0F192
:1020D0004101192900D82030704700000649074AFD
:1020E0000868504343F239021044086040087047C2
:1020F00001490860704700006C9300306D4EC64186
:1021000040EA01039B0703D009E008C9121F08C079
:10211000042AFAD203E011F8013B00F8013B521EF9
:10212000F9D27047D2B201E000F8012B491EFBD270
:1021300070470022F6E710B513460A4604461946D2
:10214000FFF7F0FF204610BD421C10F8011B0029CC
:10215000FBD1801A704710B5002200E0521C835C4E
:102160008C5CA34201D1002BF8D1D8B2E1B2401A65
:1021700010BD30B504460020034600E05B1C9342CE
:1021800003D2E05CCD5C401BF8D030BD034611F8B3
:10219000012B00F8012B002AF9D11846704730B501
:1021A00005460020034600E05B1C934205D2EC5C30
:1021B000C85C201A01D1002CF6D130BD70B500B931
:1021C0001068002512E00B4602E0A64203D05B1C1B
:1021D0001C78002CF9D1E3B22B4305D02CB125B1EA
:1021E000002100F8011B04E00546401C0678002E83
:1021F000E9D11060284670BD004ADFE770930030D7
:1022000058585247010000001555000000200001F9
:10221000002000016EED52490101000000000000A5
:1022200000000000000000000000000000000000AE
:10223000000000000000000000000000000000009E
:1022400043F6512CC3F2000C604743F2196CC3F201
:10225000000C60470FB400B58DB010A909900B9029
:1022600000914FF0FF300A9000200C900548069036
:10227000054807906A4609A80F9900F0C9FC0DB0FF
:102280005DF814FB2D2C00014B2C00012DE9FF4FB4
:10229000087883B09946FF2805D0491C2D2804D022
:1022A0000024002008E000200BE00124F9E700EB07
:1022B000800003EB4000491C0B78FF2BF7D104B1E1
:1022C000404200230293147819461D462D2C01D05C
:1022D0002B2C04D1521C2D2C13D000240294AA467E
:1022E0001478FF2C0FD00A25A3FB057801FB05818C
:1022F0004FF0000C03FB0C11521CE3194AEB0101D7
:10230000EEE70124EAE7814453EA010002D019F51F
:10231000C87F06DA03980021C0E9001107B0BDE8C4
:10232000F08F0025AE4E2F46DFF8B882184600F039
:1023300059FBCDE90001B9F1000002DAC9F100044E
:1023400000E004460023A74A1AEB030B42EB045AB1
:1023500012E0E00707D02A4633463846414600F0EF
:1023600042FA074688462A4633461046194600F088
:102370003AFA05460E466410002CEAD1DDE9000168
:10238000B9F1000F5A46534606DA00F09EFA3A4673
:10239000434600F09AFA05E000F025FA3A46434633
:1023A00000F021FA029A0AB181F00041039AC2E9D1
:1023B0000001B3E72DE9FF4F1F468DB0D7E9014675
:1023C0004FF0FF382E2045464FF000090B90B969B9
:1023D0006D1C0E988847396A824688470028F6D1D6
:1023E000BAF1FF3F0AD024F4D064002E11DDBAF117
:1023F0002B0F08D0BAF12D0F0BD102E0404611B0DF
:102400008DE744F48064B9696D1C0E988847824654
:10241000761E6946600501D52D2000E02B208DF841
:10242000000001F1010B0DF1200809E0B9696D1CF4
:102430000E98884782460F9844F40074761E056013
:10244000002E02DDBAF1300FF0D00B998A453ED153
:1024500044F0800406E00F99681CA9F1010944F4D6
:1024600000740860B9696D1C761E0E988847824614
:102470003028F0D02BE00B998A4505D1200603D4F3
:1024800044F08004761E18E0504601F023FC08B3A7
:102490000DF11301761E44F400748B4508D2AAF1A5
:1024A00030000BF8010B200607D5A9F1010003E06D
:1024B000200602D409F101008146A00502D50F993A
:1024C000681C0860B9696D1C0E9888478246002E0A
:1024D000D1DC53E0002E51DDBAF1650F02D0BAF124
:1024E000450F4BD1A00549D5B9696D1C24F4407442
:1024F000761E0E9888478246002E0CDD2B2804D0CD
:10250000BAF12D0F07D144F48074B9696D1C0E988F
:1025100088478246761EE00501D52D2100E02B215B
:1025200008F8011BCDF82C8021E00DF12901761E61
:1025300044F4007488450CD2AAF1300010F0FF007A
:1025400088F8000002D10B99884509D908F10108E3
:1025500006E0E00501D5244801E042F20F70814613
:10256000B9696D1C0E98884782460F980560002E49
:1025700004DD504601F0AEFB0028D6D1F9690E9873
:102580008847FF208BF8000088F8000000200690A4
:1025900007904B466A4608A906A8FFF777FEA005F4
:1025A00002D46FF001002AE714F0240F0AD0E007EC
:1025B00014D1DDE906123868031D3B600068C0E9EC
:1025C00000120BE0DDE9060100F0AAFA0146E0077F
:1025D00004D13868021D3A600068016028460EE7A1
:1025E000000014400000F03FF1D8FFFF2DE9F04754
:1025F00091460F4680460446002614F8015B2DB133
:1026000000F0F2FA0068405DC007F6D12B2D02D031
:102610002D2D18D0641E4A463946204600F026FB70
:1026200027B13968A14201D1C7F8008071054FF088
:1026300002040BD54042002803DD01F02BF90460B1
:10264000A007BDE8F08746F48066E4E70028F8DAE2
:1026500001F020F904606FF00040F2E770B5064623
:1026600001F018F9046805460A2200213046FFF7F8
:10267000BDFF2C6070BD000070B5054C054D03E03A
:10268000206820448047241DAC42F9D170BD000071
:1026900060860101648601012DE9FE4F804681EAD2
:1026A0000300C00F0C46009021F0004123F00045CC
:1026B000B8EB0200A94105D24046214690461C468F
:1026C0000B46024623F00040104347D0270DC7F3C6
:1026D0000A00C3F30A510290401A019040286BDAB5
:1026E000C3F3130040F4801B0098924620B10023EE
:1026F000D2EB030A63EB0B0B01985946C0F1400281
:10270000504600F03FFA06460D4650465946019A9B
:1027100000F057FA10EB08006141002487EA1152DB
:1027200084EAE7731A4340D0009A62B3019A012AFF
:102730004FEA075215DC001B61EB02014FF000422B
:1027400002EA0752CDE90042001C41F580113246F1
:102750002B4600F06FFB03B0BDE8F08F40462146EA
:10276000F9E7001B61EB0201001C41F58013001822
:102770005B412018A2F5001747EB030140EAD57032
:10278000B6196D4111E06D084FEA360645EAC0758D
:102790004FEA0752001B61EB0201001C41F580115A
:1027A00049084FEA30000019514132462B4603B028
:1027B000BDE8F04F00F02FBB00980122400000233D
:1027C000D0EB020263EBE073009821464FEAE0741D
:1027D000B8EB000061EB0401E9E783F000435BE73D
:1027E00081F0004158E72DE9FE4F81EA030404F02F
:1027F000004421F0004100944FF0000B23F000430F
:1028000050EA01045ED052EA03045BD0C3F30A54D9
:10281000C1F30A552C44A4F2F3340194A0FB0254F2
:10282000C1F3130141F48011C3F3130343F4801384
:1028300001FB024400FB034E840A970A44EA8154D8
:1028400047EA8357A4FB076802958D0A05FB0785B5
:102850004FEA932C04FB0C542705029D4FEA0658BF
:1028600047EA1637B5EB08056EEB070C870E920E9C
:1028700047EA811742EA8312A7FB0201B6EB0B017C
:1028800064EB00042B0D43EA0C335E1844EB1C5040
:10289000DA465146E7FB0201C5F313044FEA0B3356
:1028A00043EA14534FEA0432019C43EA0603A4F1BD
:1028B0000C040294009CCDE900B400F0BBFA03B014
:1028C000BDE8F08F00200146F9E72DE9F04D81EADF
:1028D000030404F0004B21F0004514464FF0000AB9
:1028E00023F0004150EA050220D054EA01021DD035
:1028F000C5F30A570246C5F31303C1F31300C1F32E
:102900000A5640F4801543F48013A7EB0608101B09
:10291000D64608F2FD3873EB050002D308F1010832
:1029200001E092185B41B8F1000F03DA0020014684
:10293000BDE8F08D00204FF48011064684460EE07D
:10294000171B73EB050705D3121B63EB0503064347
:102950004CEA010C49084FEA300092185B4150EAFA
:102960000107EDD152EA030012D082EA040083EAA3
:102970000501084305D0101BAB4106D201220023FC
:1029800006E000224FF0004302E06FF00102531016
:102990001AEB06004CEB085110EB0A0041EB0B015F
:1029A000BDE8F04D00F037BA0EB5C10F80EAE07017
:1029B0000844CA07002140F233438DE80E000A465E
:1029C0000B4600F037FA03B000BD0EB540F23341BC
:1029D00002910021CDE900110A460B4600F02AFAC7
:1029E00003B000BD0EB540F2334202920022CDE9A1
:1029F0000022134600F01EFA03B000BD20F0004094
:102A0000C20DC0F3160040F400007F2A02DA002055
:102A1000014670470021962A03DCC2F19602D0409D
:102A20007047963A00F0AEB870B5C1F30A5201F0A3
:102A300000450024C1F3130140F2FF3341F480113B
:102A40009A4201DA002070BD40F233439A42A2F26A
:102A5000334203DC524200F0A4F800E090402C43E3
:102A6000F1D0404270BDC1F30A5210B5C1F3130159
:102A700040F2FF3341F480119A4201DA002010BD88
:102A800040F233439A42A2F2334203DC524200F056
:102A900088F810BD904010BD00F0004230F00040BA
:102AA0000AD0C10D01F56071C0F3160042EA015170
:102AB000C2084007114370470020014670470000DC
:102AC00030B5041E71F1000404DB4FF000444042B5
:102AD00064EB0101141E73F1000405DB1C464FF08A
:102AE0000043524263EB04038B4208BF824230BD75
:102AF00030B5041E71F1000404DB4FF00044404285
:102B000064EB0101141E73F1000405DB1C464FF059
:102B10000043524263EB0403994208BF904230BD28
:102B200001F0004330B421F0004150EA010206D028
:102B30000A0DA2F56072C1F31301002A02DC30BC59
:102B400000207047440F44EAC104C100E01830BCC3
:102B500000EBC25000F028B930B50B46014600200A
:102B60002022012409E021FA02F59D4205D303FA4F
:102B700002F5491B04FA02F52844151EA2F10102D0
:102B8000F1DC30BD202A04DB203A00FA02F10020FB
:102B900070479140C2F1200320FA03F3194390409B
:102BA0007047202A04DB203A21FA02F00021704706
:102BB00021FA02F3D040C2F12002914008431946A5
:102BC0007047202A06DBCB17203A41FA02F043EA8D
:102BD000E07306E041FA02F3D040C2F120029140D6
:102BE000084319467047000000487047B07B010158
:102BF00010B50446FFF7F8FF0068005D00F0010023
:102C000010BD000002681144137801601846704737
:102C1000D1600449516104491162002111611146DA
:102C200000F0D2B9052C0001F12B0001426842B13D
:102C3000016811F8013B23B1521EC0E90012184689
:102C400070470121C160881E704742685AB1C3684D
:102C5000016843B983688B4205D0491E521CC0E904
:102C60000012002070474FF0FF3070472DE9F05FF1
:102C700082460078002715468B460AF10104B946C2
:102C8000302801D09DB113E014F8010B01277828FA
:102C900003D0582801D045B10AE00DB1102D07D15D
:102CA0000027102514F8010B02E0082500E00A2592
:102CB0000026B0460EE005FB080005FB06F10127E3
:102CC00001EB10461FFA80F8B6F5803F00D3B946F5
:102CD00014F8010B294600F069F90028EBDABBF182
:102CE000000F05D00FB1641E00E05446CBF8004041
:102CF000B9F1000F06D000F0CDFD02210160C81E21
:102D0000BDE8F09F48EA0640FAE700000FB4002350
:102D100000B589B00CA900910B996FF00042CB600F
:102D20001E4B06931E4B07930423CDE901321D4A27
:102D3000089202466B460020FFF73CFB09B05DF8A5
:102D400014FB70B586B006464FF0FF300091CDE918
:102D50000101002015460C4604903246694604A83D
:102D6000FFF7D4FF02460498211825B108B10846A0
:102D700000E020462860049800280DD0002A02DDDB
:102D80000098884208D0081B0094CDE9010432461F
:102D9000694604A8FFF7BAFF06B070BD2D2C0001EC
:102DA0004B2C0001F12B00010029A8BF7047401CEB
:102DB000490008BF20F00100704710B4B0FA80FC51
:102DC00000FA0CF050EA010404BF10BC704749B18E
:102DD000CCF1200421FA04F411FA0CF118BF0121FE
:102DE00021430843A3EB0C01CB1D4FEA00614FEADE
:102DF000102042BF002010BC704700EBC3501044AD
:102E00000029A4BF10BC7047401C490008BF20F037
:102E1000010010BC704710B5141E73F1000408DAED
:102E2000401C41F1000192185B411A4301D120F08E
:102E3000010010BD2DE9F04D92469B4611B1B1FA4B
:102E400081F202E0B0FA80F220329046FFF79AFE5B
:102E500004460F4640EA0A0041EA0B0153465A462F
:102E6000084313D0114653EA010019D0C8F14002BB
:102E70005046FFF796FE05460E46504659464246D6
:102E8000FFF780FE084305D0012004E020463946C4
:102E9000BDE8F08D0020054346EAE0762C43374339
:102EA0000A986305E40AA0EB08000022FD0A44EA40
:102EB00047540A3002D500200146E9E70105101900
:102EC0006941DDE9084500196941BDE8F04DA2E717
:102ED0002DE9F041054621F000400C46284309D079
:102EE000C4F30A5040F23341884205DD28462146AA
:102EF000BDE8F0812846FBE740F2FE31884210DC55
:102F00000CDB4FEA043040EA155050EA053105D099
:102F1000104804F0004101430020E9E70020014689
:102F2000E6E7A0F233404642C6F140022846214679
:102F3000FFF728FE07468846284621463246FFF717
:102F400030FE43463A46FFF766FF3246BDE8F041A1
:102F5000FFF718BE0000F03FC1F30A52C1F313019E
:102F600040F2FF3341F480119A4202DA0020014618
:102F7000704740F233439A42A2F2334202DC52429B
:102F8000FFF70FBEFFF7FEBD064C074D06E0E068F9
:102F900040F0010394E8070098471034AC42F6D3A0
:102FA000FFF752F810860101608601013A2800D22D
:102FB000303820F02002412A01D3A2F137008842A4
:102FC00001D34FF0FF3070472DE9F34F8BB04FF036
:102FD000000801F10C000C464FF0010B46460DF1C4
:102FE000080A01906269012101989047051E2DD0C1
:102FF000252D2CD0216A8847C0B162690121019832
:103000009047216A88470028F7D1411E62690198DC
:10301000904700E0761CA1690B988847216A884791
:103020000028F7D1E1690B988847DBE7A1690B9885
:1030300088470746A84201D1761CD3E7E1690B987F
:1030400088477F1C02D1B8F1000F6FD047E10027FD
:1030500062693D463946019890472A2804D1626941
:103060000121019890470125DFF8889262690121CA
:1030700001989047A0F130010A290AD24F45E5DCBA
:1030800007EB870100EB4107303FDFD445F0100527
:10309000ECE7E90601D46FF000476C280AD04C2811
:1030A00014D0682815D06A280DD074281CD07A282E
:1030B0001AD01DE062690121019890476C2802D066
:1030C00045F0040514E045F002050DE045F020054B
:1030D0000AE06269012101989047682802D045F012
:1030E000080505E045F400656269012101989047F3
:1030F000C4E9015765283DD019DC58287AD00CDC8A
:10310000452837D004DC252826D0412831D131E0AC
:1031100046282FD047282CD12CE05B2877D0612877
:1031200028D063287CD0642823D15AE0D1E06F28CE
:1031300048D008DC66281DD067281BD0692821D01C
:103140006E2816D127E0702845D0732868D07528DE
:1031500047D078280DD14DE0A1690B9888470546E6
:1031600025283FF469AFE1690B9888476D1C3FF44F
:103170006AAFB4E023466A466FF001000B99FFF78F
:1031800019F99FE045F040006060A80723464FF022
:10319000000236D43EE0E8077FF447AF2068011D07
:1031A00021600068290501D506701BE7290701D5B4
:1031B000068017E7A90703D5F117C0E9006111E7F9
:1031C00006600FE745F040006060A80723464FF017
:1031D000080216D41EE040F60E0125EA01006060E8
:1031E00016E045F040006060A80723464FF00A0251
:1031F00007D40FE045F040006060A80708D52346DB
:1032000010226FF001000B99AFF300805AE007E045
:10321000234610226FF001000B99AFF3008051E0BC
:103220004FF000094F464B46632802D05B2807D079
:1032300041E02079C00601D40120A06001273AE0D6
:1032400062690121019890475E2805D14FF001097C
:103250006269494601989047216939B900210A46B7
:10326000534643F82120491C0829FADBB0B32169F1
:1032700069B9C11700EBD16253110AEB830122F047
:103280001F02821A01200B68904003430B606269A1
:103290000121019890475D28E8D1B9F1000F09D0CC
:1032A0000020514651F82020D24341F82020401CF4
:1032B0000828F7DB02AB224600976FF001000B995C
:1032C000AFF3008000280CDA401C08D1BBF1000FDE
:1032D00005D04FF0FF300DB0BDE8F08FFFE740465E
:1032E000F9E7E90701D108F1010806444FF0000BA6
:1032F00078E60000CCCCCC0C70B58C1810F8015BD3
:1033000015F0070301D110F8013B2A1106D110F87E
:10331000012B03E010F8016B01F8016B5B1EF9D182
:103320002B0705D40023521E0DD401F8013BFAE708
:1033300010F8013BCB1A921C03E013F8015B01F873
:10334000015B521EF9D5A142D8D3002070BD000008
:1033500010B51E480068002800D080471C48002196
:103360000170881E1B490860192000F094F91A4C5E
:10337000D4F8C002800704D4F42218A11CA005F4DC
:10338000ABF12A480168D4F8C40261F31D3040F063
:103390000100C4F8C40204F4BBF200214FF0304035
:1033A000C1608161C1174161016204F46DF2094895
:1033B0004038016821F4800101601D480068002840
:1033C00002D0BDE81040004710BD0000602480001E
:1033D0007892003044C500A000E000A072776970C8
:1033E0005F736C6565705F636F6D6D6F6E2E6300EC
:1033F0004D43555F5355422D3E424C455F44534C1F
:103400004545505F434F52525F454E2026204D4365
:10341000555F5355425F424C455F44534C454550C0
:103420005F434F52525F48575F454E00542480001F
:103430006424800010B500214FF03040C1608161EC
:10344000C11741610162022000F050F9BDE810404F
:10345000012000F04BB910B5012000F01CF9BDE8C7
:103460001040012000F042B9FEE7FEE7FEE7FEE76C
:1034700030B500F00703C3F10704082C00D9082475
:1034800003F10800072801D2002300E05B1C01259E
:1034900005FA04F0401E084098409D406D1E1540FE
:1034A000284330BDFEE71AF41796FEE70249096883
:1034B00001F007010170704704C500A030B4062870
:1034C00021D212490A6802F00702824212D00A6829
:1034D0000F4B1A400F4C22430A6000BF00BF00BFD1
:1034E00000BF0A681A400C4B024333F8203042EA0E
:1034F00083420A600849183951F82000074988605A
:1035000030BC75F4779530BC7047000004C500A04E
:10351000F8FFE3FF05000800A071010100880030FA
:1035200004480068044900F0070051F820000349EE
:103530008860704704C500A08871010100880030D0
:103540000248016841F470010160704788ED00E0B5
:1035500002480068001D1EF47F900000CC890030F6
:1035600002484068001D1EF477900000CC890030AE
:10357000FEE700000FB4054B10B503A9044A0298FA
:1035800000F0B0FB10BC5DF814FB00006593000177
:10359000F88900300FB47CB50C0009AD01D0611E74
:1035A00000E00021CDE90001064B6A462946089853
:1035B00000F098FB002C02D0009A002111707CBC16
:1035C0005DF814FBEB4300010FB4084B10B504A9E0
:1035D00002AA039800F086FB044602A9002000F02E
:1035E0000FFF204610BC5DF814FB000001440001F1
:1035F0007CB50C001D461646014601D0601E00E059
:103600000020CDE90010064B6A462946304600F0FE
:1036100069FB002C02D0009A002111707CBD0000D3
:10362000EB43000137B514460846064B6A4621466F
:1036300000F058FB04466946002000F0E1FE2046F9
:103640003EBD000001440001002809DB00F01F021C
:10365000012191404009800000F1E020C0F8801273
:103660007047002809DB00F01F020121914040094A
:10367000800000F1E020C0F880127047002809DBCC
:1036800000F01F02012191404009800000F1E0207C
:10369000C0F880127047002809DB00F01F020121EA
:1036A00091404009800000F1E020C0F8801270478E
:1036B000002809DB00F01F02012191404009800031
:1036C00000F1E020C0F88012704700280DDB00F008
:1036D0001F02012191404009800000F1E020C0F864
:1036E0008011BFF34F8FBFF36F8F704700280DDB42
:1036F00000F01F02012191404009800000F1E0200C
:10370000C0F88011BFF34F8FBFF36F8F7047002851
:1037100009DB00F01F02012191404009800000F107
:10372000E020C0F800117047002809DB00F01F02FC
:10373000012191404009800000F1E020C0F8001113
:10374000704700280FDB4109890001F1E021D1F821
:10375000001200F01F0201209040014201D0012020
:103760007047002070470020704700280FDB410998
:10377000890001F1E021D1F8001200F01F020120C0
:103780009040014201D00120704700207047002086
:10379000704700280FDB4109890001F1E021D1F8D1
:1037A000001200F01F0201209040014201D00120D0
:1037B00070470020704700207047002804DB00F1AC
:1037C000E02090F80004704700F00F0000F1E020C6
:1037D00090F8140D7047002804DB00F1E02090F809
:1037E0000004704700F00F0000F1E02090F8140D85
:1037F0007047002804DB00F1E02090F800047047D7
:1038000000F00F0000F1E02090F8140D7047000068
:1038100002480068C0F30220704700000CED00E091
:1038200002480068C0F30220704700000CED00E081
:1038300002480068C0F30220704700000CED00E071
:10384000002809DB00F01F0201219140400980009F
:1038500000F1E020C0F800127047002809DB00F0FA
:103860001F02012191404009800000F1E020C0F8D2
:1038700000127047C9B2002804DB00F1E02080F894
:103880000014704700F00F0000F1E02080F8141DD4
:1038900070470000004870477C93003030B528B175
:1038A000144C031F002021680A4605E0084630BD7D
:1038B0009A4203D810465268002AF9D1002800D055
:1038C00041680BD00468A3EB0005A54204D11B6836
:1038D0001C440346046002E0436000E023603AB108
:1038E0001C68D51AA54203D115682C441C60526887
:1038F0005A6030BD74930030EFF3108070470000C1
:1039000030B583B0044600F0CFF89FED090B0546B3
:103910008DED000B002221466846FFF712FA28467B
:1039200000F010F99DED000B03B030BD0000000069
:1039300000000000000000002DED020B019820F0B7
:10394000004001909DED000B02B0704700000000A8
:1039500010B52DED020B2DED088B84B09DED0C0BF9
:1039600051EC100BFFF7B4FA41EC180B9DED0C0B6A
:1039700053EC182B51EC100BFEF72FFF41EC190BF9
:103980000D989FED290B10F0004F53EC102B51ECCC
:10399000190B9FED21AB9FED22BB0ED0FFF790F8E6
:1039A0000ED953EC1B2B51EC190BFFF7A1F81CD2CD
:1039B00014E000BF41EC180B17E0FFF781F806D2C6
:1039C00053EC1A2B51EC180BFEF707FFF2E753EC00
:1039D0001B2B51EC190BFFF78BF806D853EC1A2B65
:1039E00051EC180BFEF758FEE4E78DED028B9DEDD0
:1039F0000C0B18EE901A10EE900A8DED000B61F38F
:103A00001E0003909DED020B04B0BDEC088B02B0CC
:103A100010BD000000000000000000000000F03FAA
:103A2000000000000000E03F000000000000E0BFD8
:103A300000B583B09FED060B0A4601468DED000BE5
:103A40006846FFF77EF99DED000B03B000BD000056
:103A500000000000000000002DE9F04782460F4CF6
:103A600010480D4E0E4F001B4FF0000820F00705C8
:103A70004FF001090022114650460AF059FF002874
:103A800002D1306810B10020BDE8F0873C60C4E985
:103A90000058C6F80090EDE77893003004B003308A
:103AA0007493003000C00330014800687047000084
:103AB0007C9300302DE9F04704008A4616D054F874
:103AC000047CD4F800903E1F564500D95646204647
:103AD000FFF7E4FE054688463246214650460AF086
:103AE00027FF40B1C0F80090BDE8F087BDE8F0477F
:103AF0000846FFF7B1BF44E9017955B129686A1852
:103B0000211F8A4202D9611B091F2960C5F8048060
:103B1000EAE7024AC2F80080E6E70000749300304A
:103B200002E008C8121F08C1002AFAD17047704786
:103B3000002001E001C1121F002AFBD1704780F371
:103B40001088704701490860704700007C9300307E
:103B50002DE9FF5F82B00021DDE90430020DDDF8C0
:103B600040B0034318D044F61050A2F2FF32424353
:103B70001514119801281FD0A5EB0B00401C5FEA1B
:103B8000000A4FF000064E4FDFF83891B04650461D
:103B900015D5CAF1000413E0119801244AA30128A5
:103BA00001D16FEA0B010298119AC0E90031C0E916
:103BB000024206B0BDE8F09FCBF10000DFE704460B
:103BC0000021404A491842EB0450CDE9001012E0B0
:103BD000E00707D032463B4640464946FEF703FE23
:103BE0008046894632463B4610461946FEF7FBFDA5
:103BF00006460F466410002CEAD1DDE90401DDE938
:103C00000023BAF1000F06DAFEF7EDFD42464B46FF
:103C1000FEF7E9FD05E0FEF758FE42464B46FEF78B
:103C200054FE04460E460022284BFEF761FF03D8DF
:103C30004FF0FF30014607E00022254B2046314679
:103C4000FEF72AFDFFF788F9102409E0002C0ADBB3
:103C50000A220023FEF70AFA039B30321A55641E2B
:103C600050EA0102F2D1641C039AC4F11103144416
:103C7000119A012A03D0012208430DD10AE008431A
:103C800004D000204FF0110B119072E7A3EB0B054D
:103C90006D1E0DE05B4504DD4FF0000205F10105EE
:103CA00004E003DA4FF00002A5F10105002AECD090
:103CB00002981199C0E90231C0E9004579E7000096
:103CC000000014400000F03F300000000000F0430E
:103CD0000000E03F30380A2801D201207047002060
:103CE000704700002DE9FF4F95B09A46884606467A
:103CF0000025EEE1252877D100242746F94A012145
:103D0000039400E0044316F8013F203B01FA03F05E
:103D10001042F7D130782A2811D06FF02F03307875
:103D2000A0F13002092A16D8039A44F0020402EBEB
:103D3000820203EB42021044761C0390EFE758F82E
:103D4000042B0392002A03DA504244F400540390F7
:103D500044F00204761C30782E2816D116F8010F94
:103D600044F004042A280DD06FF02F023078A0F11F
:103D70003003092B09D807EB870302EB4303C7186D
:103D8000761CF3E758F8047B761C30786C280FD04B
:103D900006DC4C2817D068280DD06A2814D104E01E
:103DA000742810D07A280FD10DE044F400140AE0F2
:103DB00044F4801401E044F440147278824202D149
:103DC00004F58014761C761C307866280BD013DC42
:103DD000582877D009DC002875D04528F6D0462829
:103DE000F4D047281AD193E118E0632835D064282D
:103DF00079D0652812D18BE1702873D008DC672850
:103E0000F1D069286FD06E280DD06F2806D1ACE0B4
:103E100073282CD0752874D0782853D0524617991F
:103E200090476D1C54E1C4F30250022809D00328C6
:103E30000DD0D8F8001004280DD00D6008F104084A
:103E400046E1D8F80010EA17C1E90052F6E7D8F8C1
:103E500000100D80F2E70D70F0E718F8041B8DF8E4
:103E6000001000208DF80100EB46012003E058F817
:103E700004BB4FF0FF3061074FF0000102D40DE0AA
:103E800009F101018946B9420FDA8145F8DB1BF8D7
:103E900009100029F4D108E009F1010189468142A5
:103EA000FADB1BF809100029F6D103985346A0EB62
:103EB000090721463846179A00F080FA284400EB9B
:103EC000090507E044E008E10DE01BF8010B52464C
:103ED00017999047B9F10109F7D253462146384660
:103EE000179AF2E039E00A21C4F302524FF0000BB6
:103EF0000091022A06D058F8040BC117032A09D0F2
:103F00000AE023E008F1070020F00702F2E80201CE
:103F1000904605E000B2C117042A01D140B2C11792
:103F2000002906DA0A460021404261EB02012D22F7
:103F300002E0220504D52B228DF80420012203E0A3
:103F4000E20701D02022F7E7914657E00A2100E07E
:103F500010214FF0000B00910BE010214FF0000BEF
:103F600044F004040827009103E008204FF0000B00
:103F70000090C4F30252022A05D058F8040B002125
:103F8000032A08D008E008F1070020F00702F2E851
:103F90000201904603E080B2042A00D1C0B24FF083
:103FA000000922072AD53278702A07D0DDF800C030
:103FB0008CF0100C5CEA0B0C05D00EE040228DF862
:103FC0000420012208E050EA010306D030238DF8D6
:103FD00004308DF8052002229146009B83F00803EF
:103FE00053EA0B030AD150EA010201D1620705D559
:103FF00030228DF804204FF001097F1E3278582AB4
:1040000004D039A20C920CAA02920BE03BA2F9E771
:104010005B46009AFEF72AF80C9B9B5C029A521EA4
:104020000292137050EA0102F2D1029804A9081A10
:1040300000F1200B600702D524F4803400E0012752
:104040005F4502DDA7EB0B0000E0002000EB0B0159
:10405000009003984944401A0390E00306D4534665
:104060002146179A039800F0A9F90544002706E0B5
:1040700001A85246C05D179990476D1C7F1C4F45A3
:10408000F6DBE0030CD553462146179A039800F05F
:1040900095F9054404E030205246179990476D1C6D
:1040A0000099481E00900029F5DC08E0029802996A
:1040B00052460078491C0291179990476D1CBBF13C
:1040C0000001ABF1010BF1DC5BE100F065F90544A7
:1040D000761C307800287FF40DAE19B02846BDE874
:1040E000F08F000009280100303132333435363783
:1040F0003839616263646566000000003031323334
:1041000034353637383941424344454600000000D3
:10411000600700D4062708F1070020F00700F0E848
:104120000223804603F0004C5FEA0C0001D097A008
:1041300009E0200501D596A005E0E00701D095A093
:1041400001E0AFF24C001390307823F00043652873
:104150000CD006DC452809D046281DD047287FD141
:104160003BE0662818D067287AD136E00021112F6D
:1041700001DB112000E0781CCDE9000104A90CA8A6
:10418000FFF7E6FCDDE90D010C9A4FF0000B07F19B
:104190000109109200914EE04FF000400097CDE9E8
:1041A000011004A90CA8FFF7D3FCDDE90D020C9B5C
:1041B0000F994FF0000B91461093009211B9791CA2
:1041C00000EB0109B7EB090003D4C0F1FF3B07F195
:1041D0000109A9EB0700019042E0012F00DA012755
:1041E0000021112F01DD112000E03846CDE900014A
:1041F00004A90CA8FFF7ACFCDDE90D010C9A0091B5
:104200004FF0000BB946109221070FD4009A4A458F
:1042100003DA914601E0A9F10109B9F1010F05DDC9
:10422000109AA9F10101515C3029F4D0B84202DAA8
:1042300010F1040F03DA0121CDE9011010E000288C
:1042400003DC8344A9EB000102E0411C494500DD89
:104250008946A0EB0B00401C01904FF000400290FB
:10426000200705D40198484502DB4FF0FF3001904C
:1042700000208DF84B0002980DF14B07B0F1004F74
:1042800025D002200C902B200D90029800280CDAEB
:10429000404202902D200D9007E00A210298FEF77F
:1042A0005BFC3031029007F8011D0C99481E0C9000
:1042B0000029F2DC02980028EFD1791E0D980870D1
:1042C000307800F0200040F0450007F8020D11A8FA
:1042D000C01BC01D02901398007800B1012000EBB4
:1042E0000901019801EBE071029801440398401A1A
:1042F000401E0390E00306D453462146179A0398C4
:1043000000F05CF805441398007818B152461799EC
:1043100090476D1CE00323D553462146179A039816
:1043200000F04CF805441BE0BBF1000F07DB0098E0
:10433000584504DD1098179910F80B0001E0179903
:1043400030205246904701980BF1010B401E05F1B9
:104350000105019004D12E205246179990476D1CFB
:10436000B9F10001A9F10109DEDC05E017F8010B44
:104370005246179990476D1C0299481E02900029D9
:10438000F4DC53462146179A03989EE62D00000060
:104390002B000000200000002DE9F041044600251C
:1043A0001E461746880404D405E039462020B0474D
:1043B0006D1C641EF9D52846BDE8F0812DE9F04159
:1043C000044600251E469046C80301D5302700E06C
:1043D0002027880404D505E041463846B0476D1CC7
:1043E000641EF9D52846BDE8F0814A68002A06D047
:1043F0000A68531C0B6010704868401E4860704784
:104400000A68531C0B601070704700002DE9F05FC4
:104410000746894693464FEA5B04A2464D465F4EE7
:10442000DFF87C81EFF31080012181F31088D8F848
:10443000A41221F02001C8F8A41280F31088EFF331
:104440001080012181F31088D8F8A01221F02001FA
:10445000C8F8A01280F31088306820F080403060E7
:10446000504830603F20D8F8001160F30501C8F8CB
:104470000011306820F4601040EAC74030603068B6
:1044800020F4E02040EA07403060052F03D1306877
:1044900040F400403060062F03D1306840F4804083
:1044A0003060306840F400503060306820F0605078
:1044B0003060306820F00F0040F003003060EFF310
:1044C0001080012181F31088344A3832116821F0BC
:1044D000E04141F08041116080F31088306840F085
:1044E0008040306001E0D8F80000D8F80401C0F343
:1044F00000200028F7D1EFF31080012181F310880C
:10450000116841F00041116080F3108834E0002010
:104510004FF47A711AE0884217D9306820F0804051
:104520003060306840F000403060306820F000407B
:1045300030600AF013FD1C480168491C01605446B4
:104540004D46052077F45BD36CE7401CD8F8042176
:10455000C2F30022002ADED0D8F8040100F07F0167
:10456000A14200D92146002003E0D8F8002004C56C
:10457000401C8842F9D3641A002CC8D15FEACB7082
:1045800008D0D8F80401C0F300200028F9D0D8F8EA
:1045900000002880BDE8F05F0AF0E0BC08C500A07C
:1045A00000E000A00A0708079C92003070B505469D
:1045B0000C46002C02D00DB1A54201D1002070BDE7
:1045C000A86840B1406820B1214610F057FFA868A4
:1045D0004460012070BDAC60646000202060F8E79A
:1045E0002DE9F04107460846069914469846002FE3
:1045F00003D010B10CB1A74202D10020BDE8F08178
:1046000031B104F07DF80546E06840F4007607E03B
:10461000414604F01FF8054695B1E06820F40076A5
:10462000A089800504D4206A10B1D8F80410884706
:104630002562E66021463846BDE8F041FFF7B6BF87
:104640000020DBE72DE9F04107460E464FF0000859
:104650000024274D0BE004EBC40005EB8000801C18
:1046600007223946FDF785FD40B1641CE4B2287885
:10467000A042F0D8B8F1000F18D102E04FF00108C5
:10468000F8E728780A21B0FBF1F201FB12040A28AE
:1046900001D2401C287004EBC40105EB810039688D
:1046A000C0F80210B988C180B97901722B7811A2C3
:1046B0001021002004F412F0307800070BD504EB31
:1046C000C40005EB800006F14601BDE8F0410A3068
:1046D0001C22FDF715BD04EBC40005EB800006F1BC
:1046E0002A01BDE8F0410A301C22FDF709BD000097
:1046F000E4340130523A313A616464206C746B20C6
:104700006974656D2C206E756D203D2025640A004E
:104710000449896B084004490A78104300220A7052
:1047200070470000002001A0B88E00300C4900281E
:104730000BDC0868C0F34120012805D0086820F48C
:10474000C06040F40070086070470A28FCDB08680D
:1047500010F4C06FF8D0086820F4C060086070479B
:104760000CC500A02DE9F04106460F46154672B66D
:104770003846FDF7E9FC402801D9402002E03846E0
:10478000FDF7E2FC80463046FDF7DEFC402801D90B
:10479000402002E03046FDF7D7FC04469C2110483B
:1047A000FDF7C7FC424639460D48FDF7A9FC0C4809
:1047B000224631465C30FDF7A3FC09484FF0AA3190
:1047C000016445644FF0BB3181644FF0CC31016529
:1047D0004FF0DD318165002000F004F8FEE70000B5
:1047E000E49B003030B5ADF20C4D04464FF48061CF
:1047F00003A8FDF79EFC194D202085F83F0085F8A1
:104800009B003CB12846012C436DC26C09D0022CA0
:104810000CD00FE0114A12A15C3203A8FEF7D4FEBF
:1048200008E012A103A8FEF7CFFE03E017A103A83A
:10483000FEF7CAFE03A90CA2686CCDE90121009025
:1048400019A3064A19A1002000F090FA012C01D00A
:1048500000F028FA0DF20C4D30BD0000E49B003052
:104860005B4552524F525D20257300005B57415209
:104870004E494E475D20506172616D303A25642C7F
:10488000506172616D313A25640000005B50415205
:10489000414D5D20506172616D303A25642C50614C
:1048A00072616D313A256400000000006170705F34
:1048B0006173736572742E6300000000014876F422
:1048C000DB970000DC8900302DE9F04106460F46F9
:1048D00090461D4672B64046FDF736FC402801D989
:1048E000402002E04046FDF72FFC04469C210D4885
:1048F000FDF71FFC224641460A48FDF701FC094826
:104900004FF05531016445644FF066318164C664EF
:104910004FF0773101654765C94381650220FFF794
:1049200061FFFEE7E49B00302DE9F04106460F46AB
:1049300090461D464046FDF707FC402801D940201F
:1049400002E04046FDF700FC04469C210D48FDF7BF
:10495000F0FB224641460B48FDF7D2FB09484FF0D9
:1049600011310164456449008164C6644FF03331FC
:10497000016547654FF044318165BDE8F041012094
:10498000FFF730BFE49B0030082801D300207047B8
:1049900000EB4001044800EB4110017809B1001D13
:1049A0007047002070470000A09300302DE9F047C9
:1049B0000546894600244FF0FF3846464FF0010A6D
:1049C000002D16D03349032010F050FD287990B106
:1049D000012810D002280ED003280CD004280AD0B9
:1049E000052808D0062806D0072804D04046BDE890
:1049F000F087E520FBE7EFF31082012181F31088B7
:104A0000254F04EB440107EB41110B7813B10B79EF
:104A100083420DD104EB440007EB401090F82D00C9
:104A2000022803D026B20120087004E0082402E026
:104A3000641C082CE5D382F31088082C23D20022B2
:104A4000032116480FF02EF804EB440107EB411444
:104A50002879207104F10800242205F10801FDF7EE
:104A60004FFB0F4860630F48E06300202064C4F8E8
:104A70005C90032017F4D0D3032017F4EBD3201D50
:104A800007F0E0FF8246BAF1000F00D046463046FC
:104A9000ADE70000B1428000A0930030B871010181
:104AA000FD8E0001858E000110B50C46062833D21C
:104AB000DFE800F00303031E2710184951F8300007
:104AC0002104090C04D018B1214608F067F91FE051
:104AD000E42010BD2004000C03D0A1B2104808F05F
:104AE0005DF9200C14D0210C0E4808F057F90FE0A6
:104AF00014F0FF0F03D0204607F0FEFE08E0E4208C
:104B000010BD14F0FF0F05D02146002008F0B8F9C1
:104B1000002010BDE42010BDE62010BDD4710101BD
:104B2000000001A0001001A070B58EB005460C4633
:104B3000564901F164004DC8CDE90A02CDE90C36B1
:104B4000D1E91E23486F06AED1F880100DC6099139
:104B500014224E49843101A8FDF7D2FAACB14C4978
:104B6000062010F083FC4B49072010F07FFC4A49D7
:104B7000122010F07BFC4549444A2C31062D7CD292
:104B8000DFE805F0060606415921E5200EB070BDAC
:104B9000207931F810000B90607932F810000C90F9
:104BA000A0790D9020680A903848143050F83500EC
:104BB00021880904090C04D018B10AA908F03CF9AD
:104BC00059E0E420E2E7207931F810000B90607999
:104BD00032F810000C90A0790D9020680A9020689F
:104BE0000104090C05D080B20A900AA92B4808F0EC
:104BF00023F92068010C3ED0000C0A900AA928482D
:104C000008F01AF937E0207901EB4000408A07905C
:104C1000607902EB4000C0880890A0790990206874
:104C20000690207810F0FF0F03D006A807F0B6FE1C
:104C300021E0E420AAE72079031F032B01D8E72015
:104C4000A4E702281AD001200290207901EB40004D
:104C5000808C0390607902EB400080890490A079F9
:104C6000059020680190207810F0FF0F09D001A96D
:104C7000002008F05DF9002088E704E0022002909F
:104C8000E3E7E42082E7E62080E70000C07101014D
:104C90000F4380000943800005438000000001A00D
:104CA000001001A00248406A002800D00047704769
:104CB000809D003000B587B003208DF800001D20D6
:104CC0008DF8160001208DF817008DF818008DF86A
:104CD0001900044A0449684600F01CF8FFF7EEFD8D
:104CE00007B000BDE51C0101C56B0101002806D01D
:104CF000002904D0024AD269002A00D01047704728
:104D0000809D00300248006A002800D000477047AC
:104D1000809D003070B50D4616460D4C00280AD017
:104D20000178032911D80121A17601461A222046D3
:104D3000FDF7E6F905E00020A0761A210448FDF70A
:104D4000F8F9E5612662002070BD012070BD000009
:104D5000809D0030044A1044807D084201D001202B
:104D60007047002070470000809D00302DE9FE4F05
:104D70000746924699460024A046CDF80480CDF817
:104D8000088059480178B94202D2807E00287DD13E
:104D90000EAD0095EFF311860220FEF71CFD834651
:104DA000FEF73EFD401C012181400BEB0100C0B22B
:104DB00080F3118801213846FFF7CCFF38B14B480A
:104DC0004B4950F82720204600F0A4F804461C2147
:104DD0003846FFF7BFFF00285ED046A24449204670
:104DE00000F098F8204484B204213846FFF7B2FF5F
:104DF000F8B152463E49204600F08CF8204484B277
:104E000008213846FFF7A6FF38B13BA238492046B3
:104E100000F080F8204484B20BE010213846FFF700
:104E200099FF30B135A23249204600F073F8204492
:104E300084B208213846FFF78DFF90B14A462C49CD
:104E4000204600F067F8204484B210213846FFF76E
:104E500081FF30B12AA22649204600F05BF82044A9
:104E600084B210213846FFF775FF60B126A20521F4
:104E700001A80C9BFEF78EFB01AA1D49204600F0FD
:104E800049F8204484B221A2194900E029E02046D3
:104E900000F040F8204484B21548C4F580712044E5
:104EA0002B460D9AFEF7A4FBCDF800804FF48071DD
:104EB000002804DB2044884201DC85B200E00D4676
:104EC000A81C884200D9FE2511A20949284600F0F5
:104ED00021F8284481B20648FFF708FFF0B280F3BA
:104EE0001188BDE8FE8F0000809D0030E889003009
:104EF000809C003028000000200000003A000000E4
:104F0000204C696E653A0000256C64002920000081
:104F10000D0A000030B50546002000290CD0002AFB
:104F20000AD006E02B18FF2B06D8CC54521C401C8C
:104F300080B21478002CF5D130BD00007CB5184A41
:104F400006214CF201000DF04DFAFFF7B3FE4FF4CD
:104F5000165011F08FFD124DE868019001248DF874
:104F600004408DF8054000208DF806006006009092
:104F700069460520FFF7D8FD686901908DF8044067
:104F80008DF8054007208DF8060040200090694606
:104F90000320FFF7C9FDBDE87C40002073F4629652
:104FA0007073010110B50848017800290AD1012168
:104FB0000170064873F4A6D4BDE8104000210448EF
:104FC00073F4029710BD0000C889003025438000AB
:104FD000513A01012DE9F04104460D461746002DD6
:104FE00004D0012D02D00120BDE8F081E4B1DFB191
:104FF000607801281AD0EFF311860220FEF7DDFB5E
:105000008046FEF705FC401C0121814008EB0100B1
:10501000C0B280F3118800206070A570E761F0B223
:1050200080F311880020DFE70120DDE70620DBE7C1
:1050300010B50446002C0CD0204600F0B3F9FF2038
:1050400060700021A160E160216161610020E06188
:1050500010BD012010BDF0B5DDE90745059981615E
:105060004FF47A76A2FB061C03FB06C3002702FB63
:105070000732C0E9021209196A41C0E9041200218D
:105080000162F0BD2DE9F0410446002C13D0EFF38E
:1050900011850220FEF791FB0746FEF7B9FB401C85
:1050A000012606FA00F03844C0B280F31188124895
:1050B000002121620EE00020BDE8F081D4E9043235
:1050C000D1E9047CDB1B72EB0C0202D2016A216283
:1050D00003E00846016A0029F0D1046266700648C0
:1050E00010380168491C0160016B4160E8B280F32F
:1050F00011880120E0E70000089900302DE9F04117
:1051000005460024EFF311860220FEF756FB074602
:10511000FEF77EFB401C012181407818C0B280F36D
:105120001188134A106BE8B115B102F1100010E0BC
:105130000446206A10631068401E10600CE0A9420B
:1051400006D11168491E1160296A01622C4603E0EC
:105150000846016A0029F2D124B100202062607063
:10516000106B5060F0B280F311882046BDE8F081EA
:10517000F89800302DE9F041EFF311870220FEF797
:105180001CFB0446FEF744FB401C012181406018D3
:10519000C0B280F31188114D002608E02078012864
:1051A00004D1E16909B1A069884726702D6A2C6A8B
:1051B000002CF3D1094D103D07E0E16909B1A06968
:1051C00088472670206AA8632662AC6B002CF4D155
:1051D000F8B280F311880120BDE8F0810899003011
:1051E0002DE9F041EFF311870220FEF7E6FA0446BD
:1051F000FEF70EFB401C012606FA00F02044C0B268
:1052000080F311881D4DA5F110082DE0D4E904307C
:10521000D8E902125B1A60EB0200D8E91021D21A19
:10522000814124D326702046FFF768FFA07801282B
:1052300006D01248283000212162016861B10FE0D8
:10524000D8E90220D4E9021351185841C4E90410E6
:105250002046FFF717FF07E0046005E001F120009A
:1052600001680029FAD104602C6A002CCED1F8B272
:1052700080F311880120BDE8F0810000089900301A
:105280002DE9FF5F82460E4693464FF00008BAF1C3
:10529000000F20D0414886421DD8E6B1EFF31187B8
:1052A0000220FEF78AFA0446FEF7B2FA401C0121FA
:1052B00081406018C0B280F31188504609F0A8FB05
:1052C00010B19AF8010040B1F8B280F311880F20B4
:1052D00004B0BDE8F09F0120FAE70CF007FD04469A
:1052E0000D464FF47A7106FB01F022462B46002151
:1052F00009F05EFBDFF8A890B0B1D9F8040048B11E
:10530000D0E90410091B60EB0500C9E902100CF09C
:1053100081FD04E00021C9F80810C9F80C104FF015
:105320000108D9E9020106E0D9F80400D0E9042116
:10533000101B61EB0501CDE9020132460023CDF8D7
:1053400000B05046FFF787FE5046FFF79BFE0FF078
:105350002BFF4FF0E024D4F800014FF0806510F0EF
:10536000806F01D0012000E0002020B91A20FEF754
:105370006BF9C4F80051B8F1000F0AD0D9F8040055
:10538000D0E90431D9E90202181A61EB02010CF0EC
:10539000E3FCF8B280F31188002099E7008AB9078E
:1053A000F89800302DE9F04104460025002C39D052
:1053B000EFF311870220FEF700FA0646FEF728FAFF
:1053C000401C012181407018C0B280F311886078C0
:1053D000012824D1144E7068A0420BD10CF086FC39
:1053E000D4E90432181A62EB0102C6E902020CF099
:1053F00011FD01252046FFF781FE5DB1706848B1BF
:10540000D0E90421D6E90203101A61EB03010CF084
:10541000A3FC04E01DB9706808B90CF0FBFCF8B2FD
:1054200080F31188BDE8F081F898003010B504468B
:10543000114822784FF0FF3150F82220A2F868106E
:10544000227850F82200A0F86A10606B002801D181
:10545000A16B71B120B1204600F05EF8002807D1A1
:10546000A06B20B1204600F009F8002800D10020F0
:1054700010BDE42010BD0000CC89003030B58BB0E9
:1054800004462C216846FCF754FEA06B009094F86B
:105490003D008DF804001D490098884205D122780E
:1054A0001B4B03EB021252680292029AF2B188423D
:1054B00001D10F2003904FF400100490C01205900A
:1054C00000200690079008900990A0200A900021E3
:1054D0006846FFF76BFA21780E4D55F82110A1F8B8
:1054E0006A00002804DAE4200BB030BDE720FBE7B7
:1054F000FFF74AFA217855F821104863217855F8CA
:105500002110091DC1620020EEE70000003001A05B
:1055100078720101CC89003030B58BB004462C2163
:105520006846FCF706FE606B009094F83C008DF82E
:1055300004001D480099814202D14FF00F000290F3
:1055400005D12078194901EB0010006803900398F9
:10555000D8B14FF4801004904FF0000005904FF444
:10556000807106910790089009900A90014668465C
:10557000FFF71CFA21780E4D55F82110A1F86800AC
:10558000002804DAE4200BB030BDE720FBE7FFF78A
:10559000FBF9217855F821100863217855F821107E
:1055A000091DC1620020EEE7003001A07872010100
:1055B000CC8900302DE9F0410446022C02D3E820CA
:1055C000BDE8F081364D55F82400C0B190F86C105C
:1055D000A9B1406E41680078FFF766FA0028EFD164
:1055E00055F82400406E0169007BFFF75DFA002842
:1055F000E6D155F824008169222902D012E0E52085
:10560000DEE7406E816A90F82400FFF74DFA00282B
:10561000D6D155F82400406EC169007EFFF744FAE8
:105620000028CDD11F4800EBC40090F9010016F40A
:1056300000D655F82400002780F86C7055F8240037
:1056400080F8007155F8240080F8017155F82400A5
:1056500080F8027155F8240080F80371EFF310868A
:10566000012080F31088002055F8201011B191F826
:105670006C1029B9401C0228F6D301200EF02AFA3A
:1056800086F3108855F82400001D07F0B5FE55F884
:10569000240090F86D0008B945F8247000208FE7C9
:1056A000CC8900306872010170B500280ED00478F2
:1056B000012C0DD0104E56F8241059B191F86C20E1
:1056C00042B191F86D1039B1EA2070BDE52070BD8E
:1056D000E82070BDE92070BDEFF31085012181F352
:1056E0001088FFF7A3FE20B956F82420012182F884
:1056F0006D1085F3108870BDCC89003070B502281C
:1057000001D3E82070BD134C54F820304BB193F80E
:105710006D5035B139B132B193F80351012D04D038
:1057200010E0E92070BDE42070BD002583F803512E
:1057300054F820305B680225C3F8885054F82030B4
:105740005B681B6854F82000001D07F09FFE0028CE
:10575000EAD170BDCC89003070B504461A4D55F8B9
:10576000240070300EF09DFD82B21646A2B155F8AD
:10577000240090F8011101290ED0012180F80411B4
:10578000802A0FD355F82400802200F18001703068
:105790000EF09CFD80260CE055F82410002081F8C6
:1057A000000170BD55F8240000F1800170300EF04A
:1057B0008DFD55F82400324600F18001001D1CF4D7
:1057C00039D10028EDD170BDCC8900302DE9F047EA
:1057D000ACB0002879D001780027DFF8F4900029D8
:1057E00069D0012971D002296FD1B0F8048000245A
:1057F000DFF8E0A055E03848025DB9F80000FF2866
:105800004BD8411C89B2A9F800100AF800200229DF
:1058100045D30AEB010010F8022C0D2A3FD110F8F5
:10582000010C0A283BD11D2905D02A4811F0CAF9DC
:10583000A9F8007033E028AA26480FF011FB0346B0
:105840005BB126A2402118A8FDF7A4FE0028EFDDD9
:1058500081B218A811F0B6F9EAE72998FDF71CF90A
:1058600005460E462898FDF717F90A4601469DF8A9
:10587000AD009DF8AC30DDF8A8C08DE86610CDE92C
:1058800005301D4A802108A8FDF784FE0028CFDDE1
:1058900081B208A811F096F9CAE7A9F80070641C53
:1058A000A4B24445A7D32CB0F422BDE8F0470A497E
:1058B0000020FFF723BFA9F800702CB0F422BDE848
:1058C000F04705490020FFF719BF2CB0BDE8F0876D
:1058D000CC8B003078BF003078C0003050617273DC
:1058E00065206661696C65642C206572726F723A1E
:1058F0002025640D0A000000D47B01012DE9F84346
:1059000004464D4F57F82400061D022C7ED290F815
:105910006C1000297AD0012978D190F80011012962
:1059200074D190F80111002970D1012180F8011182
:10593000002157F82400D0E903231344027D02F02C
:105940000102D21D9D184268D36FC3F38003002B60
:10595000FAD090F80421A2B1384A1368491C90F893
:105960003B20102A06D08268B3FBF2F26A43B1EB07
:10597000C21FF3D957F8240070300EF092FC85B2A4
:1059800026E0B0F82480C58C001D1BF4CBD457F85A
:10599000240041F2883300EB0801491B8031001DCF
:1059A0002A461CF40CD0E5E757F824000122703099
:1059B00069460EF08BFC57F824004068C16FC1F3B4
:1059C00040010029FAD09DF8001001606D1EADB2B3
:1059D000002DE9D157F8240070300EF062FC002849
:1059E000C8D1306841694906FCD5EFF31085012024
:1059F00080F3108857F8240070300EF052FC68B124
:105A0000EFF31081012080F3108800E011E030688E
:105A1000426842F08202426081F3108857F82410F5
:105A2000002081F8000157F8241081F8010185F366
:105A30001088BDE8F8830000CC8900300888003069
:105A40002DE9F04105460F46002D06D02AB12C78ED
:105A5000022C04D3E820BDE8F081E520FBE7304EBE
:105A600005F1580046F82400D2E900310A467030AA
:105A700019460EF0F7FB291D286D10F0B3FF002822
:105A8000E9D156F82410281D486656F8240007600E
:105A900056F824001822083005F14001FCF730FBCD
:105AA000204856F8241000EBC4056868486056F892
:105AB0002400001D07F0A0FC56F82400001D07F08C
:105AC000D1FC18480122032110380DF0EBFF56F8E5
:105AD0002410012081F86C0056F82410002081F871
:105AE000000156F8241081F8010156F8241081F8BD
:105AF000020156F8241081F803010B490C200FF025
:105B0000B5FC0A490D200FF0B1FC95F9010016F41F
:105B100083D395F9010016F49DD300209BE7000084
:105B2000CC890030687201015135000161350001F6
:105B30002DE9F04104461A4D55F8240070300EF05E
:105B4000B0FB82B2164600277AB155F8240090F8CF
:105B50000111012909D0802A0ED300F18001703093
:105B600080220EF0B3FB80260BE055F8240080F86D
:105B700000710020BDE8F08100F1800170300EF06E
:105B8000A5FB55F8240080F8047155F8240032462E
:105B900000F18001001D1BF493D70028EAD1E9E74A
:105BA000CC89003070B5022801D3E82070BD104DBB
:105BB00055F8204064B194F86C604EB151B14AB1CF
:105BC0005E1C09D044F62066B34205D9E42070BDBE
:105BD000E52070BDE42070BD002684F8026155F810
:105BE0002000001D1BF4EBD60028F4D170BD00008E
:105BF000CC8900302DE9F04106460C46174604F1E9
:105C0000080520466FF4D8D5C3B21B48E118426896
:105C1000914202DD0320BDE8F0811849184A00686E
:105C200009681268891A081A001FE91881421CD9EC
:105C30004FF4004513A22946002002F44FF502F06C
:105C40008FFD30B118A22946002002F447F5082044
:105C5000E1E71DA22946002002F440F53A4621461C
:105C60003046BDE8F04111F0D3B93A4621463046FE
:105C7000BDE8F04111F0CCB9D8328000D0238000CB
:105C8000CC238000523A353A4E5644532061726517
:105C900061206973206265696E6720636F6D706152
:105CA000637465642E0D0A00523A353A436F6D7085
:105CB000616374696E67204E564453206661696C57
:105CC00065640D0A00000000523A353A436F6D706A
:105CD000616374696E67204E564453207375636325
:105CE00065737366756C0D0A0000000070B50026C0
:105CF00006710021032585702A46B0F844309B1EAA
:105D00000AE003D1511BC170067170BD046CA45C24
:105D10003D2C09D0521C92B29342F2DA417100F14B
:105D2000210500F1050219E0A2EB050101F10101D5
:105D3000C17002F1010291B2F0E7036C5B5C3A2B97
:105D400012D02C2B10D08C4206D103799C5C0C1BFA
:105D50005C5503795B1C0371491C89B2B0F844405F
:105D6000A41E8C42E9DA70BD03799C5C0C1B5C5567
:105D700003795B1CDBB203714C1C9C54ECE70028DC
:105D800005D0012805D0402803D009207047002005
:105D900070470620704770B5002904D000231360B7
:105DA0006FF02F0611E0002070BDC45CA4F1300537
:105DB0000A2D01D3002070BD156805EB850506EBA3
:105DC00045052C4414605B1CDBB28B42EDD30120F3
:105DD00070BD000070B5044600202178002935D040
:105DE0000A293BD2DFE801F03A050A0F14191E23F5
:105DF000282D35A1394800F0F1F92FE038A13748B6
:105E000000F0ECF92AE03DA1344800F0E7F925E084
:105E100042A1324800F0E2F920E04AA12F4800F008
:105E2000DDF91BE04DA12D4800F0D8F916E052A194
:105E30002A4800F0D3F911E053A1284800F0CEF928
:105E40000CE059A1254800F0C9F907E0B4F8022197
:105E5000611C2248FCF754F994F802011F490D22F5
:105E60000A5401440A224A70554DEB6883B169789F
:105E7000012902D0022906D00AE0801CC2B21749CB
:105E80000120984704E0801CC2B2144902209847C0
:105E9000012028742078082815D1494869681430F1
:105EA000407800EB8002102000EB82000C58002CA0
:105EB00009D02046FCF748F982B268782146BDE84F
:105EC000704000F01DB970BD4552523A20496E76BF
:105ED000616C696420696E7075742E00E49A0030FC
:105EE0004552523A20556E737570706F72746564C6
:105EF00020415420434D442E000000004552523AA8
:105F0000204E6F20616C6C6F7765642070617273D6
:105F1000652073746174652E000000004552523A8A
:105F200020436F6D6D616E64207265717565737469
:105F3000206973206E6F7420616C6C6F7765642EBE
:105F4000000000004552523A204E6F204154204339
:105F50004D442068616E646C65722E004552523A61
:105F600020496E76616C696420706172616D657440
:105F70006572732E000000004552523A2048616C51
:105F8000206572726F722E004552523A20415420A1
:105F9000434D4420657865637574652074696D654B
:105FA0006F75742E000000004552523A204F7468FD
:105FB0006572206572726F7220636F64652E0000D7
:105FC0008899003000B5C1B04FF482716846FCF783
:105FD000B0F80748017C012907D00121017408208D
:105FE0008DF800006846FFF7F5FE41B000BD0000E7
:105FF00088990030002807D0012807D0022805D052
:10600000032803D000207047002070470720704706
:106010002DE9F0410546002028700024124E082783
:106020004FF0040813E004EB8401706807EB810271
:10603000835CEA78934208D108EB8101AB78415840
:10604000286C1844FCF795F830B1641CE4B2307841
:10605000A042E8D8BDE8F081706804EB840110F834
:10606000210028706C70F5E78899003010B504465F
:1060700014210E48FCF75DF80C4848211430FCF759
:1060800058F80A482179017021684160A16881604F
:10609000E168C16001210174417000F15C011430BC
:1060A00001640021A0F8441010BD00008899003060
:1060B00070B504460E461546032210A12046FCF793
:1060C00058F808B1002070BD012209E0A05C0A2840
:1060D00004D1A01810F8010C0D2805D0521CD2B222
:1060E000B242F3D3002070BD521CA5F844202146D3
:1060F000286CFCF705F8012070BD000041543A00FF
:106100002DE9F047C2B00646894692464FF48271A7
:1061100001A8FCF70EF80024294D6E70A5F1480087
:1061200001260078132801D12E740124287C03272E
:10613000012807D08DF8047001A8FFF74BFE42B08C
:10614000BDE8F0874FF0020885F810801C4A5146E0
:1061500014324846FFF7ACFF70B119481430FFF70E
:10616000C5FD17481430FFF753FF154E1436B4B170
:106170003078142806D012E08DF8046001A8FFF7EB
:1061800029FEDCE700208DF804000EA10DF10500CA
:1061900000F024F8ADF8060101A8FFF71BFE3078E7
:1061A00040B12F74064948221431A1F15C00FBF77D
:1061B000A7FFC4E78DF8048001A8FFF70BFEBEE738
:1061C0008899003073746172742063616E63656CCA
:1061D00020636F6E6E6563742E2E2E000FB410B5A3
:1061E000C0B0044644AA68464399FDF71BFA6846C6
:1061F000FBF7AAFF024669462046FBF781FF684687
:10620000FBF7A2FF40B0C0B210BC5DF814FB000069
:1062100070B5C2B0164C207C032827D1042020740E
:1062200004F114060C257078616800EB800005EB22
:106230008000085878B1A06800B180477078616824
:1062400000EB800005EB8000095842B00848BDE82B
:106250007040143008474FF4827101A8FBF769FFC2
:1062600005208DF8040001A8FFF7B4FD42B070BD11
:10627000889900307CB50D46002200920192694653
:1062800002F42EF2044634BB4FF42051684602F467
:1062900029F2B8B942F60101684602F423F288B93E
:1062A00042F60301684602F41DF258B942F60201B3
:1062B000684602F417F228B94FF42451684602F4F4
:1062C00011F208B1062406E00098C5F30B0180889E
:1062D00008430099888020467CBD00002DE9F041EC
:1062E00005460C46FF26217A1E2905D02248027950
:1062F000521E52B200683AE004F10801284602F446
:10630000F3F1064635E010F832308B422DD11B4EAA
:1063100056F82500406F30B300273B4618A24021B5
:10632000002002F4DBF1062000EB05202AF422D045
:10633000C00605D5002717A24021002002F4CEF1A7
:1063400021460C3956F82500743002F4CFF10020B4
:10635000A08001266FB115A2402102F4BFF12846AA
:1063600002F4C6F105E00127D7E7521E52B2002A17
:10637000C9DA3046BDE8F0817C058000C40E80009B
:10638000523A333A657865637574653D307825789F
:106390000A000000523A333A636F6E6E65637420F0
:1063A0006E6F742063666D0A00000000523A333A43
:1063B000737461727420657865637574650A000092
:1063C0000348024901600D2141607047D8910030B7
:1063D0007C0580002DE9FF5F81460F460024A24620
:1063E000CDF808A0CDF80CA0584850F8290060302E
:1063F00002F480F180463D1F79882888544BCDE90E
:10640000001054A24021002002F468F12888E8BB63
:10641000484602F471F1401E2880002611E007EB87
:10642000460002AB82880021484602F467F1C4B2FC
:10643000CDF808A0CDF80CA00CB1B0463BE0761C1E
:10644000B6B27888B042EAD835E007EB48006B4630
:10645000818801AA484602F453F1C4B23CBBBDF89E
:1064600004002988884200D3084686B2022106F13A
:10647000080029F429D58346ABF8046032460BF1B5
:1064800006000099FBF73CFE304800E013E050F8AE
:1064900029005946603002F429F1484602F432F1ED
:1064A0002888801B288008F101081FFA88F8CDF899
:1064B00008A0CDF80CA07888404503D9288808B1F9
:1064C000002CC2D044BB484602F416F12988401A79
:1064D000401E86B20025062000EB09230F2204216E
:1064E000484600962CF4A0D08246AAF802601748CD
:1064F00050F82900066E0AE00AEB0500B288001D7C
:10650000B11DFBF7FDFDB088284485B23668002E2A
:10651000F2D1504602F4F8F04CB1062C07D007EB4C
:106520004800397882882346484602F4EFF0084B49
:1065300014A240210020009402F4D0F0062C03D0D5
:10654000002004B0BDE8F09F0120FAE7C40E8000EF
:1065500078750101523A333A5B25735D20656E749C
:1065600065722C206E625F68616E646C653D307888
:1065700025782C2072655F6C656E3D307825780A31
:1065800000000000523A333A5B25735D206578695C
:10659000742C207374617475733D307825780A000B
:1065A00010B500210A4C0023002001EB410202EB50
:1065B000C10204EB420222F81030401CC0B20A288B
:1065C000F9D31375491CC9B20A29EDD310BD0000D7
:1065D000683601301FB50F4890F80201002818D026
:1065E00068464DF4A7D6DDE900010B4CCDE9020168
:1065F000E1680844094920F07040486008464EF4BC
:106600002FD1607818B1BDE81F400EF021B80EF010
:106610003BF81FBDC01A8000B8910030B41A80004A
:1066200002460020002152F821300BB1401CC0B2BC
:10663000491CC9B20C29F6D3704710B50AF0A8F965
:10664000BDE8104004F0AAB809F038BF00B58DB01D
:1066500009A80FF017F99DF825209DF824300A9815
:10666000BDF82610CDE9041026A040F2C311CDE9F3
:106670000232CDE900102D4B2DA233A10220FEF7EE
:1066800075FB0BA85FF494D49DF82E209DF82F3055
:106690009DF82C109DF82D00CDE90601CDE90432BE
:1066A0009DF830009DF8311029A240F2C713CDE9C2
:1066B0000032CDE902101D4B1DA223A10220FEF7DE
:1066C00055FB2EA04FF4E771CDE90010174B18A22F
:1066D0001DA10220FEF74AFB03F0ACFC0FF012FCF8
:1066E0000FF082FC0EF002FD2C4805F093FE0A200C
:1066F0000FF0E6FF01F016F82949002000F088FAB3
:106700000DB000BD476F6F64697820424C4520533F
:10671000444B205625642E25642E25642028636F63
:106720006D6D69742025782900000000C073010197
:106730002E2E5C5372635C757365725C7573657243
:106740005F6170702E6300004E4F5F544147000040
:106750004C6F63616C20426F617264202530325847
:106760003A253032583A253032583A253032583AA4
:10677000253032583A253032582E0000476F6F646A
:106780006978205541525428415429206578616D1B
:10679000706C652073746172742E000045C4000132
:1067A0003E8C00302DE9F04105468846284669F4C4
:1067B000C7D4C0B22449097888420DD200EB40000A
:1067C000213040F400404246AC210BF00BFE044661
:1067D000200032D0012430E069F4F6D4C7B207EBD0
:1067E000470606F1200040F400402A4607210BF03E
:1067F000F9FD10B10120BDE8F081384675F434D6BA
:1068000006F1210040F400404246AC210BF0EAFDC5
:106810000446200001D00120EDE7223646F4004076
:106820000BF036FC0949C7EBC70009680844296822
:106830000160A9888180A97981711CB941462846E7
:10684000FDF700FF2046D6E7382380003C23800078
:106850000020704710B500F013F80DF06FFF0DF039
:10686000BFFF0DF009FF0DF0F9FA0FF0F9F901F093
:10687000A7FA0DF0C9FFBDE8104001F06FB90000A4
:1068800010B50749074805F065FB0749074805F0BB
:1068900061FBBDE810400649064805F05BBB0000FF
:1068A00061E20001A1B90200A56700017D5A06005E
:1068B00029EA0001C10603000DF054BA10B508F032
:1068C00093FF0AF09FF908F0BBFF09F0CDFB09F038
:1068D0001BF808F0B7FAFFF773FD04F015FE0EF091
:1068E00027F80EF0A1FDBDE81040FFF759BE0000EB
:1068F0000148FFF795BE0000B413800010B5FFF704
:10690000DBFF054903480860BDE81040034875F403
:106910001D90000017B8800474C500A00087930381
:1069200010B50446002C0CD0204600F085FC002851
:1069300007D104494968002903D02046BDE810402A
:10694000084710BD948F003070B5CAB004464FF4AC
:10695000827109A8FBF7EDFB208840F20D22894DDA
:10696000A0F20D21904274D025DCB0F5027F4CD00E
:1069700011DCB0F5807F41D0A0F50070073808D158
:106980006088C8B3FFF7FBF98DF8240009A8FFF76A
:1069900021FA4AB070BDA0F500700B3846D001282E
:1069A000F7D1608848B3FFF7EAF98DF8240009A809
:1069B000FFF710FAEDE709AEF62970D00BDCF429E9
:1069C0004ED0F529E5D16088002869D0FFF7D7F9C6
:1069D0008DF82400AEE0F9297ED0A1F54071F3399D
:1069E000D7D16088002878D0FFF7C9F98DF8240046
:1069F00009A8FFF7EFF9CCE703E026E0FFF726FE52
:106A0000C7E702200FF0ECFCC0E7608838B1FFF761
:106A1000B6F98DF8240009A8FFF7DCF9B9E7687822
:106A20000028F8D101200FF0DBFCF4E7608838B1D2
:106A3000FFF7A5F98DF8240009A8FFF7CBF9A8E71F
:106A400003200FF0CDFCF7E703E001200FF0C8FCB6
:106A5000ADE7618C04F10A02606A0FF02BFB98E746
:106A6000608820B1FFF78BF98DF8240026E0207EA6
:106A70000FF0A2FC05200FF0B3FC01206870207E0F
:106A800010B9207905F0C4FBA07CE17C227D637DF8
:106A9000CDE90432CDE90610A07DE17D01E04DE0B5
:106AA00038E039A24FF4BB73CDE90032CDE90210D2
:106AB000434B44A249A10220FEF758F909A8FFF769
:106AC00089F9EFF31084012080F3108845490020F4
:106AD0004A681060444A01E044E048E053681860A6
:106AE0008860C8609060D06001210FF031FA002109
:106AF00001200FF02DFA002102200FF029FA0121C8
:106B000003200FF025FA012104200FF021FA84F36D
:106B100010883EE701200FF063FC207A33A14FF488
:106B2000CB72CDE900210290254B26A22BA1022099
:106B3000FEF71CF909A8FFF74DF92AE7608838B17C
:106B4000FFF71DF98DF8240009A8FFF743F920E7A6
:106B50002CA1701CFFF742FBADF8260101200FF0BD
:106B60003FFCF1E72079012160F41ED011E7E088B5
:106B700010F060F8E28824A1701CFFF72FFBADF83D
:106B8000260135E73C8C0030436F6E6E656374659B
:106B90006420776974682074686520706565722068
:106BA000253032583A253032583A253032583A2575
:106BB0003032583A253032583A253032582E0000BB
:106BC000B07301012E2E5C5372635C757365725C49
:106BD000757365725F6170702E6300004E4F5F5475
:106BE00041470000E0310130F03101304469736306
:106BF0006F6E6E6563746564202830782530325876
:106C0000290000004F4B00004D54553A2564000008
:106C10002DE9F84307460D46EFF311860220FCF7F5
:106C2000E8FD0446FCF704FE401C01218140601889
:106C3000C0B280F3118869F459D38046052F06D37A
:106C400050A21021002001F449F5152487E09DB1E0
:106C50004F48C7EBC70100EB8104E06860B1607A80
:106C600008B167F49DD2607A68B14AA21021002071
:106C700001F434F50F2472E049A21021002001F440
:106C80002DF502246BE02069F8B9E068017841B184
:106C9000012910D045A21021002001F41FF5232462
:106CA0005DE08078400710D443A21021002001F459
:106CB00015F5232453E08078800706D441A21021E3
:106CC000002001F40BF5232449E0E06841888A079D
:106CD00004D50278012A01D162691AB10278022A28
:106CE00007D008E03AA21021002001F4F7F425248F
:106CF00035E0A26962B1090711D5298809B1802957
:106D00000DD936A21021002001F4E8F4262426E053
:106D100035A21021002001F4E1F424241FE0407882
:106D200002280CD1288818B144F25061884206D953
:106D300030A21021002001F4D1F426240FE0E069F4
:106D400028B90021042064F4CFD5E061B8B1E0692E
:106D5000296801603946002069F424D400243B46A8
:106D600027A210210020009401F4B8F4404669F4F1
:106D700087D2F0B280F311882046BDE8F883102452
:106D8000EDE70000523A313A453A310A000000007E
:106D90007C278000523A313A453A330A000000001D
:106DA000523A313A453A320A00000000523A313A3A
:106DB000453A360A00000000523A313A453A340A60
:106DC00000000000523A313A453A350A000000000E
:106DD000523A313A453A370A00000000523A313A05
:106DE000453A390A00000000523A313A453A380A29
:106DF00000000000523A313A453A31300A000000B2
:106E0000523A313A6164765F73746172745B2564DF
:106E10005D3A20453A3078253032780A000000008B
:106E20002DE9F04782460D460026EFF31188022037
:106E3000FCF7DFFC0446FCF7FBFC401C0121814011
:106E40006018C0B280F3118869F450D281462DB128
:106E5000314F97F8A50018B10F264BE0022649E004
:106E6000D7F8AC0038B90021382064F43DD5C7F814
:106E7000AC0000284ED0E83757F83C4C382120466B
:106E8000FBF757F907F841AC28782070607840F09C
:106E9000010060702889A0816889E081A88920822A
:106EA000E8896082F98F40F27120B1FBF0F2521C48
:106EB0004FF6FF7101EA4202A282FA8FB2FBF0F0B4
:106EC000401C01EA4000E082288A60801020A080F7
:106ED000E080E87900F00100E871D5F80100206356
:106EE000B5F80500A086E87984F836000021062070
:106EF00069F458D3334609A21021002001F4EEF3BF
:106F0000484669F4BDD108F0FF0080F3118830468F
:106F1000BDE8F0871026EDE77C278000523A313A31
:106F2000636F6E6E6563742C207374617475732067
:106F30003D2025640A0000002DE9F04704468946FB
:106F400090460025EFF311870220FCF752FC06461D
:106F5000FCF76EFC401C012181407018C0B280F328
:106F6000118869F4C3D18246184EB9F1000F14D0CC
:106F7000042C02D8B8F1F80F01D901251CE04246D3
:106F800049461348FBF7BCF808F0FF0186F8771173
:106F90004A46022000F038F903E0042C01D901250B
:106FA0000AE0B6F8220120F007002043A6F82201EB
:106FB000708840F002007080504669F461D1F8B2E8
:106FC00080F311882846BDE8F08700007C27800008
:106FD000F42880000A2805D2034A002152F8200034
:106FE00080F88F1070470000C40E800010B5034673
:106FF0000C4618460DF05AFC002805D12146BDE884
:107000001040184661F4D69710BD10B503461846D7
:107010000DF04CFC002804D1BDE81040184662F485
:10702000039010BD38B504460D4600200090002C9A
:1070300006D069460D485EF477D580B210B110E0F5
:10704000022038BD142074F409D7014659B105CC8B
:10705000C1E90102CD609DF800000874044807F002
:1070600079FF002038BD102038BD000040750101B7
:107070003490003010B503460C4618460DF016FC4F
:10708000002805D12146BDE81040184662F4DC9581
:1070900010BDF8B50546069C0E46174628460DF06D
:1070A00005FC002805D13A4631462846009462F492
:1070B00029D6F8BDF8B50546069C0E461746284663
:1070C0000DF0F4FB002805D13A46314628460094DD
:1070D00062F4C0D6F8BD10B503460C4618460DF054
:1070E000E5FB002804D12146184663F40FD080B296
:1070F00010BD000070B504460E46002C05D00F48A8
:1071000067F432D285B215B113E0022070BD1420AD
:1071100074F4A4D6014671B10C6120680088C8805F
:10712000CE60074A50780871401C5070101D07F05F
:1071300011FF284670BD102070BD0000347501019C
:107140002C90003010B503460C4618460DF0AEFBEF
:10715000002805D12146BDE81040184663F41C9173
:1071600010BD10B503460C4618460DF09FFB0028D5
:1071700004D12146184663F4FBD380B210BD000051
:1071800000B58BB0094901200870FF22282101A811
:10719000FAF7C8FF4FF48070ADF804000020ADF896
:1071A000060001A8FFF7BCFB0BB000BD948F0030B8
:1071B00010B506480068002800D08047FDF7E0DBE6
:1071C00008B1012010BD002010BD000080920030E9
:1071D00010B540F440400AF05BFF10BD38B50C46D6
:1071E0002178009140F4404069460AF0C5FF002232
:1071F00008B1227038BDBDF80010FF2902D92270F5
:10720000012038BD217038BD10B540F440400BF06E
:10721000E9F810BD044901600449416004498160F6
:107220000449C1607047000041C20600DD710001E1
:1072300009720001D171000170B50446002C1FD005
:107240004FF6FF731946208840F20155A0F2015213
:107250004FF48076A8424AD01BDC40F20245A0F2EF
:107260000242A84232D00DDCA0F54070013823D094
:10727000012821D0FF2827D0B0422CD121892AE033
:10728000002070BD012A23D0022A23D0FE2A22D159
:1072900028E0052A2BD008DC012A28D0022A26D093
:1072A000032A24D0042A16D121E0062A1FD0B24294
:1072B00022D0B2F5007F0ED1204604F00BFC204610
:1072C00004F084FA002070BD218904E0218902E0E5
:1072D000618900E0218A994213D0204604F00AFC1B
:1072E000012070BD204604F005FB002070BD204643
:1072F00004F07CFA002070BD204603F0B7FF0020A8
:1073000070BD002070BD00000EB5134A1278002A2F
:1073100012D000280FD000290DD002787B2A16D079
:107320000EA0EE22CDE900200291154B15A21CA162
:107330000220FDF71BFD0EBD1BA0DE21CDE90010D4
:107340000F4B10A216A10120FDF710FD0EBD03B0DA
:107350005DF804EB0BF0C4B95B8E003052656365D9
:1073600069766564206E6F6E2D4A534F4E206461BE
:1073700074612C206C656E6774683A202564000087
:107380000C7401012E2E5C5372635C757365725C24
:10739000626C655F70726F746F636F6C2E63000058
:1073A0004E4F5F544147000050726F746F636F6CB3
:1073B000206E6F7420696E697469616C697A6564A6
:1073C000000000002DE9F04194B0054668A0CDE929
:1073D0000105F42100916C4B6CA273A10220FDF712
:1073E000C5FC012D22D0022D3AD0032D52D0042D00
:1073F0007DD000221146652000F020FF04466CA0DD
:10740000CDE9010540F2311100915F4B5FA266A109
:107410000120FDF7ABFC002C6AD0204600F0B2FA48
:1074200014B02046BDE8F041FCF738BA01F00CF882
:10743000044674B164A268A1204600F09DFF69A2D1
:107440006AA1204600F098FF6DA26EA1204600F0D0
:1074500093FF22460121652000F0F0FE0446DAE7A2
:1074600000F0F2FF044674B16BA26DA1204600F05B
:1074700083FF6DA26FA1204600F07EFF72A274A16F
:10748000204600F079FF22460121652000F0D6FE5B
:107490000446C0E700F0D8FF80465FEA080035D018
:1074A0006F4C6068FBF7F8FA06460F462068FBF75A
:1074B000F3FA8DE8C3006BA220210CA8FCF76AF850
:1074C000E068FBF7E9FA227C8DE807006AA2202138
:1074D00004A8FCF75FF80CAA6AA1404600F04CFF34
:1074E00094ED020ABDEEC00A10EE100A01E014E0AD
:1074F0002FE0FBF759FA41EC100B66A1404600F073
:1075000023FF04AA66A1404600F036FF424601214F
:10751000652000F093FE04467DE700F095FF0446E9
:1075200084B19FED630B64A1204600F00DFF9FED39
:10753000670B68A1204600F007FF022269A12046E0
:1075400000F0DEFE22460121652000F077FE0446B1
:1075500061E767A0CDE901054FF49E7100910A4BE8
:107560000AA211A10020FDF701FC14B0BDE8F081D2
:1075700048616E646C696E672071756572792074FC
:107580007970653A20256400267401012E2E5C5323
:1075900072635C757365725C626C655F70726F7448
:1075A0006F636F6C2E6300004E4F5F5441470000C5
:1075B000556E6B6E6F776E20717565727920747978
:1075C00070653A2025640000476F6F6469785F55E5
:1075D0004152545F415400006465766963655F6E93
:1075E000616D6500312E302E300000006669726DCD
:1075F000776172655F76657273696F6E0000000077
:10760000312E300068617264776172655F766572F1
:1076100073696F6E000000006E6F726D616C000028
:107620007374617475730000636F6E6E6563746567
:1076300064000000636F6E6E656374696F6E5F73E4
:107640007461746500000000616374697665000010
:1076500073656E736F725F73746174650000000010
:1076600010320130252E32662525766F6C2C252EA2
:10767000316625254C454C00252E3166562C256457
:107680002525000073656E736F725F6D65746861A8
:107690006E65000073656E736F725F54454D5000E8
:1076A00073656E736F725F626174746572790000E6
:1076B0000000000000408F4073616D706C696E6760
:1076C0005F696E74657276616C00000000000000F6
:1076D00000003440616C61726D5F7468726573683C
:1076E0006F6C64006175746F5F7265706F727400A7
:1076F0004661696C656420746F206275696C6420F2
:107700004A534F4E20726573706F6E736520666FBB
:107710007220717565727920747970653A202564DC
:10772000000000001CB511489FED0F0A80ED000A13
:1077300080ED010AB3EE090A80ED020A9FED0C0A02
:1077400080ED030A50210174012141740948017040
:1077500009A0D721CDE900100E4B0FA215A10220E0
:10776000FDF704FB1CBD00000000000010320130DA
:10777000CDCC6C405B8E0030424C452050726F7413
:107780006F636F6C20696E697469616C697A656496
:1077900000000000FA7301012E2E5C5372635C75C9
:1077A0007365725C626C655F70726F746F636F6C2F
:1077B0002E6300004E4F5F54414700002DE9F04317
:1077C00095B00446002C50D000F03EFE81465FEAA2
:1077D00009004DD06068FBF75FF9074688462068CE
:1077E000FBF75AF98DE883012DA220210DA8FBF7A4
:1077F000D1FEE068FBF750F9227C8DE807002DA24E
:10780000202105A8FBF7C6FE0DAA2DA1484600F0D1
:10781000B3FD94ED020ABDEEC00A10EE100AFBF7AC
:10782000C3F841EC100B2AA1484600F08DFD05AAD3
:107830002AA1484600F0A0FD4A460021692000F038
:10784000FDFC0446002C1FD0204600F09BF820468B
:10785000FCF724F825A040F26311CDE90010284B75
:1078600028A22FA10220FDF781FA15B0BDE8F08310
:107870002DA04FF4A571CDE90010214B21A228A124
:107880000020FDF773FAF0E732A040F26711CDE96E
:1078900000101B4B1BA222A10020FDF767FAE4E7B2
:1078A000252E32662525766F6C2C252E31662525F2
:1078B0004C454C00252E3166562C256425250000AC
:1078C00073656E736F725F6D657468616E650000DD
:1078D00073656E736F725F54454D500073656E73C0
:1078E0006F725F62617474657279000044617461E3
:1078F000207265706F72742073656E7400000000F2
:10790000407401012E2E5C5372635C757365725C6A
:10791000626C655F70726F746F636F6C2E630000D2
:107920004E4F5F54414700004661696C65642074A6
:107930006F20637265617465204A534F4E20626FF9
:10794000647920666F722064617461207265706F63
:10795000727400004661696C656420746F20627502
:10796000696C64204A534F4E20726573706F6E735A
:107970006520666F722064617461207265706F7239
:10798000740000003EB50546002D15D02846FAF7D4
:10799000DBFB84B222462946002004F0F7FE60B1EA
:1079A0000CA140F29D12CDE900210290144B15A2CA
:1079B0001BA10120FDF7DAF93EBD1BA0CDE90104B2
:1079C00040F2A11100910E4B0EA215A10220FDF76D
:1079D000CDF93EBD4661696C656420746F207365A6
:1079E0006E64204A534F4E20726573706F6E7365DC
:1079F0002C206572726F723A203078253032580030
:107A00007B7401012E2E5C5372635C757365725C2E
:107A1000626C655F70726F746F636F6C2E630000D1
:107A20004E4F5F54414700004A534F4E20726573DA
:107A3000706F6E73652073656E742C206C656E6755
:107A400074683A202564000010B509F0A5FA09F021
:107A50009DFF09F0B7FE03F05BF8BDE8104003F0AE
:107A600031B9000070B5C0B0F8203F9040F28C41B1
:107A70003348FAF75EFB69F4FFD20020304CFF2157
:107A8000C0EBC00204EB82021172401CC0B2052898
:107A9000F6D3002004EB001282F8B010401CC0B2F4
:107AA0000528F7D384F8981084F8A41084F894106B
:107AB00084F80011234800260670234806702348E6
:107AC00000688047608840F00200608001AA3FA9FA
:107AD0000220FFF783FB1E4D48B31E48FAF734FB24
