:020000040100F9
:1020000000000430592000016735000101418000C3
:1020100065350001613500016936000100000000EE
:1020200000000000000000000000000015418000DA
:1020300063350001000000009D350001A33500015B
:10204000DFF810D001F016F800F0E6FB004800477A
:102050008D6C0101000004300148804701480047B1
:1020600039360001996D01012DE9F05F0546002028
:1020700092469B4688460646814640241BE02846F9
:1020800041464746224600F050FE53465A46C01A83
:10209000914110D311461846224600F037FE2D1A02
:1020A00067EB01084F4622460120002100F02EFE7A
:1020B00017EB00094E41201EA4F10104DFDC484665
:1020C00031462A464346BDE8F09FA0F14101192957
:1020D00000D82030704700000649074A086850437E
:1020E00043F2390210440860400870470149086013
:1020F00070470000D49700306D4EC64140EA01039E
:102100009B0703D009E008C9121F08C0042AFAD2AD
:1021100003E011F8013B00F8013B521EF9D2704771
:10212000D2B201E000F8012B491EFBD27047002219
:10213000F6E710B513460A4604461946FFF7F0FFC6
:10214000204610BD421E12F8013F002BFBD111F8B2
:10215000013B02F8013B002BF9D1704710B5044652
:1021600004E00B7800F8013B03B1491C521EF8D281
:10217000204610BD421C10F8011B0029FBD1801A1B
:10218000704710B5002200E0521C835C8C5CA342B7
:1021900001D1002BF8D1D8B2E1B2401A10BD30B550
:1021A00004460020034600E05B1C934203D2E05C3F
:1021B000CD5C401BF8D030BD034611F8012B00F870
:1021C000012B002AF9D11846704730B5054600208A
:1021D000034600E05B1C934205D2EC5CC85C201A0D
:1021E00001D1002CF6D130BD0EB540F2334202923F
:1021F0000022CDE90022134600F090FE03B000BD9E
:1022000058585247010000001555000000200001F9
:10221000002000016EED52490101000000000000A5
:1022200000000000000000000000000000000000AE
:10223000000000000000000000000000000000009E
:1022400043F6512CC3F2000C604743F2196CC3F201
:10225000000C60470FB400B58DB010A909900B9029
:1022600000914FF0FF300A9000200C900548069036
:10227000054807906A4609A80F9900F08DFD0DB03A
:102280005DF814FBB52D0001D32D00012DE9FF5F92
:102290001D464FF0FF3BD5E9014691465F464FF0A2
:1022A0000008A9697F1C01988847296A82468847E7
:1022B0000028F6D1BAF1FF3F0CD024F4C064002E00
:1022C00019DD600614D5BAF12B0F09D0BAF12D0F24
:1022D0000ED103E0584604B0BDE8F09F44F480649A
:1022E000A9697F1C01988847761E8246002E02DD70
:1022F000BAF1300F03D0B9F1000F26D032E0A9694E
:10230000761E44F400747F1C019888478246002E94
:1023100005DDBAF1780F06D0BAF1580F03D0B9F144
:10232000000F10D01EE0B9F1000F02D0B9F1100F6C
:1023300018D1A969761E24F400747F1C019888477F
:102340008246102002E0082000E00A20814609E0D1
:1023500008FB0908A969761E44F400747F1C0198E3
:1023600088478246002E05DD4946504600F0FFFCB6
:102370000028EDDAE96901988847A00502D46FF0DA
:102380000100A8E7E00725D1600613D5600502D556
:10239000C8F1000000E0404629680A1D2A6009686B
:1023A000220501D5087015E0220701D5088011E04B
:1023B00008600FE02868011D29600068210502D52A
:1023C00080F8008006E0210702D5A0F8008001E037
:1023D000C0F8008038467EE72DE9FF5FD2E901A70B
:1023E0004FF00008916999461446DDF838B046462A
:1023F00001988847054659EA0B0005D009E0A16914
:10240000761C019888470546216A28468847002897
:10241000F5D1681C03D05FEACA7005D015E04FF013
:10242000FF3004B0BDE8F09F2068011D2160D0F8A6
:1024300000800AE05FEACA7001D108F8015BA16977
:10244000761C7F1E019888470546002F1ADD681C00
:1024500018D0B9F1000F0DD0E81705EBD06042118C
:1024600020F01F0059F822102A1A01209040014242
:10247000E0D107E0BBF1000FDCD1216A2846884794
:102480000028D7D0E16901988847BBF1000F07D138
:10249000002E05DD5FEACA7002D1002188F8001025
:1024A000A068B84203DDBBF1000F03D017B16FF095
:1024B0000100B6E73046B4E72DE9FF4F087883B056
:1024C0009946FF2805D0491C2D2804D0002400205F
:1024D00008E000200BE00124F9E700EB800003EBAB
:1024E0004000491C0B78FF2BF7D104B14042002378
:1024F0000293147819461D462D2C01D02B2C04D1A3
:10250000521C2D2C13D000240294AA461478FF2CC0
:102510000FD00A25A3FB057801FB05814FF0000CC5
:1025200003FB0C11521CE3194AEB0101EEE70124F5
:10253000EAE7814453EA010002D019F5C87F06DAC0
:1025400003980021C0E9001107B0BDE8F08F002515
:10255000AE4E2F46DFF8B8821846FFF745FECDE9AC
:102560000001B9F1000002DAC9F1000400E00446FC
:102570000023A74A1AEB030B42EB045A12E0E007D0
:1025800007D02A4633463846414600F0FCF9074654
:1025900088462A4633461046194600F0F4F90546A7
:1025A0000E466410002CEAD1DDE90001B9F1000FFC
:1025B0005A46534606DA00F058FA3A46434600F0C7
:1025C00054FA05E000F0DFF93A46434600F0DBF943
:1025D000029A0AB181F00041039AC2E90001B3E70F
:1025E0002DE9FF4F1F468DB0D7E901464FF0FF3868
:1025F0002E2045464FF000090B90B9696D1C0E98CE
:102600008847396A824688470028F6D1BAF1FF3FE9
:102610000AD024F4D064002E11DDBAF12B0F08D0BB
:10262000BAF12D0F0BD102E0404611B08DE744F412
:102630008064B9696D1C0E9888478246761E69468B
:10264000600501D52D2000E02B208DF8000001F160
:10265000010B0DF1200809E0B9696D1C0E9888473F
:1026600082460F9844F40074761E0560002E02DD49
:10267000BAF1300FF0D00B998A453ED144F0800476
:1026800006E00F99681CA9F1010944F40074086080
:10269000B9696D1C761E0E98884782463028F0D0A6
:1026A0002BE00B998A4505D1200603D444F0800421
:1026B000761E18E0504601F0E7FE08B30DF1130155
:1026C000761E44F400748B4508D2AAF130000BF852
:1026D000010B200607D5A9F1010003E0200602D472
:1026E00009F101008146A00502D50F99681C086018
:1026F000B9696D1C0E9888478246002ED1DC53E0E4
:10270000002E51DDBAF1650F02D0BAF1450F4BD161
:10271000A00549D5B9696D1C24F44074761E0E9845
:1027200088478246002E0CDD2B2804D0BAF12D0FED
:1027300007D144F48074B9696D1C0E9888478246AD
:10274000761EE00501D52D2100E02B2108F8011BA4
:10275000CDF82C8021E00DF12901761E44F400749F
:1027600088450CD2AAF1300010F0FF0088F8000074
:1027700002D10B99884509D908F1010806E0E00566
:1027800001D5244801E042F20F708146B9696D1C01
:102790000E98884782460F980560002E04DD50464B
:1027A00001F072FE0028D6D1F9690E988847FF2003
:1027B0008BF8000088F800000020069007904B4638
:1027C0006A4608A906A8FFF777FEA00502D46FF0B5
:1027D00001002AE714F0240F0AD0E00714D1DDE944
:1027E00006123868031D3B600068C0E900120BE068
:1027F000DDE9060100F058FA0146E00704D1386827
:10280000021D3A600068016028460EE7000014408F
:102810000000F03FF1D8FFFF70B5054C054D03E017
:10282000206820448047241DAC42F9D170BD0000CF
:10283000D4060201D80602012DE9FE4F804681EA46
:102840000300C00F0C46009021F0004123F000452A
:10285000B8EB0200A94105D24046214690461C46ED
:102860000B46024623F00040104347D0270DC7F324
:102870000A00C3F30A510290401A019040286BDA13
:10288000C3F3130040F4801B0098924620B100234C
:10289000D2EB030A63EB0B0B01985946C0F14002DF
:1028A000504600F033FA06460D4650465946019A06
:1028B00000F04BFA10EB08006141002487EA115246
:1028C00084EAE7731A4340D0009A62B3019A012A5E
:1028D0004FEA075215DC001B61EB02014FF000428A
:1028E00002EA0752CDE90042001C41F58011324650
:1028F0002B4600F013FB03B0BDE8F08F40462146A5
:10290000F9E7001B61EB0201001C41F58013001880
:102910005B412018A2F5001747EB030140EAD57090
:10292000B6196D4111E06D084FEA360645EAC075EB
:102930004FEA0752001B61EB0201001C41F58011B8
:1029400049084FEA30000019514132462B4603B086
:10295000BDE8F04F00F0D3BA0098012240000023F8
:10296000D0EB020263EBE073009821464FEAE0747B
:10297000B8EB000061EB0401E9E783F000435BE79B
:1029800081F0004158E72DE9FE4F81EA030404F08D
:10299000004421F0004100944FF0000B23F000436D
:1029A00050EA01045ED052EA03045BD0C3F30A5438
:1029B000C1F30A552C44A4F2F3340194A0FB025451
:1029C000C1F3130141F48011C3F3130343F48013E3
:1029D00001FB024400FB034E840A970A44EA815437
:1029E00047EA8357A4FB076802958D0A05FB078514
:1029F0004FEA932C04FB0C542705029D4FEA06581E
:102A000047EA1637B5EB08056EEB070C870E920EFA
:102A100047EA811742EA8312A7FB0201B6EB0B01DA
:102A200064EB00042B0D43EA0C335E1844EB1C509E
:102A3000DA465146E7FB0201C5F313044FEA0B33B4
:102A400043EA14534FEA0432019C43EA0603A4F11B
:102A50000C040294009CCDE900B400F05FFA03B0CE
:102A6000BDE8F08F00200146F9E72DE9F04D81EA3D
:102A7000030404F0004B21F0004514464FF0000A17
:102A800023F0004150EA050220D054EA01021DD093
:102A9000C5F30A570246C5F31303C1F31300C1F38C
:102AA0000A5640F4801543F48013A7EB0608101B68
:102AB000D64608F2FD3873EB050002D308F1010891
:102AC00001E092185B41B8F1000F03DA00200146E3
:102AD000BDE8F08D00204FF48011064684460EE0DC
:102AE000171B73EB050705D3121B63EB05030643A6
:102AF0004CEA010C49084FEA300092185B4150EA59
:102B00000107EDD152EA030012D082EA040083EA01
:102B10000501084305D0101BAB4106D2012200235A
:102B200006E000224FF0004302E06FF00102531074
:102B30001AEB06004CEB085110EB0A0041EB0B01BD
:102B4000BDE8F04D00F0DBB90EB5C10F80EAE070D2
:102B50000844CA07002140F233438DE80E000A46BC
:102B60000B4600F0DBF903B000BD0EB540F2334177
:102B700002910021CDE900110A460B4600F0CEF982
:102B800003B000BD20F00040C20DC0F3160040F4B9
:102B900000007F2A02DA0020014670470021962AB1
:102BA00003DCC2F19602D0407047963A00F0AEB80E
:102BB00070B5C1F30A5201F000450024C1F31301BE
:102BC00040F2FF3341F480119A4201DA002070BDD7
:102BD00040F233439A42A2F2334203DC524200F005
:102BE000A4F800E090402C43F1D0404270BDC1F306
:102BF0000A5210B5C1F3130140F2FF3341F48011C2
:102C00009A4201DA002010BD40F233439A42A2F208
:102C1000334203DC524200F088F810BD904010BDF2
:102C200000F0004230F000400AD0C10D01F56071A3
:102C3000C0F3160042EA0151C20840071143704731
:102C4000002001467047000030B5041E71F10004F9
:102C500004DB4FF00044404264EB0101141E73F1A9
:102C6000000405DB1C464FF00043524263EB0403B3
:102C70008B4208BF824230BD30B5041E71F10004A2
:102C800004DB4FF00044404264EB0101141E73F179
:102C9000000405DB1C464FF00043524263EB040383
:102CA000994208BF904230BD01F0004330B421F09A
:102CB000004150EA010206D00A0DA2F56072C1F38C
:102CC0001301002A02DC30BC00207047440F44EAA4
:102CD000C104C100E01830BC00EBC25000F0D8B80D
:102CE00030B50B46014600202022012409E021FADC
:102CF00002F59D4205D303FA02F5491B04FA02F5D9
:102D00002844151EA2F10102F1DC30BD202A04DBAB
:102D1000203A00FA02F1002070479140C2F12003EE
:102D200020FA03F3194390407047202A04DB203A2D
:102D300021FA02F00021704721FA02F3D040C2F1DB
:102D400020029140084319467047202A06DBCB1722
:102D5000203A41FA02F043EAE07306E041FA02F356
:102D6000D040C2F1200291400843194670473A28EA
:102D700000D2303820F02002412A01D3A2F13700DE
:102D8000884201D34FF0FF307047000002681144C1
:102D90001378016018467047D160044951610449B5
:102DA000116200211161114600F084B98D2D0001DE
:102DB000A1300001426842B1016811F8013B23B122
:102DC000521EC0E90012184670470121C160881EDA
:102DD000704742685AB1C368016843B983688B423F
:102DE00005D0491E521CC0E90012002070474FF068
:102DF000FF3070470FB4002300B589B00CA90091D3
:102E00000B996FF00042CB601E4B06931E4B07934D
:102E10000423CDE901321D4A089202466B46002088
:102E2000FFF7DEFB09B05DF814FB70B586B006460F
:102E30004FF0FF300091CDE90101002015460C460E
:102E400004903246694604A8FFF7D4FF024604986E
:102E5000211825B108B1084600E0204628600498F2
:102E600000280DD0002A02DD0098884208D0081BF7
:102E70000094CDE901043246694604A8FFF7BAFF81
:102E800006B070BDB52D0001D32D0001A1300001A9
:102E90000029A8BF7047401C490008BF20F001006E
:102EA000704710B4B0FA80FC00FA0CF050EA01044C
:102EB00004BF10BC704749B1CCF1200421FA04F4DE
:102EC00011FA0CF118BF012121430843A3EB0C01B7
:102ED000CB1D4FEA00614FEA102042BF002010BC1A
:102EE000704700EBC35010440029A4BF10BC7047CA
:102EF000401C490008BF20F0010010BC704710B50D
:102F0000141E73F1000408DA401C41F1000192180C
:102F10005B411A4301D120F0010010BD2DE9F04DB5
:102F200092469B4611B1B1FA81F202E0B0FA80F20A
:102F300020329046FFF7EAFE04460F4640EA0A00B8
:102F400041EA0B0153465A46084313D0114653EA4F
:102F5000010019D0C8F140025046FFF7E6FE0546D1
:102F60000E46504659464246FFF7D0FE084305D06C
:102F7000012004E020463946BDE8F08D00200543DD
:102F800046EAE0762C4337430A986305E40AA0EB4F
:102F900008000022FD0A44EA47540A3002D5002006
:102FA0000146E9E7010510196941DDE90845001905
:102FB0006941BDE8F04DA2E72DE9F041054621F059
:102FC00000400C46284309D0C4F30A5040F2334174
:102FD000884205DD28462146BDE8F0812846FBE70A
:102FE00040F2FE31884210DC0CDB4FEA043040EA4C
:102FF000155050EA053105D0104804F00041014356
:103000000020E9E700200146E6E7A0F2334046420F
:10301000C6F1400228462146FFF778FE074688465B
:10302000284621463246FFF780FE43463A46FFF7E0
:1030300066FF3246BDE8F041FFF768BE0000F03F92
:10304000C1F30A52C1F3130140F2FF3341F480117E
:103050009A4202DA00200146704740F233439A4216
:10306000A2F2334202DC5242FFF75FBEFFF74EBED0
:1030700000207047064C074D06E0E06840F0010371
:1030800094E8070098471034AC42F6D3FEF7DCFF13
:1030900084060201D40602010048704718F60101B7
:1030A00010B50446FFF7F8FF0068005D00F001006E
:1030B00010BD00002DE9F34F8BB04FF0000801F177
:1030C0000C000C464FF0010B46460DF1080A01902A
:1030D0006269012101989047051E2DD0252D2CD025
:1030E000216A8847C0B16269012101989047216A2D
:1030F00088470028F7D1411E62690198904700E097
:10310000761CA1690B988847216A88470028F7D167
:10311000E1690B988847DBE7A1690B988847074668
:10312000A84201D1761CD3E7E1690B9888477F1C40
:1031300002D1B8F1000F6FD046E1002762693D4629
:103140003946019890472A2804D1626901210198E3
:1031500090470125DFF88492626901210198904728
:10316000A0F130010A290AD24F45E5DC07EB8701BF
:1031700000EB4107303FDFD445F01005ECE7E906EE
:1031800001D46FF000476C280AD04C2814D068286E
:1031900015D06A280DD074281CD07A281AD01DE0CA
:1031A00062690121019890476C2802D045F004051E
:1031B00014E045F002050DE045F020050AE06269E3
:1031C000012101989047682802D045F0080505E0E4
:1031D00045F400656269012101989047C4E90157EF
:1031E00065283DD019DC58287AD00CDC452837D02A
:1031F00004DC252826D0412831D131E046282FD0C3
:1032000047282CD12CE05B2877D0612828D0632870
:103210007CD0642823D15AE0D0E06F2848D008DC65
:1032200066281DD067281BD0692821D06E2816D1AA
:1032300027E0702845D0732868D0752847D07828B3
:103240000DD14DE0A1690B988847054625283FF42C
:1032500069AFE1690B9888476D1C3FF46AAFB3E032
:1032600023466A466FF001000B99FFF7B9F99EE01B
:1032700045F040006060A80723464FF0000236D4B6
:103280003EE0E8077FF447AF2068011D2160006839
:10329000290501D506701BE7290701D5068017E728
:1032A000A90703D5F117C0E9006111E706600FE730
:1032B00045F040006060A80723464FF0080216D48E
:1032C0001EE040F60E0125EA0100606016E045F0C0
:1032D00040006060A80723464FF00A0207D40FE0C1
:1032E00045F040006060A80708D5234610226FF023
:1032F00001000B99AFF3008059E007E0234610224C
:103300006FF001000B99FEF7C1FF50E04FF000098C
:103310004F464B46632802D05B2806D040E0E806C3
:1033200001D40120A06001273AE0626901210198DF
:1033300090475E2805D14FF001096269494601981E
:103340009047216939B900210A46534643F82120A4
:10335000491C0829FADBB0B3216969B9C11700EB30
:10336000D16253110AEB830122F01F02821A01205D
:103370000B68904003430B606269012101989047FC
:103380005D28E8D1B9F1000F09D00020514651F86D
:103390002020D24341F82020401C0828F7DB02AB54
:1033A000224600976FF001000B99FFF715F80028EF
:1033B0000CDA401C08D1BBF1000F05D04FF0FF30F4
:1033C0000DB0BDE8F08FFFE74046F9E7E90701D10E
:1033D00008F1010806444FF0000B79E6CCCCCC0C88
:1033E00070B58C1810F8015B15F0070301D110F8C7
:1033F000013B2A1106D110F8012B03E010F8016BF4
:1034000001F8016B5B1EF9D12B0705D40023521E76
:103410000DD401F8013BFAE710F8013BCB1A921CDE
:1034200003E013F8015B01F8015B521EF9D5A142DC
:10343000D8D3002070BD000002480068001D05F4CC
:103440005FB100003091003010B51E4800680028C0
:1034500000D080471C4800210170881E1B4908606D
:10346000192000F0A1F91A4CD4F8C002800704D446
:10347000F42218A11CA005F445F12A480168D4F8EB
:10348000C40261F31D3040F00100C4F8C40204F42A
:1034900053F200214FF03040C1608161C11741619A
:1034A000016204F405F209484038016821F4800102
:1034B00001601D480068002802D0BDE810400047A8
:1034C00010BD000060248000E096003044C500A0DC
:1034D00000E000A0727769705F736C6565705F6370
:1034E0006F6D6D6F6E2E63004D43555F5355422DCA
:1034F0003E424C455F44534C4545505F434F52520A
:103500005F454E2026204D43555F5355425F424C48
:10351000455F44534C4545505F434F52525F4857B7
:103520005F454E00542480006424800010B50021C3
:103530004FF03040C1608161C117416101620220DA
:1035400000F05DF9BDE81040012000F058B910B559
:10355000012000F029F9BDE81040012000F04FB92A
:10356000FEE7FEE7FEE7FEE730B500F00703C3F134
:103570000704082C00D9082403F10800072801D209
:10358000002300E05B1C012505FA04F0401E084002
:1035900098409D406D1E1540284330BDFEE705F460
:1035A000B3B0FEE70249096801F0070101707047F6
:1035B00004C500A030B4062821D212490A6802F0DE
:1035C0000702824212D00A680F4B1A400F4C224366
:1035D0000A6000BF00BF00BF00BF0A681A400C4B62
:1035E000024333F8203042EA83420A60084918391E
:1035F00051F820000749886030BC75F4FB9430BC5A
:103600007047000004C500A0F8FFE3FF05000800B4
:1036100064E401010089003004480068044900F0B6
:10362000070051F8200003498860704704C500A0D6
:103630004CE40101008900300248016841F4700146
:103640000160704788ED00E002480068001D1EF42C
:1036500003900000D08A003002484068001D1DF42D
:10366000FB970000D08A0030FEE700000FB4054B46
:1036700010B503A9044A029800F00EFF10BC5DF8D3
:1036800014FB000069D10001FC8A00300FB41CB5A6
:103690000246002007AC00290BD0491ECDE90021CD
:1036A000054B6A462146069800F0F6FE009A002176
:1036B00011701CBC5DF814FBC74B00010FB4084B24
:1036C00010B504A902AA039800F0E6FE044602A978
:1036D000002001F083FA204610BC5DF814FB0000C6
:1036E000DD4B00017CB5044600201D46164600292E
:1036F0000BD0491ECDE90041044B6A4629463046AD
:1037000000F0CAFE009A002111707CBDC74B000179
:1037100037B514460846064B6A46214600F0BCFE03
:1037200004466946002001F059FA20463EBD0000DB
:10373000DD4B00014100080218BF04200A0E18BF2B
:1037400040F001004FF07F4232EA010108BF40F033
:103750000200012808BF05207047002809DB00F09F
:103760001F02012191404009800000F1E020C0F8D3
:1037700080127047002809DB00F01F0201219140F0
:103780004009800000F1E020C0F880127047002856
:1037900009DB00F01F02012191404009800000F187
:1037A000E020C0F880127047002809DB00F01F02FB
:1037B000012191404009800000F1E020C0F8801212
:1037C0007047002809DB00F01F02012191404009E9
:1037D000800000F1E020C0F88012704700280DDB67
:1037E00000F01F02012191404009800000F1E0201B
:1037F000C0F88011BFF34F8FBFF36F8F7047002861
:103800000DDB00F01F02012191404009800000F112
:10381000E020C0F88011BFF34F8FBFF36F8F704768
:10382000002809DB00F01F020121914040098000BF
:1038300000F1E020C0F800117047002809DB00F01B
:103840001F02012191404009800000F1E020C0F8F2
:103850000011704700280FDB4109890001F1E021C8
:10386000D1F8001200F01F0201209040014201D067
:1038700001207047002070470020704700280FDBB0
:103880004109890001F1E021D1F8001200F01F0286
:1038900001209040014201D0012070470020704774
:1038A0000020704700280FDB4109890001F1E02169
:1038B000D1F8001200F01F0201209040014201D017
:1038C000012070470020704700207047002804DB6B
:1038D00000F1E02090F80004704700F00F0000F1C4
:1038E000E02090F8140D7047002804DB00F1E02080
:1038F00090F80004704700F00F0000F1E02090F80D
:10390000140D7047002804DB00F1E02090F800045B
:10391000704700F00F0000F1E02090F8140D7047A0
:1039200002480068C0F30220704700000CED00E080
:1039300002480068C0F30220704700000CED00E070
:1039400002480068C0F30220704700000CED00E060
:10395000002809DB00F01F0201219140400980008E
:1039600000F1E020C0F800127047002809DB00F0E9
:103970001F02012191404009800000F1E020C0F8C1
:1039800000127047C9B2002804DB00F1E02080F883
:103990000014704700F00F0000F1E02080F8141DC3
:1039A0007047000030B528B1144C031F0020216877
:1039B0000A4605E0084630BD9A4203D810465268D0
:1039C000002AF9D1002800D041680BD00468A3EB8D
:1039D0000005A54204D11B681C440346046002E0B4
:1039E000436000E023603AB11C68D51AA54203D1B8
:1039F00015682C441C6052685A6030BDD89700305E
:103A0000EFF310807047000030B583B0044600F03B
:103A100025FC9FED090B05468DED000B002221468C
:103A20006846FFF702FA284600F066FC9DED000BA1
:103A300003B030BD000000000000000000000000E6
:103A40002DED020B019820F0004001909DED000B40
:103A500002B0704710B510EE100A2DED068BB7EED0
:103A6000001A10EE901AB0EE418A0022A0F5000C68
:103A7000DFEDFE9A4FF00073BCF1FE4F4FF07F4434
:103A800003EB410C80F0B481BCF1804FC0F0208288
:103A9000F74901449FEDF73AB1F5005F40F2D48257
:103AA00000F58021CB0C03F00F0101EE901AC3F357
:103AB00007137F3BA0EBC350B8EEE12A00EE100ADB
:103AC0001A44DFEDED2AF0EE411A42EE221AF0EE32
:103AD000613A70EE232A30EE632A12EE900A00F566
:103AE00000606FF30B0001EE900A73EEE13A33EEE3
:103AF000804AC1EE223A22EE230A10EE100A00F5A7
:103B000000606FF30B0000EE100A00EE612A00EE79
:103B1000442A62EE232A70EE221A21EEA12ADFED5A
:103B2000D73A02EE233A23EE023A20EE012A22EEA1
:103B3000811A03EE211A32EE010A10EE100A00F586
:103B400000606FF30B0000EE100A72EE401A31EEC7
:103B5000812A9FEDCB1A60EE011A9FEDCA1A20EE62
:103B6000011A9FEDC90A02EE001A31EE810A10EE29
:103B7000100A00F500606FF30B0000EE100AC34856
:103B800071EEC01A31EE812A784400EBC10090ED4D
:103B9000003AD0ED011A100101EE100AF8EEC12A28
:103BA00032EE211A31EE001A31EE031A31EE221AEA
:103BB00011EE100A00F500606FF30B0009EE100A19
:103BC00039EE621A31EE431A31EE400A30EE610AE4
:103BD00032EE40AA10EE900A002100F500606FF36B
:103BE0000B0008EE900A084670EEE8AAFFF740FACC
:103BF00029EE280A00F00C01F0EEC00A10EE900A3F
:103C0000B0F18B4F0DDD10EE900AB4EB400F08D3EE
:103C100010EE100A4FF08B4262F31E0008EE900A7D
:103C200013E069EE2A0A38EEAA1A4AEE010A30EECB
:103C3000201A11EE100A00F500606FF30B0008EE79
:103C4000900A30EE680A70EE209A0C20FFF710FA06
:103C500038EEA90AB5EEC00AF1EE10FA34BFFEEE56
:103C6000000AF6EE000A30EE800ABDEEC00A10EE41
:103C7000100A011100EE101AF8EEC00A00EE100A48
:103C8000B8EEC00A38EEC00A30EE290ADFED801A1D
:103C90009FED801A00EE211ADFED7F1A7F4900F0B8
:103CA0000F0040EE011A21EE800A794401EB8001F9
:103CB00091ED001A7A49794401EB8001D1ED001AA7
:103CC000784901EE801A794401EB8000764990ED45
:103CD000000A31EE001AB0EEE00A10EE100A884237
:103CE00015DA10EE100AB4EB400F10D39FED6F0AF7
:103CF00030EE800ADFED6E0A20EE200A68EE010A3F
:103D0000BDEC068BBCEEC00A20EE200A10BD10EE02
:103D1000100A6849884243DA10EE100AB4EB400FEB
:103D20003ED3BDEEE00A68EE010A10EE100A00EB89
:103D3000D0725110C90501F17E5100EE101AA0EBAE
:103D40006200C00560EE200A00F17E5000EE100A0D
:103D500060EE808A18EE900AB4EB400F0FD102207B
:103D600000F0CAFA00F06AFA10EE101A18EE100A03
:103D7000BDEC068B61F31E0000EE100A10BD18EEBC
:103D8000900A400011D018EE900AFFF7D3FC0428E7
:103D900008BF00F05BFAB0EE680ABDEC068B10BD00
:103DA000F5EEC00AF1EE10FA0FD2022000F0A4FAEC
:103DB00000F04CFA10EE101A18EE100ABDEC068B4B
:103DC00061F31E0000EE100A10BD022000F094FA0C
:103DD00000F034FA10EE101AB0EE480A10EE100A95
:103DE000BDEC068B61F31E0000EE100A10BD00BF93
:103DF000BCF1804F6CD300BF00F1FF43B3F1FE4F25
:103E000024D200BFB0EEC00A10EE100AC1F3C753AF
:103E10007F2B0DDB972BBFF63BAEC3F196034FF024
:103E2000010C0CFA03F3A3F1010C1CEA010F08D0FA
:103E3000012000F061FABDEC068BBDE8104000F0F7
:103E4000F5B90B4218BFBFEE008A21E643001CBF44
:103E50004FF08073B3EB400F34D96FF01A02DFEDEF
:103E6000161A20EE210A10EE100A27E000000000CA
:103E7000001080C0ABAAAA3E0000803D7EE24C3E0E
:103E800000B03842D49AB8BB3BAA3842C8B8010047
:103E9000FC596337C9FF753A1872313D66B80100A5
:103EA0009AB801000AB801000000FC420000FE427E
:103EB0000000004B000040430000004D10F0004F98
:103EC000A0D1E5E5A0F50003B3F1FE4F21D2DFE577
:103ED00003EB4103B3F1007F11D3F5EEC00AF1EE1D
:103EE00010FA05D1430018BFB4EB400F76D883E732
:103EF00001F0004141F0FC5100EE901A7CE7B3F173
:103F0000807F06D210EE903AA3F5000300EE903ABF
:103F100072E720F000426FF0FF4C604C02EB0C03A4
:103F2000A34210D321F000439C44A4450BD3B0F12D
:103F30007E5F18BF5FEA410C50D0B2F1FF4F98BFCF
:103F4000B3F1FF4F05D9BDEC068BBDE8104000F082
:103F500069B9B0F1FF4F0FD0C1F3C7527F2A09DB17
:103F6000972A11DAC2F19602012303FA02F2531ED4
:103F70000B4205D0002208E011F0004F55D128E097
:103F80000A4218BF012200D1022210F5000F13D0FF
:103F900028B3B0F1004F26D010F1814F4FD04FF031
:103FA000FE42B2EB400F94BF01200020012202EB41
:103FB000E171884239D10CE011F0004F02D0012AA2
:103FC00038D032E0012A02BF9FED350ABDEC068BE6
:103FD00010BD9FED340ABDEC068B10BD2FE011F033
:103FE000004F0CD121E0B1F1FF4F1ED011F5000FB1
:103FF00005D011F0004F15D00AB1012A08D00220D7
:1040000000F07AF9BDEC068BBDE8104000F000B975
:10401000022000F071F900F0FBF8BDEC068BB1EE68
:10402000400A10BD0AB1012A04D0B0EE690ABDEC05
:10403000068B10BDBDEC068B9FED1B0A10BDBDECC1
:10404000068BB7EE000A10BD30EE410AB5EE001A3D
:104050009FED172A00EE413AB6EE001A60EE001A04
:1040600000EE431A61EEC11A9FED101A20EE011AFC
:1040700020EE020A9FED0F2A01EE820A71EE001A6D
:1040800011EE900A00F500606FF30B0009EE100AC4
:1040900031EE491A31EE00AA9CE50000FFFF3F0017
:1040A000000080FF0000807F0000008000B0B84169
:1040B000D49A38BB3BAAB84110B52DED020B2DEDBB
:1040C000088B84B09DED0C0B51EC100BFEF774FFC8
:1040D00041EC180B9DED0C0B53EC182B51EC100B15
:1040E000FEF74BFC41EC190B0D989FED290B10F0DE
:1040F000004F53EC102B51EC190B9FED21AB9FEDB2
:1041000022BB0ED0FEF7A0FD0ED953EC1B2B51ECB9
:10411000190BFEF7B1FD1CD214E000BF41EC180BE7
:1041200017E0FEF791FD06D253EC1A2B51EC180B59
:10413000FEF723FCF2E753EC1B2B51EC190BFEF7B7
:104140009BFD06D853EC1A2B51EC180BFEF774FBB1
:10415000E4E78DED028B9DED0C0B18EE901A10EE3E
:10416000900A8DED000B61F31E0003909DED020B94
:1041700004B0BDEC088B02B010BD000000000000D0
:10418000000000000000F03F000000000000E03FE1
:10419000000000000000E0BF00B583B09FED060BFB
:1041A0000A4601468DED000B6846FEF73EFE9DED8A
:1041B000000B03B000BD0000000000000000000084
:1041C0002DE9F04782460F4C10480D4E0E4F001B54
:1041D0004FF0000820F007054FF0010900221146BA
:1041E00050460FF0F7F8002802D1306810B10020D7
:1041F000BDE8F0873C60C4E90058C6F80090EDE7E0
:10420000DC97003004B00330D897003000C0033092
:10421000DFED030AB7EE001A81EE200A70470000B6
:104220000000000030EE200A70470000DFED020AB7
:1042300080EEA00A70470000000000009FED020A17
:1042400020EE000A70470000000000709FED020A97
:1042500020EE000A704700000000001001480068CE
:1042600070470000E09700302DE9F04704008A46CF
:1042700016D054F8047CD4F800903E1F564500D95F
:1042800056462046FFF78EFB0546884632462146B5
:1042900050460FF09FF840B1C0F80090BDE8F0879D
:1042A000BDE8F0470846FFF78BBF44E9017955B1F7
:1042B00029686A18211F8A4202D9611B091F2960D7
:1042C000C5F80480EAE7024AC2F80080E6E7000089
:1042D000D897003002E008C8121F08C1002AFAD19E
:1042E00070477047002001E001C1121F002AFBD176
:1042F000704780F3108870470149086070470000DC
:10430000E09700302DE9FF5F82B00021DDE9043045
:10431000020DDDF840B0034318D044F61050A2F26D
:10432000FF3242431514119801281FD0A5EB0B0052
:10433000401C5FEA000A4FF000064E4FDFF838914C
:10434000B046504615D5CAF1000413E01198012477
:104350004AA3012801D16FEA0B010298119AC0E922
:104360000031C0E9024206B0BDE8F09FCBF1000089
:10437000DFE704460021404A491842EB0450CDE9EA
:10438000001012E0E00707D032463B46404649465F
:10439000FEF7F9FA8046894632463B4610461946F2
:1043A000FEF7F1FA06460F466410002CEAD1DDE96B
:1043B0000401DDE90023BAF1000F06DAFEF7E3FAA3
:1043C00042464B46FEF7DFFA05E0FEF74EFB42465B
:1043D0004B46FEF74AFB04460E460022284BFEF7EA
:1043E0004BFC03D84FF0FF30014607E00022254B7D
:1043F00020463146FEF720FAFEF722FE102409E09F
:10440000002C0ADB0A220023FDF72EFE039B30322C
:104410001A55641E50EA0102F2D1641C039AC4F1D9
:1044200011031444119A012A03D0012208430DD12B
:104430000AE0084304D000204FF0110B119072E7FE
:10444000A3EB0B056D1E0DE05B4504DD4FF0000294
:1044500005F1010504E003DA4FF00002A5F10105C2
:10446000002AECD002981199C0E90231C0E9004558
:1044700079E70000000014400000F03F3000000029
:104480000000F0430000E03F30380A2801D201204C
:1044900070470020704700002DE9FF4F95B09B4604
:1044A0008946064600250FE2252877D100242746B5
:1044B000F84A0121059400E0044316F8013F203B2F
:1044C00001FA03F01042F7D130782A2811D06FF0AA
:1044D0002F033078A0F13002092A16D8059A44F04B
:1044E000020402EB820203EB42021044761C0590A8
:1044F000EFE759F8042B0592002A03DA504244F4FE
:104500000054059044F00204761C30782E2816D111
:1045100016F8010F44F004042A280DD06FF02F0282
:104520003078A0F13003092B09D807EB870302EBA1
:104530004303C718761CF3E759F8047B761C3078E0
:104540006C280FD006DC4C2817D068280DD06A28BC
:1045500014D104E0742810D07A280FD10DE044F46F
:1045600000140AE044F4801401E044F4401472782A
:10457000824202D104F58014761C761C30786628BD
:104580000BD013DC582877D009DC002875D04528DB
:10459000F6D04628F4D047281AD19DE118E06328C8
:1045A00035D0642879D0652812D195E1702873D070
:1045B00008DC6728F1D069286FD06E280DD06F28ED
:1045C00006D1B5E073282CD0752875D0782874D022
:1045D0005A46179990476D1C75E1C4F302500228A2
:1045E00009D003280DD0D9F8001004280DD00D6093
:1045F00009F1040967E1D9F80010EA17C1E900528E
:10460000F6E7D9F800100D80F2E70D70F0E719F821
:10461000041B8DF8001000208DF80100EA460120EF
:1046200003E059F804AB4FF0FF3061074FF0000191
:1046300002D40DE008F101018846B9420FDA804545
:10464000F8DB1AF808100029F4D108E008F101019C
:1046500088468142FADB1AF808100029F6D105983D
:104660005B46A0EB080721463846179A00F094FAFB
:10467000284400EB080507E04DE029E10DE01AF8B9
:10468000010B5A4617999047B8F10108F7D25B46DB
:1046900021463846179A13E142E00A220092C4F3F9
:1046A00002524FF0000A022A08D059F804CB032A1C
:1046B0004FEAEC710AD00DE029E02AE009F1070188
:1046C00021F00702F2E802C1914609E00FFA8CFCE2
:1046D0004FEAEC71042A03D14FFA8CFC4FEAEC71DB
:1046E000002907DA0A460021DCF1000C61EB020127
:1046F0002D2202E0220504D52B228DF80420012270
:1047000003E0E20701D02022F7E7904659E00A21B2
:1047100002E010220DE010214FF0000A00910BE0A2
:1047200010224FF0000A44F004040827009203E02E
:1047300008224FF0000A0092C4F30252022A05D068
:1047400059F804CB0021032A08D009E009F1070138
:1047500021F00702F2E802C1914605E01FFA8CFC45
:10476000042A01D10CF0FF0C4FF00008220728D5D5
:10477000702806D0009B83F0100353EA0A0305D08B
:104780000EE040228DF80420012208E05CEA0102DC
:1047900006D030228DF804208DF8050002229046C4
:1047A000009B83F0080353EA0A030AD15CEA010282
:1047B00001D1620705D530228DF804204FF00108A1
:1047C0007F1E582804D034A003900EA802900DE05C
:1047D00036A0F9E753466046009AFDF745FC84464B
:1047E0000398825C0298401E029002705CEA01000D
:1047F000F0D1029806A9081A00F1200A600702D534
:1048000024F4803400E00127574502DDA7EB0A00BD
:1048100000E0002000EB0A01009005984144401A96
:104820000590E00306D45B462146179A059800F0F0
:10483000B3F90544002706E001A85A46C05D179960
:1048400090476D1C7F1C4745F6DBE0030CD55B46AB
:104850002146179A059800F09FF9054404E030209E
:104860005A46179990476D1C0099481E00900029E0
:10487000F5DC08E0029802995A460078491C02913A
:10488000179990476D1CBAF10001AAF1010AF1DCF9
:1048900065E1000009280100303132333435363704
:1048A000383961626364656600000000303132337C
:1048B000343536373839414243444546000000001C
:1048C00000F058F90544761C307800287FF4ECADF0
:1048D00019B02846BDE8F08F620700D4062709F119
:1048E000070222F0070CFCE80223E14603F000482F
:1048F0005FEA080C02D00FF2702C0DE05FEA045C56
:1049000002D50FF2682C07E05FEAC47C02D00FF2F8
:10491000602C01E0AFF2700C4FF0FF3823F0004341
:10492000CDF850C065280CD006DC452809D04628B3
:104930001DD047283DD13DE0662818D067287ED19C
:1049400038E00021112F01DB112000E0781CCDE9B7
:10495000000106A90EA8FFF7D5FCDDE90F010E9AAC
:1049600003910021009207F1010A04914DE04FF0FC
:1049700000400097CDE9011006A90EA8FFF7C2FC80
:10498000DDE90F0203920E9B11990022DDF80CA0C5
:104990000093049211B9791C00EB010AB7EB0A00ED
:1049A00004D4C0F1FF3007F1010A0490AAEB07001C
:1049B000019044E0012F00DA01270021112F01DDD1
:1049C000112000E03846CDE9000106A90EA8FFF746
:1049D00099FCDDE90F010E9A0391002104910092E8
:1049E000BA4621070CD40399514500DA8A46BAF138
:1049F000010F05DD009AAAF10101515C302908D0B0
:104A0000B84202DA10F1040F06DA0121CDE90110F3
:104A100015E0AAF10101E9E7002805DC0499014449
:104A20000491AAEB000102E0411C514500DD8A46D9
:104A30000499401A401C01904FF00040029020075A
:104A400004D40198504501DBCDF8048000208DF896
:104A50004F0002980DF14F07B0F1004F25D02B20E9
:104A60000E9002984FF0020800280CDA40420290A3
:104A70002D200E9007E00A210298FEF731F930311F
:104A8000029007F8011DB8F10001A8F10108F2DC5D
:104A900002980028EFD1791E0E980870307800F047
:104AA000200040F0450007F8020D12A8C01B00F1DD
:104AB00007081498007800B1012000EB0A01019862
:104AC00001EBE07105984144401A401E0590E00357
:104AD00006D45B462146179A059800F05DF8054418
:104AE0001498007818B15A46179990476D1CE00346
:104AF00024D55B462146179A059800F04DF80544E9
:104B00001CE00498002807DBDDE90301884203DD8F
:104B10000098405C179901E0179930205A46904759
:104B2000049805F10105401C04900198401E019075
:104B300004D12E205A46179990476D1CBAF10001F6
:104B4000AAF1010ADDDC05E017F8010B5A461799B6
:104B500090476D1CB8F10001A8F10108F4DC5B4638
:104B60002146179A0598ABE62D0000002B000000A7
:104B7000200000002DE9F041044600251E4617469E
:104B8000880404D405E039462020B0476D1C641E1B
:104B9000F9D52846BDE8F0812DE9F041044600250D
:104BA0001E469046C80301D5302700E02027880420
:104BB00004D505E041463846B0476D1C641EF9D562
:104BC0002846BDE8F0814A68002A06D00A68531CCE
:104BD0000B6010704868401E486070470A68531C9C
:104BE0000B6010707047000010B58CB004462C218B
:104BF00001A8FDF79CFAA069019016490198884226
:104C000002D0E4200CB010BD207F8DF808000E20EB
:104C100003904FF400100590C012069000200790FA
:104C200020210891042109910A900B90002101A8EC
:104C300000F00EFD084C21688887002801DAE42086
:104C4000E0E700F0F3FC21688862091DC1620020E2
:104C5000D8E70000003001A0C88A00300FB41CB5AE
:104C60000B9C1C49CA688968CDE9001208218DF89F
:104C7000041000218DF8051000280CD10698009032
:104C80009DF815008DF806009DF81400694600F0A7
:104C900013FE00281AD1089800909DF81D008DF889
:104CA00006009DF81C00694600F006FE00280DD1A4
:104CB000B4F1C05F0AD30A9800909DF825008DF8E2
:104CC00006009DF82400694600F0F6FD1CBC5DF866
:104CD00014FB000084E401012DE9F05F07468946DA
:104CE00093464FEA5B04A2464D465F4EDFF87C8157
:104CF000EFF31080012181F31088D8F8A41221F07D
:104D00002001C8F8A41280F31088EFF3108001216D
:104D100081F31088D8F8A01221F02001C8F8A01261
:104D200080F31088306820F0804030605048306058
:104D30003F20D8F8001160F30501C8F80011306871
:104D400020F4601040EAC7403060306820F4E02072
:104D500040EA07403060052F03D1306840F400403E
:104D60003060062F03D1306840F4804030603068F6
:104D700040F400503060306820F06050306030689F
:104D800020F00F0040F003003060EFF310800121AD
:104D900081F31088344A3832116821F0E04141F043
:104DA0008041116080F31088306840F080403060AE
:104DB00001E0D8F80000D8F80401C0F30020002872
:104DC000F7D1EFF31080012181F31088116841F0D1
:104DD0000041116080F3108834E000204FF47A71B4
:104DE0001AE0884217D9306820F08040306030687F
:104DF00040F000403060306820F0004030600EF03D
:104E0000A5FE1C480168491C016054464D4605201A
:104E100076F4F5D66CE7401CD8F80421C2F30022E2
:104E2000002ADED0D8F8040100F07F01A14200D9A9
:104E30002146002003E0D8F8002004C5401C884229
:104E4000F9D3641A002CC8D15FEACB7008D0D8F827
:104E50000401C0F300200028F9D0D8F80000288011
:104E6000BDE8F05F0EF072BE08C500A000E000A033
:104E70000A0708070497003070B5C46AE069C007E4
:104E800007D04FF47A71204603F440F498B10BF048
:104E90002BFD002525620EF049FE0B48057094F8A5
:104EA000290002280FD1012084F829002046BDE8FE
:104EB00070400BF005BC05480068D4E90621491E86
:104EC00022F81100E5E770BDE094003000E000A09A
:104ED0000078002802D10249012048807047000074
:104EE0001891003070B50D4D286890F83E100129DA
:104EF00012D1001D03F40CF4012802D008B10020E7
:104F000070BDEFF31084012080F310882868001D25
:104F10000BF060FE84F31088012070BDC88A003059
:104F20002DE9F0470746894616464FF0E02ADAF8A1
:104F30001480DAF81850FEF76FFB15484FF47A71B9
:104F40000068B0FBF1F37343124919E0701C17D0ED
:104F5000DAF81840A54201DB281B02E0A8EB0400A8
:104F600028441B1A25460EB1002B09DC042087F8C3
:104F70002900F86A40F00100F8620120BDE8F087DE
:104F8000D1F8040100F07F004845DFD30020F5E7A9
:104F90000889003000E000A070B505460C46002CE2
:104FA00002D00DB1A54201D1002070BDA86840B16A
:104FB000406820B1214616F097F9A86844600120A6
:104FC00070BDAC60646000202060F8E72DE9F0411E
:104FD00007460846069914469846002F03D010B19C
:104FE0000CB1A74202D10020BDE8F08131B106F03A
:104FF00035FD0546E06840F4007607E0414606F0DE
:105000002DFC054695B1E06820F40076A089800566
:1050100004D4206A10B1D8F8041088472562E660ED
:1050200021463846BDE8F041FFF7B6BF0020DBE778
:105030002DE9F04107460E464FF000080024274DA9
:105040000BE004EBC40005EB8000801C072239460E
:10505000FDF7A5F840B1641CE4B22878A042F0D86E
:10506000B8F1000F18D102E04FF00108F8E72878F6
:105070000A21B0FBF1F201FB12040A2801D2401C04
:10508000287004EBC40105EB81003968C0F80210F8
:10509000B988C180B97901722B7811A21021002042
:1050A00003F438F3307800070BD504EBC40005EBAC
:1050B000800006F14601BDE8F0410A301C22FDF7F0
:1050C0001DB804EBC40005EB800006F12A01BDE821
:1050D000F0410A301C22FDF711B800004C67013086
:1050E000523A313A616464206C746B206974656D66
:1050F0002C206E756D203D2025640A000449896BC3
:10510000084004490A78104300220A7070470000E2
:10511000002001A0FC9200300C4900280BDC08683C
:10512000C0F34120012805D0086820F4C06040F495
:105130000070086070470A28FCDB086810F4C06F34
:10514000F8D0086820F4C060086070470CC500A063
:1051500010B50D4A1368002B0FD093F83E2062B1B2
:1051600068B161B193F83F205AB10A460146181D53
:105170000BF09AFC0028FFD110BDE92010BDE420FF
:1051800010BDE72010BD0000C88A003070B50F4D7B
:105190002868002815D090F83E1091B1002480F8BE
:1051A0003E4004644464072013F0AEFB2868001DF1
:1051B0000BF0AEFA002805D1286890F83F0010B136
:1051C00002E0E92070BD2C60002070BDC88A00306C
:1051D00010B5094C2068002803D090F83F10012931
:1051E00001D0E92010BDB0F93C0000F0EBF92168D6
:1051F000002081F83F0010BDC88A003070B500283B
:105200000AD00F4D296849B191F83E2032B191F88A
:105210003F1029B1EA2070BDE52070BDE92070BDC6
:10522000EFF31084012181F31088FFF7DDFC18B93A
:105230002A68012182F83F1084F3108870BD0000B5
:10524000C88A00307FB504460E46002C30D0194D78
:1052500004F138002860E06A0390D4E90412E068A1
:105260008DE8070094E80E00A06AFFF7F7FC00281D
:105270001CD1286840C0182204F12001FCF73EFF31
:105280002868001D0BF044FA00280FD12868001D83
:105290000BF07EFA002809D107220321064813F0FB
:1052A0001BFB2968012081F83E00002004B070BD7E
:1052B000E520FBE7C88A003084E4010110B50B4B00
:1052C0001C68002C0DD094F83E3053B158B151B148
:1052D0004AB113460A460146201D0BF089FC002006
:1052E00010BDE92010BDE42010BD0000C88A0030C8
:1052F00010B5074C2068002808D0017C31B1001D92
:105300000BF0F4FD002800D1206010BDE92010BD95
:1053100030910030034800680068002800D0004742
:10532000704700003091003070B50C46002821D045
:10533000114D00F108022A6003C8C2E90101101DE5
:105340000BF0D4FD002814D12868001D0BF0E0FDFF
:1053500000280ED1286804600121017407491C202F
:1053600015F0E6FB06494FF08050C1F8FC01C86714
:10537000002070BDE52070BD30910030393400014F
:1053800084E000E010B507480068002807D0017CE1
:1053900029B1001D0BF012FE0028FFD110BDE9203D
:1053A00010BD00003091003006460F46154672B61B
:1053B0003846FCF7DFFE402801D9402002E038469D
:1053C000FCF7D8FE80463046FCF7D4FE402801D9D1
:1053D000402002E03046FCF7CDFE04469C211048F8
:1053E000FCF7A5FE424639460D48FCF787FE0C48FF
:1053F000224631465C30FCF781FE09484FF0AA3165
:10540000016445644FF0BB3181644FF0CC310165DC
:105410004FF0DD318165002000F004F8FEE7000068
:105420004CA0003030B5ADF20C4D04464FF4806115
:1054300003A8FCF77CFE194D202085F83F0085F875
:105440009B003CB12846012C436DC26C09D0022C54
:105450000CD00FE0114A12A15C3203A8FEF72EF91E
:1054600008E012A103A8FEF729F903E017A103A899
:10547000FEF724F903A90CA2686CCDE90121009084
:1054800019A3064A19A1002000F070FB012C01D0DD
:1054900000F044FB0DF20C4D30BD00004CA000307C
:1054A0005B4552524F525D20257300005B574152BD
:1054B0004E494E475D20506172616D303A25642C33
:1054C000506172616D313A25640000005B504152B9
:1054D000414D5D20506172616D303A25642C506100
:1054E00072616D313A256400000000006170705FE8
:1054F0006173736572742E6300000000014876F4D6
:10550000BB910000E08A003006460F4690461D46DB
:1055100072B64046FCF72EFE402801D9402002E03A
:105520004046FCF727FE04469C210D48FCF7FFFD92
:10553000224641460A48FCF7E1FD09484FF0553143
:10554000016445644FF066318164C6644FF0773181
:1055500001654765C94381650220FFF763FFFEE7E8
:105560004CA000302DE9F04106460F4690461D46FE
:105570004046FCF7FFFD402801D9402002E04046AC
:10558000FCF7F8FD04469C210D48FCF7D0FD2246AF
:1055900041460B48FCF7B2FD09484FF01131016458
:1055A000456449008164C6644FF033310165476545
:1055B0004FF044318165BDE8F0410120FFF732BF73
:1055C0004CA0003070B5082801D3E82070BD164DFE
:1055D00000EB400005EB40142078C8B1EFF31086D3
:1055E000012080F31088201D0BF050FD002020705A
:1055F000FF202071002000EB400105EB41110978EC
:10560000012902D0401C0828F5D3082802D007E061
:10561000E92070BD002013F077F9032003F47CF03B
:1056200086F31088002070BD04980030082801D34C
:105630000020704700EB4001044800EB4110017866
:1056400009B1001D70470020704700000498003029
:105650002DE9F0470546894600244FF0FF384646BD
:105660004FF0010A002D16D03349032015F060FADF
:10567000287990B1012810D002280ED003280CD030
:1056800004280AD0052808D0062806D0072804D008
:105690004046BDE8F087E520FBE7EFF310820121EB
:1056A00081F31088254F04EB440107EB41110B787F
:1056B00013B10B7983420DD104EB440007EB40108A
:1056C00090F82D00022803D026B20120087004E0D3
:1056D000082402E0641C082CE5D382F31088082C0F
:1056E00023D200220321164813F0F6F804EB4401FC
:1056F00007EB41142879207104F10800242205F1F8
:105700000801FCF7FBFC0F4860630F48E0630020D2
:105710002064C4F85C90032003F400F0032002F43A
:10572000FFF7201D0BF0E2FC8246BAF1000F00D01B
:1057300046463046ADE70000B14280000498003094
:105740007CE4010135C80001BDC700013EB5044637
:105750004FF400711A48FCF7EAFC207810B10128D8
:1057600019D01DE000211748A28830F831309A4244
:1057700007D100EBC10014A143681148FDF79EFF5B
:105780000EE02E2902D0491CC9B2EEE714A10C4844
:10579000FDF794FF04E01DA109486268FDF78EFF44
:1057A000074921A22069CDE901210090D4E9022313
:1057B0001EA1002000F0DAF9BDE83E4000F0C2B9B9
:1057C000E8A0003074E501014572726F7220636FCA
:1057D0006465203078253034583A20257300000065
:1057E0004572726F7220636F6465203078253034A3
:1057F000583A204E6F20666F756E6420696E666F32
:10580000726D6174696F6E2E000000002825732987
:10581000206973206E6F742065737461626C6973A4
:105820006865642E00000000257300006170705FE1
:105830006572726F722E630010B50C46062833D263
:10584000DFE800F00303031E2710184951F8300069
:105850002104090C04D018B121460BF003FE1FE00F
:10586000E42010BD2004000C03D0A1B210480BF0BE
:10587000F9FD200C14D0210C0E480BF0F3FD0FE0C5
:1058800014F0FF0F03D020460BF06EFA08E0E4207E
:1058900010BD14F0FF0F05D0214600200BF054FE80
:1058A000002010BDE42010BDE62010BDD0E40101B1
:1058B000000001A0001001A070B58EB005460C4696
:1058C000564901F164004DC8CDE90A02CDE90C3614
:1058D000D1E91E23486F06AED1F880100DC609919C
:1058E00014224E49843101A8FCF708FCACB14C49A4
:1058F000062015F01DF94B49072015F019F94A4902
:10590000122015F015F94549444A2C31062D7CD258
:10591000DFE805F0060606415921E5200EB070BD0E
:10592000207931F810000B90607932F810000C905B
:10593000A0790D9020680A903848143050F835004E
:1059400021880904090C04D018B10AA90BF0D8FD6C
:1059500059E0E420E2E7207931F810000B906079FB
:1059600032F810000C90A0790D9020680A90206801
:105970000104090C05D080B20A900AA92B480BF04B
:10598000BFFD2068010C3ED0000C0A900AA92848EF
:105990000BF0B6FD37E0207901EB4000408A07901C
:1059A000607902EB4000C0880890A07909902068D7
:1059B0000690207810F0FF0F03D006A80BF026FA0F
:1059C00021E0E420AAE72079031F032B01D8E72078
:1059D000A4E702281AD001200290207901EB4000B0
:1059E000808C0390607902EB400080890490A0795C
:1059F000059020680190207810F0FF0F09D001A9D0
:105A000000200BF0F9FD002088E704E0022002905E
:105A1000E3E7E42082E7E62080E70000BCE4010140
:105A200037438000314380002D438000000001A0F7
:105A3000001001A010B502460C460020062A26D20E
:105A4000DFE802F00303031A1F0B114850F832007D
:105A5000A1B2BDE8104002F465B62104090C03D0E0
:105A6000A1B20C4802F45EF6210C10D0210CBDE866
:105A70001040094802F456B6A0B2BDE8104002F446
:105A800053B6A1B2BDE8104000200BF0B8BD10BD68
:105A9000D0E40101000001A0001001A070B50C4687
:105AA0001546002D03D0012D01D0E42070BD06283D
:105AB0002BD2DFE800F00303031E230E144951F834
:105AC000300020B1A1B22A4602F430F61BE0E420F7
:105AD00070BD2004000C04D0A1B22A460D4802F487
:105AE00025F6200C0FD0210C2A460B4802F41EF696
:105AF00009E0A0B229460BF0DDF904E0A1B22A4684
:105B000000200BF07FFD002070BDE62070BD00007E
:105B1000D0E40101000001A0001001A00248406A89
:105B2000002800D000477047E8A30030002806D0C6
:105B3000002904D0024AD269002A00D010477047D9
:105B4000E8A300300248006A002800D000477047F0
:105B5000E8A30030044A1044807D084201D00120AF
:105B60007047002070470000E8A300302DE9FE4F89
:105B70000746924699460024A046CDF80480CDF809
:105B8000088059480178B94202D2807E00287DD130
:105B90000EAD0095EFF311860220FDF7A5FE8346BA
:105BA000FDF7C6FE401C012181400BEB0100C0B295
:105BB00080F3118801213846FFF7CCFF38B14B48FC
:105BC0004B4950F82720204600F0A4F804461C2139
:105BD0003846FFF7BFFF00285ED046A24449204662
:105BE00000F098F8204484B204213846FFF7B2FF51
:105BF000F8B152463E49204600F08CF8204484B269
:105C000008213846FFF7A6FF38B13BA238492046A5
:105C100000F080F8204484B20BE010213846FFF7F2
:105C200099FF30B135A23249204600F073F8204484
:105C300084B208213846FFF78DFF90B14A462C49BF
:105C4000204600F067F8204484B210213846FFF760
:105C500081FF30B12AA22649204600F05BF820449B
:105C600084B210213846FFF775FF60B126A20521E6
:105C700001A80C9BFDF70AFD01AA1D49204600F072
:105C800049F8204484B221A2194900E029E02046C5
:105C900000F040F8204484B21548C4F580712044D7
:105CA0002B460D9AFDF71EFDCDF800804FF4807154
:105CB000002804DB2044884201DC85B200E00D4668
:105CC000A81C884200D9FE2511A20949284600F0E7
:105CD00021F8284481B20648FFF728FFF0B280F38C
:105CE0001188BDE8FE8F0000E8A30030EC8A003088
:105CF000E8A2003028000000200000003A00000068
:105D0000204C696E653A0000256C64002920000073
:105D10000D0A000030B50546002000290CD0002AED
:105D20000AD006E02B18FF2B06D8CC54521C401C7E
:105D300080B21478002CF5D130BD00002DE9FC4173
:105D40002A4A06214CF2010011F0A4FAFFF7D6FB13
:105D50004FF4E13016F088F8254901204870234CB3
:105D60006069019002258DF8045000268DF80560C9
:105D700007278DF806704FF00078CDF8008069464F
:105D80000520FFF799FD002241460520FFF786FE1A
:105D9000E06901908DF804508DF805608DF806706B
:105DA0000420009069460320FFF786FD00220421AD
:105DB0000320FFF773FE606A01908DF804508DF8A0
:105DC00005608DF806704020009069460320FFF7BB
:105DD00073FD002240210320FFF760FE05F0AEF9BD
:105DE000BDE8FC41022072F43D970000BCE70101D0
:105DF000D08C003010B50848017800290AD1012163
:105E00000170064872F47ED5BDE8104000210448B8
:105E100072F4DA9710BD0000CC8A00304D43800048
:105E2000858801012DE9F04104460D461746002DF5
:105E300004D0012D02D00120BDE8F081E4B1DFB132
:105E4000607801281AD0EFF311860220FDF73EFD9D
:105E50008046FDF765FD401C0121814008EB0100F3
:105E6000C0B280F3118800206070A570E761F0B2C5
:105E700080F311880020DFE70120DDE70620DBE763
:105E800010B50446002C0CD0204600F0B3F9FF20DA
:105E900060700021A160E160216161610020E0612A
:105EA00010BD012010BDF0B5DDE907450599816100
:105EB0004FF47A76A2FB061C03FB06C3002702FB05
:105EC0000732C0E9021209196A41C0E9041200212F
:105ED0000162F0BD2DE9F0410446002C13D0EFF330
:105EE00011850220FDF7F2FC0746FDF719FD401C65
:105EF000012606FA00F03844C0B280F31188124837
:105F0000002121620EE00020BDE8F081D4E90432D6
:105F1000D1E9047CDB1B72EB0C0202D2016A216224
:105F200003E00846016A0029F0D104626670064861
:105F300010380168491C0160016B4160E8B280F3D0
:105F400011880120E0E70000709D00302DE9F0414C
:105F500005460024EFF311860220FDF7B7FC074643
:105F6000FDF7DEFC401C012181407818C0B280F3AF
:105F70001188134A106BE8B115B102F1100010E05E
:105F80000446206A10631068401E10600CE0A942AD
:105F900006D11168491E1160296A01622C4603E08E
:105FA0000846016A0029F2D124B100202062607005
:105FB000106B5060F0B280F311882046BDE8F0818C
:105FC000609D00302DE9F041EFF311870220FDF7CD
:105FD0007DFC0446FDF7A4FC401C012181406018B3
:105FE000C0B280F31188114D002608E02078012806
:105FF00004D1E16909B1A069884726702D6A2C6A2D
:10600000002CF3D1094D103D07E0E16909B1A06909
:1060100088472670206AA8632662AC6B002CF4D1F6
:10602000F8B280F311880120BDE8F081709D003046
:106030002DE9F041EFF311870220FDF747FC0446FC
:10604000FDF76EFC401C012606FA00F02044C0B2A9
:1060500080F311881D4DA5F110082DE0D4E904301E
:10606000D8E902125B1A60EB0200D8E91021D21ABB
:10607000814124D326702046FFF768FFA0780128CD
:1060800006D01248283000212162016861B10FE07A
:10609000D8E90220D4E9021351185841C4E9041088
:1060A0002046FFF717FF07E0046005E001F120003C
:1060B00001680029FAD104602C6A002CCED1F8B214
:1060C00080F311880120BDE8F0810000709D003050
:1060D0002DE9FF5F82460E4693464FF00008BAF165
:1060E000000F20D0414886421DD8E6B1EFF311875A
:1060F0000220FDF7EBFB0446FDF712FC401C0121DA
:1061000081406018C0B280F3118850460DF0D2F97A
:1061100010B19AF8010040B1F8B280F311880F2055
:1061200004B0BDE8F09F0120FAE710F0F1FC04464E
:106130000D464FF47A7106FB01F022462B460021F2
:106140000DF088F9DFF8A890B0B1D9F8040048B193
:10615000D0E90410091B60EB0500C9E9021010F03A
:106160006BFD04E00021C9F80810C9F80C104FF0CD
:106170000108D9E9020106E0D9F80400D0E90421B8
:10618000101B61EB0501CDE9020132460023CDF879
:1061900000B05046FFF787FE5046FFF79BFE14F015
:1061A000AFF94FF0E024D4F800014FF0806510F013
:1061B000806F01D0012000E0002020B91A20FDF7F7
:1061C000CCFAC4F80051B8F1000F0AD0D9F8040095
:1061D000D0E90431D9E90202181A61EB020110F08A
:1061E000CDFCF8B280F31188002099E7008AB90746
:1061F000609D00302DE9F04104460025002C39D087
:10620000EFF311870220FDF761FB0646FDF788FBDF
:10621000401C012181407018C0B280F31188607861
:10622000012824D1144E7068A0420BD110F070FCEC
:10623000D4E90432181A62EB0102C6E9020210F036
:10624000FBFC01252046FFF781FE5DB1706848B177
:10625000D0E90421D6E90203101A61EB030110F022
:106260008DFC04E01DB9706808B910F0E5FCF8B2C7
:1062700080F31188BDE8F081609D00302DE9F04782
:10628000064600253078394F4FF4007902280AD0AD
:10629000002869D1FD80BD604A46BDE8F047344919
:1062A000012000F039BA0024DFF8C8804DE0304802
:1062B000035DF888B0F5FF7F02D9FD80BD6042E044
:1062C000411C89B2F98008F80030012907D0B8686C
:1062D000002810DD7B2B09D07D2B0AD00BE07B2B17
:1062E00001D0BD6007E00120B86004E0401CB86048
:1062F00001E0401EB8600020BA6852B949B198F870
:1063000000207B2A02D00A2B02D002E0012000E00C
:106310000120C0B108F8015098F800007B280CD08B
:10632000022905D308EB010010F8020C0D2816D045
:1063300019B1491E89B208F8015011B10D4803F096
:10634000EFFCFD80BD60641CA4B2B088A042AED852
:106350004A46BDE8F0470649012000F0DDB9891E34
:1063600089B208F80150E8E7BDE8F087D08C00302A
:1063700034D9003034DB00302DE9F0410446022CE2
:1063800002D3E820BDE8F081364D55F82400C0B1B5
:1063900090F86C10A9B1406E41680078FFF74CFA94
:1063A0000028EFD155F82400406E0169007BFFF70B
:1063B00043FA0028E6D155F824008169222902D049
:1063C00012E0E520DEE7406E816A90F82400FFF7D6
:1063D00033FA0028D6D155F82400406EC169007EFA
:1063E000FFF72AFA0028CDD11F4800EBC40090F92E
:1063F000010002F491F155F82400002780F86C7038
:1064000055F8240080F8007155F8240080F80171D7
:1064100055F8240080F8027155F8240080F80371C3
:10642000EFF31086012080F31088002055F820102B
:1064300011B191F86C1029B9401C0228F6D3012043
:1064400012F062FA86F3108855F82400001D0BF054
:106450003DFB55F8240090F86D0008B945F824700C
:1064600000208FE7D08A003064E5010170B5022872
:1064700001D3E82070BD134C54F820304BB193F891
:106480006D5035B139B132B193F80351012D04D0BB
:1064900010E0E92070BDE42070BD002583F80351B1
:1064A00054F820305B680225C3F8885054F8203037
:1064B0005B681B6854F82000001D0BF051FB00289E
:1064C000EAD170BDD08A003070B504461A4D55F837
:1064D0002400703012F04BFE82B21646A2B155F87D
:1064E000240090F8011101290ED0012180F8041137
:1064F000802A0FD355F82400802200F180017030EB
:1065000012F04AFE80260CE055F82410002081F895
:10651000000170BD55F8240000F18001703012F0C8
:106520003BFE55F82400324600F18001001D1BF4AB
:1065300081D20028EDD170BDD08A00302DE9F0471E
:10654000002861D001780027304E002954D001295D
:106550005AD0022958D1B0F804800024DFF8B09056
:1065600041E02C48025DB188FF2939D8481C80B22F
:10657000B08009F80120022833D309EB000111F89B
:10658000022C0D2A2DD111F8011C0A2929D1002530
:10659000032805D3032220A11D48FBF716FE48B1AE
:1065A000B088082809D308221CA11948FBF70DFE62
:1065B00010B102E0012500E001255DB1B288144967
:1065C000012016F06DFA48B9B2881149012000F097
:1065D00013FC03E0B1880E4816F074FDB78000E0AC
:1065E000B780641CA4B24445BBD3BDE8F047F42295
:1065F00008490020FFF73ABFB780BDE8F047F42212
:1066000004490020FFF732BFBDE8F087D08C00308E
:10661000E0C50030E0C6003041543A0061646D6965
:106620006E41542B000000002DE9F04105460F4655
:10663000002D06D02AB12C78022C04D3E820BDE826
:10664000F081E520FBE7304E05F1580046F82400C4
:10665000D2E900310A467030194612F069FD291D51
:10666000286D16F081FC0028E9D156F82410281D69
:10667000486656F82400076056F8240018220830AF
:1066800005F14001FBF73AFD204856F8241000EBD5
:10669000C4056868486056F82400001D0BF016FA1F
:1066A00056F82400001D0BF047FA18480122032178
:1066B000103812F011F956F82410012081F86C00FE
:1066C00056F82410002081F8000156F8241081F8B3
:1066D000010156F8241081F8020156F8241081F8BF
:1066E00003010B490C2014F023FA0A490D2014F081
:1066F0001FFA95F9010002F411F095F9010002F476
:106700000FF000209BE70000D08A003064E5010113
:10671000493600015936000170B5022801D3E8203E
:1067200070BD134C54F820304BB193F86C5035B118
:1067300039B132B193F80351012D04D010E0E520B6
:1067400070BDE42070BD002583F8035154F820305B
:106750005B680225C3F8885054F820305B681B68DA
:1067600054F82000001D0BF06FFA0028EAD170BD2C
:10677000D08A00302DE9F04104461A4D55F8240026
:10678000703012F0F4FC82B2164600277AB155F848
:10679000240090F80111012909D0802A0ED300F1BC
:1067A00080017030802212F0F7FC80260BE055F853
:1067B000240080F800710020BDE8F08100F1800124
:1067C000703012F0E9FC55F8240080F8047155F897
:1067D0002400324600F18001001D1BF471D1002815
:1067E000EAD1E9E7D08A003070B50446022C01D323
:1067F000E82070BD184D55F8240090B190F86C3029
:106800007BB181B17AB1002680F8026155F824008D
:10681000703012F01DFD55F8240090F8001121B1E0
:106820000AE0E52070BDE42070BD90F8011119B9AF
:1068300090F86C10012901D0E22070BD012180F890
:1068400000112046FFF796FF20B155F8241081F87B
:10685000006170BD002070BDD08A003070B5022884
:1068600001D3E82070BD104D55F8204064B194F874
:106870006C604EB151B14AB15E1C09D044F620663D
:10688000B34205D9E42070BDE52070BDE42070BDA1
:10689000002684F8026155F82000001D1BF48FD0FB
:1068A0000028F4D170BD0000D08A00302DE9F041FD
:1068B00006460C46174604F1080520466EF47CD7C0
:1068C000C3B21B48E1184268914202DD0320BDE8D3
:1068D000F0811849184A006809681268891A081A6C
:1068E000001FE91881421CD94FF4004513A2294624
:1068F000002001F40FF705F00DF930B118A2294678
:10690000002001F407F70820E1E71DA22946002036
:1069100001F400F73A4621463046BDE8F04117F051
:10692000D9BC3A4621463046BDE8F04117F0D2BC0A
:10693000D8328000D0238000CC238000523A353AF0
:106940004E56445320617265612069732062656907
:106950006E6720636F6D7061637465642E0D0A004D
:10696000523A353A436F6D70616374696E67204EB9
:10697000564453206661696C65640D0A000000008E
:10698000523A353A436F6D70616374696E67204E99
:10699000564453207375636365737366756C0D0A93
:1069A0000000000010EE100A0B49F7EE000A8842C2
:1069B00008DC9FED0A1A70EE411AB0EE410A00EEB3
:1069C000A10A70479FED061A70EE411AB0EE410A17
:1069D00000EEA10A704700000000E1450080BB45C1
:1069E0000000E14570B50026067100210325857081
:1069F0002A46B0F844309B1E0AE003D1511BC170F7
:106A0000067170BD046CA45C3D2C09D0521C92B27E
:106A10009342F2DA417100F1210500F1050219E01B
:106A2000A2EB050101F10101C17002F1010291B275
:106A3000F0E7036C5B5C3A2B12D02C2B10D08C420D
:106A400006D103799C5C0C1B5C5503795B1C0371BC
:106A5000491C89B2B0F84440A41E8C42E9DA70BDEA
:106A600003799C5C0C1B5C5503795B1CDBB20371E6
:106A70004C1C9C54ECE7002805D0012805D0402888
:106A800003D009207047002070470620704770B57A
:106A9000002904D0002313606FF02F0611E00020BE
:106AA00070BDC45CA4F130050A2D01D3002070BD77
:106AB000156805EB850506EB45052C4414605B1C49
:106AC000DBB28B42EDD3012070BD000070B50446EF
:106AD00000202178002935D00A293BD2DFE801F0D7
:106AE0003A050A0F14191E23282D35A1394800F044
:106AF000F1F92FE038A1374800F0ECF92AE03DA188
:106B0000344800F0E7F925E042A1324800F0E2F90C
:106B100020E04AA12F4800F0DDF91BE04DA12D48EF
:106B200000F0D8F916E052A12A4800F0D3F911E09C
:106B300053A1284800F0CEF90CE059A1254800F0F7
:106B4000C9F907E0B4F80221611C2248FBF7D6FA24
:106B500094F802011F490D220A5401440A224A7086
:106B6000554DEB6883B16978012902D0022906D01E
:106B70000AE0801CC2B217490120984704E0801C3B
:106B8000C2B21449022098470120287420780828AE
:106B900015D1494869681430407800EB8002102014
:106BA00000EB82000C58002C09D02046FBF7E2FADB
:106BB00082B268782146BDE8704000F01DB970BD12
:106BC0004552523A20496E76616C696420696E7054
:106BD00075742E004C9F00304552523A20556E730A
:106BE0007570706F7274656420415420434D442E5B
:106BF000000000004552523A204E6F20616C6C6FCD
:106C00007765642070617273652073746174652E9A
:106C1000000000004552523A20436F6D6D616E6472
:106C20002072657175657374206973206E6F7420AE
:106C3000616C6C6F7765642E000000004552523A1B
:106C4000204E6F20415420434D442068616E646C97
:106C500065722E004552523A20496E76616C696425
:106C600020706172616D65746572732E00000000A2
:106C70004552523A2048616C206572726F722E0044
:106C80004552523A20415420434D44206578656373
:106C90007574652074696D656F75742E0000000051
:106CA0004552523A204F74686572206572726F7255
:106CB00020636F64652E0000F09D003000B5C1B008
:106CC0004FF482716846FBF732FA0748017C0129CC
:106CD00007D00121017408208DF800006846FFF7F5
:106CE000F5FE41B000BD0000F09D0030002807D047
:106CF000012807D0022805D0032803D000207047C0
:106D000000207047072070472DE9F041054600201C
:106D100028700024124E08274FF0040813E004EBFB
:106D20008401706807EB8102835CEA78934208D1A2
:106D300008EB8101AB784158286C1844FBF72FFA17
:106D400030B1641CE4B23078A042E8D8BDE8F081EC
:106D5000706804EB840110F8210028706C70F5E76E
:106D6000F09D003010B5044614210E48FBF7DFF902
:106D70000C4848211430FBF7DAF90A4821790170F0
:106D800021684160A1688160E168C16001210174EE
:106D9000417000F15C01143001640021A0F844103E
:106DA00010BD0000F09D003070B504460E4615463B
:106DB000032210A12046FBF7F2F908B1002070BDB4
:106DC000012209E0A05C0A2804D1A01810F8010CE7
:106DD0000D2805D0521CD2B2B242F3D3002070BDB0
:106DE000521CA5F844202146286CFBF787F90120A6
:106DF00070BD000041543A002DE9F047C2B006468C
:106E0000894692464FF4827101A8FBF790F900245D
:106E1000294D6E70A5F1480001260078132801D194
:106E20002E740124287C0327012807D08DF80470D4
:106E300001A8FFF74BFE42B0BDE8F0874FF0020813
:106E400085F810801C4A514614324846FFF7ACFFC3
:106E500070B119481430FFF7C5FD17481430FFF71B
:106E600053FF154E1436B4B13078142806D012E012
:106E70008DF8046001A8FFF729FEDCE700208DF8FB
:106E800004000EA10DF1050000F024F8ADF8060194
:106E900001A8FFF71BFE307840B12F740649482245
:106EA0001431A1F15C00FBF729F9C4E78DF80480E7
:106EB00001A8FFF70BFEBEE7F09D0030737461720E
:106EC000742063616E63656C20636F6E6E656374BE
:106ED0002E2E2E000FB410B5C0B0044644AA68464A
:106EE0004399FCF715FC6846FBF744F902466946EE
:106EF0002046FBF703F96846FBF73CF940B0C0B207
:106F000010BC5DF814FB000070B5C2B0164C207CBC
:106F1000032827D10420207404F114060C2570786E
:106F2000616800EB800005EB8000085878B1A0682C
:106F300000B180477078616800EB800005EB80004D
:106F4000095842B00848BDE87040143008474FF473
:106F5000827101A8FBF7EBF805208DF8040001A869
:106F6000FFF7B4FD42B070BDF09D00307CB50D461A
:106F7000002200920192694601F4DAF3044634BB20
:106F80004FF42051684601F4D5F3B8B942F6010137
:106F9000684601F4CFF388B942F60301684601F46C
:106FA000C9F358B942F60201684601F4C3F328B99F
:106FB0004FF42451684601F4BDF308B1062406E0FD
:106FC0000098C5F30B01808808430099888020460B
:106FD0007CBD00002DE9F04105460C46FF26217AD4
:106FE0001E2905D022480279521E52B200683AE0AA
:106FF00004F10801284601F49FF3064635E010F835
:1070000032308B422DD11B4E56F82500406F30B3E5
:1070100000273B4618A24021002001F47BF3062004
:1070200000EB052029F4A6D1C00605D5002717A23C
:107030004021002001F46EF321460C3956F825005A
:10704000743001F47BF30020A08001266FB115A2FB
:10705000402101F45FF3284601F472F305E00127B3
:10706000D7E7521E52B2002AC9DA3046BDE8F08195
:107070007C058000C40E8000523A333A657865631F
:107080007574653D307825780A000000523A333A2D
:10709000636F6E6E656374206E6F742063666D0A35
:1070A00000000000523A333A7374617274206578BC
:1070B00065637574650A00000348024901600D218B
:1070C00041607047409600307C0580002DE9FF5FED
:1070D00081460F460024A246CDF808A0CDF80CA0AA
:1070E000584850F82900603001F42CF380463D1FC9
:1070F00079882888544BCDE9001054A24021002003
:1071000001F408F32888E8BB484601F41DF3401E4B
:107110002880002611E007EB460002AB82880021A0
:10712000484601F413F3C4B2CDF808A0CDF80CA082
:107130000CB1B0463BE0761CB6B27888B042EAD8D3
:1071400035E007EB48006B46818801AA484601F408
:10715000FFF2C4B23CBBBDF804002988884200D3CA
:10716000084686B2022106F1080028F4ADD683460F
:10717000ABF8046032460BF106000099FAF7BEFF47
:10718000304800E013E050F829005946603001F41F
:10719000D5F2484601F4DEF22888801B288008F1E9
:1071A00001081FFA88F8CDF808A0CDF80CA078885F
:1071B000404503D9288808B1002CC2D044BB4846BA
:1071C00001F4C2F22988401A401E86B2002506202A
:1071D00000EB09230F220421484600962BF424D209
:1071E0008246AAF80260174850F82900066E0AE0A5
:1071F0000AEB0500B288001DB11DFAF77FFFB088C9
:10720000284485B23668002EF2D1504601F4A4F22B
:107210004CB1062C07D007EB48003978828823460A
:10722000484601F49BF2084B14A240210020009430
:1072300001F470F2062C03D0002004B0BDE8F09FEA
:107240000120FAE7C40E80009CEE0101523A333A65
:107250005B25735D20656E7465722C206E625F68BD
:10726000616E646C653D307825782C2072655F6CAA
:10727000656E3D307825780A00000000523A333AB6
:107280005B25735D20657869742C20737461747557
:10729000733D307825780A0010B500210A4C002390
:1072A000002001EB410202EBC10204EB420222F892
:1072B0001030401CC0B20A28F9D31375491CC9B25A
:1072C0000A29EDD310BD0000D068013070B5054625
:1072D0002DED028BA0B0354E30784042284204D1CB
:1072E000002020B0BDEC028B70BD00242C606C60CF
:1072F000AC60EC6080222E496846FAF7FFFE2D490B
:107300006846FDF79FFF08B10020EAE76846FDF7F1
:1073100075FF18B1FDF73AFF0020E2E74FF48071E6
:107320002548FAF704FF748080212348FDF710FFF9
:1073300070880028FCD0802220491F48FDF7BEFF3E
:107340009FED1F0B00241D4E06EBC40090ED001BAB
:1073500051EC100B53EC112BFBF76EFA41EC100BB8
:10736000641CA4B2802CEFD351EC100B9FED161BC4
:1073700053EC112BFBF707FBFBF796FC08EE100A0A
:107380009FED130A28EE000AFFF70CFB85ED020AB9
:1073900004F07EFA287318EE100A68600120687302
:1073A000FDF716FFFDF7F2FE01209AE71891003075
:1073B00014EB0101D14E0001185E0130185F01305D
:1073C0000000000000000000000000000000803FFE
:1073D000CFF7534004480178002901D001207047BD
:1073E000012101700120704718910030002800D061
:1073F000407B70471FB50F4890F80201002818D055
:1074000068464CF497D7DDE900010B4CCDE9020149
:10741000E1680844094920F07040486008464DF48E
:107420001FD2607818B1BDE81F4012F0D7B812F033
:10743000F1F81FBDC01A800020960030B41A8000F9
:107440006A2807D06B2808D06C2809D06E280AD08B
:107450000020704708460AF071BC08460AF004BDD7
:1074600008460AF097BC08460AF028BD02480021E9
:107470004170817070470000F49000302DE9F04FAA
:10748000D5B0044604F0F0F8549004F0EDF8054649
:1074900004F0EAF88346549800287DD0002DFCD0F3
:1074A000BBF1000FF9D09FED620B63A1284604F0F9
:1074B0006BF863A264A1284604F07EF82A4665A111
:1074C000549804F057F86068FBF7AAFB05460E468F
:1074D0002068FBF7A5FB8DE8630060A220214CA883
:1074E000FCF7D4F84CAA60A1584604F065F8A068EF
:1074F000FBF796FBCDE900015FA2102148A8FCF73D
:10750000C5F848AA5EA1584604F056F82069FBF772
:1075100087FB227D8DE807005CA2202140A8FCF7B4
:10752000B5F840AA5BA1584604F046F804F13C02C5
:107530005CA1584604F040F894F81590B9F1FF0F9B
:1075400054D0A069FBF76CFB05460E46E069FBF7DB
:1075500067FB8DE863004B4656A2302134A8FCF748
:1075600095F834AA57A1584604F026F8A06BFBF70B
:1075700057FB05460E46606BFBF752FB81468A4679
:10758000206BFBF74DFB07468846E06AFBF748FB9C
:10759000CDE91201A06A00E038E0FBF741FBCDE93C
:1075A0001001606AFBF73CFBCDE90E01206AFBF796
:1075B00037FB0A46014608A8A0E88007CDE90C562B
:1075C000DDE91234CDE90634DDE91034CDE90434C7
:1075D000DDE90E348DE81E003DA2802114A8FCF7E1
:1075E00055F814AA43A1584603F0E6FF5A4645A1B0
:1075F000549803F0BFFF549804F02AF904465498B5
:1076000004F056F8204655B0BDE8F08F549810B1FC
:10761000549804F04DF815B1284604F049F8BBF130
:10762000000F02D0584604F043F80020EBE70000BA
:107630000000000000405A40636F646500000000D5
:10764000247B494D45497D006465766963655F49E2
:10765000440000006865616465720000252E326692
:107660002C252E326600000073656E736F725F709A
:107670007265737375726500252E31660000000017
:1076800073656E736F725F54454D5000252E3266E0
:107690002C25640073656E736F725F62617474652C
:1076A00072790000636F6C6C6563745F74696D65FB
:1076B0000000000025642C252E32662C252E316614
:1076C0000000000077617465725F6C6576656C0020
:1076D000252E32662C252E32662C252E32662C2540
:1076E0002E32662C252E32662C252E32662C252E27
:1076F0003266000077617465725F6C6576656C5FF9
:1077000063617000626F6479000000002DE9F04150
:107710009CB003F0A9FF074603F0A6FF044603F060
:10772000A3FF064647B33CB336B3202114A8FAF7AB
:10773000FEFC202114A800F0D1FB9FED3A0B3BA1E9
:10774000204603F021FF14AA3AA1204603F034FF9B
:1077500022463BA1384603F00DFF3B48FAF70AFDED
:10776000D0B1394A39A1304603F026FF364A31A15B
:10777000304603F021FF19E017B1384603F098FFB7
:1077800014B1204603F094FF16B1304603F090FF89
:1077900000201CB0BDE8F0812EA22CA1304603F0E1
:1077A0000BFF14AA23A1304603F006FF2648203021
:1077B0000446FAF7DFFC28B1224627A1304603F041
:1077C000FBFE04E023A224A1304603F0F5FE244A88
:1077D00024A1304603F0F0FEDFF89480D8F81000C2
:1077E000FBF71EFA04460D46D8F81400FBF718FA0A
:1077F0008DE833001FA2402104A8FBF747FF04AA2D
:107800001FA1304603F0D8FE324621A1384603F0CE
:10781000B1FE384604F01CF80446384603F048FF31
:107820002046B6E70000000000805940636F6465A1
:10783000000000006465766963655F4944000000EC
:107840006865616465720000F04E0130494D45493C
:10785000000000003000000053494D5F4944000023
:10786000285201306465766963655F766572000051
:10787000805C0130252E36662C252E3666000000F1
:107880006465766963655F6C6F636174696F6E00D0
:10789000626F64790000000070B588B003F0E4FE08
:1078A000064603F0E1FE044603F0DEFE0546002E28
:1078B00063D0002C61D0002D5FD020216846FAF7FC
:1078C00036FC2021684600F009FB9FED330B34A104
:1078D000204603F059FE6A4633A1204603F06CFEB1
:1078E000224634A1304603F045FE344C2088FBF795
:1078F0003CF941EC100B32A1284603F045FE6088AC
:10790000FBF733F941EC100B32A1284603F03CFEA3
:107910006068FBF785F941EC100B33A1284603F0B2
:1079200033FEB4F90800FBF70FF941EC100B35A159
:10793000284603F029FEB4F90A00FBF705F941ECEB
:10794000100B34A1284603F01FFEA089FBF70DF9A8
:1079500041EC100B33A1284603F016FE2A4635A150
:10796000304603F007FE304603F072FF044630460F
:1079700003F09EFE204608B070BD16B1304603F0FD
:1079800097FE14B1204603F093FE15B1284603F08C
:107990008FFE0020EFE700000000000000005A40CA
:1079A000636F6465000000006465766963655F4924
:1079B000440000006865616465720000805C01300D
:1079C0006465766963655F636F6C6C6563745F742F
:1079D000696D65006465766963655F75706461747F
:1079E000615F74696D65000077617465725F6465DD
:1079F0007074685F7468726573686F6C645F636DE0
:107A00000000000054454D50485F7468726573680B
:107A10006F6C640054454D504C5F746872657368B8
:107A20006F6C640077617465725F74687265736807
:107A30006F6C6400626F64790000000030B589B03B
:107A400003F012FE054603F00FFE044615B30CB317
:107A5000202101A8FAF76BFB202101A800F03EFAD3
:107A60009FED110B12A1204603F08EFD01AA12A179
:107A7000204603F0A1FD224612A1284603F07AFD1C
:107A8000284603F0E5FE0446284603F011FE204692
:107A900009B030BD15B1284603F00AFE14B12046E6
:107AA00003F006FE0020F3E70000000000005E4047
:107AB000636F6465000000006465766963655F4913
:107AC0004400000068656164657200002DE9F041C2
:107AD000A4B003F0C9FD074603F0C6FD044603F059
