:020000040800F2
:1000000070290020450100085716000883140008D5
:100010005516000809020008791A000800000000BF
:100020000000000000000000000000005B16000857
:100030000B02000800000000591600085D160008B9
:100040005F0100085F0100085F0100085F01000810
:100050005F0100085F0100085F0100085F01000800
:100060005F0100085F0100085F0100085F010008F0
:100070005F0100085F0100085F0100085F010008E0
:100080005F0100085F0100085F0100085F010008D0
:100090005F0100085F0100085F0100085F010008C0
:1000A0005F0100085F0100085F0100085F010008B0
:1000B000C11600085F010008CD1600085F010008A6
:1000C0005F0100085F0100085F0100085F01000890
:1000D0005F010008611A00086D1A00085F0100083E
:1000E0005F0100085F0100085F0100085F01000870
:1000F0005F0100085F0100085F0100085F01000860
:100100005F0100085F0100085F0100085F0100084F
:100110005F0100085F0100085F0100085F0100083F
:100120005F0100085F0100085F0100085F0100082F
:10013000DFF80CD000F056F800480047C91D000851
:10014000702900200648804706480047FEE7FEE782
:10015000FEE7FEE7FEE7FEE7FEE7FEE7FEE7FEE777
:10016000BD1600083101000840EA01039B0703D0D7
:1001700009E008C9121F08C0042AFAD203E011F8E6
:10018000013B00F8013B521EF9D27047D2B201E0A8
:1001900000F8012B491EFBD270470022F6E710B58C
:1001A00013460A4604461946FFF7F0FF204610BDE5
:1001B00030B505462A460B4612F8010B13F8014BE1
:1001C00008B1A042F8D01CB1002802D06D1CF1E7A4
:1001D000284630BD421C10F8011B0029FBD1801AB3
:1001E00070470000064C074D06E0E06840F0010350
:1001F00094E8070098471034AC42F6D3FFF79CFF11
:100200004024000860240008FEE7704772B6FEE74D
:1002100010B590F821100022022905D00421816335
:1002200080F82020012010BD01680B6823F00E0328
:100230000B6001680B6823F001030B6090F84030FD
:10024000C46B012101FA03F3636080F8211080F888
:100250002020104610BD00002DE9F05F90F821101D
:100260000024022903D004218163012485E0016870
:100270000A6822F00E020A6001680A6822F0010290
:100280000A603F4E3E4FB215DFF8F4C0DFF8F09041
:10029000DFF8ECA0DFF8E8B0DFF8E4E00168783FD1
:1002A00013011502ACF1640CA9F15009AAF13C0A42
:1002B000ABF1280BAEF1140E4FF48018B14227D9E0
:1002C000B9420ED0614512D049451DD0514518D0D4
:1002D000594518D0714501D1424615E0294EB14229
:1002E00001D1012210E0274E1436B14201D1102273
:1002F0000AE0244E2836B14206D0224A3C329142CE
:1003000001D11A4600E02A461E49091F0A602BE067
:10031000B94213D0614517D0494522D051451DD06F
:1003200059451DD0714501D142461AE0B14202D172
:100330004FF0807215E0134EB14201D1012210E05E
:10034000104E1436B14201D110220AE00D4E28366B
:10035000B14206D00B4A3C32914201D11A4600E02C
:100360002A46074980394A60012180F8211000217E
:1003700080F82010416B01B188472046BDE8F09F0E
:1003800080000240080402402DE9F84FDFF8C891D0
:100390000024A9F1040B23460F2709F1040AABF14D
:1003A000040ED1E00125A54006EA0502AA4276D155
:1003B000DFF8A8C14E68A6EB0C0866452BD00DDC13
:1003C000032E34D005DC36B3012E19D0022E2FD1E6
:1003D0001BE0112E16D0122E2AD119E0B8F5881F75
:1003E00019D006DCB8F5803F15D0B8F5801F1FD1B5
:1003F00011E0B8F5001F0ED0B8F5041F18D10AE0BF
:10040000CB6815E0CB681B1D12E0CB6808330FE00A
:10041000CB680C330CE08B682BB1012B4FF0080339
:1004200003D0456104E0042302E0056100E00023FD
:10043000FF2A01D8064601E000F104064FEA8405D0
:1004400001D9A5F12005D6F8008007FA05FC28EAB5
:100450000C0803FA05F548EA0508C6F800804D685F
:10046000ED0070D53E4DAE6946F00106AE61AD6956
:1004700024F0030605F0010500953A4D06EB050C46
:10048000DCF80850A607360F07FA06F825EA080533
:10049000DFF8D480404503D14FF0000825E052E05A
:1004A000DFF8C880404502D14FF001081DE0DFF8B9
:1004B000C080404502D14FF0020816E0DFF8B4805A
:1004C000404502D14FF003080FE0DFF8AC80404513
:1004D00002D14FF0040808E0DFF8A080404502D1C7
:1004E0004FF0050801E04FF0060808FA06F848EA60
:1004F0000508CCF808804D68D9F80060ED024D463B
:1005000001D5164300E096432E604D68DAF800608E
:10051000AD02554601D5164300E096432E604D6866
:10052000DBF80060AD035D4601D5164300E096435D
:100530002E604D68DEF80060ED03754601D5164368
:1005400000E096432E60641C0A681646E2407FF481
:1005500029AFBDE8F88F0000080401400000111029
:10056000001002400000014000080140000C014062
:10057000001001400014014000180140001C01401F
:100580000AB1016170470904FBE700000148806877
:100590007047000000000020024881680278114482
:1005A0008160704700000020074810B5016841F0E5
:1005B00010010160032000F075F80F2000F006F82C
:1005C00000F024F8002010BD0020024070B50D4D51
:1005D00004464FF47A712878B1FBF0F00A490968B3
:1005E000B1FBF0F000F0E0FA48B9102C07D200227D
:1005F0002146501E00F036F800206C6070BD0120CE
:1006000070BD0000000000200C0000200C4808B560
:10061000816941F001018161816901F0010100916D
:10062000C16941F08051C161C06900F08050009003
:100630000448416821F0E06141F00071416008BD6B
:100640000010024000000140002809DB00F01F02FA
:10065000012191404009800000F1E020C0F8001124
:1006600070470000F0B40E4B1B680C46C3F3022326
:10067000C3F10705042D00D90425191D072901D24E
:10068000002300E0DB1E012606FA05F1491E214089
:1006900099409E40761E16403143F0BC01F0FEB9F1
:1006A0000CED00E0064900F0070208684FF6FF0372
:1006B000184040EA0220034A1043086070470000D7
:1006C0000CED00E00000FA052DE9F0470F460500AB
:1006D00061D0434E306800F00700B84209D230685C
:1006E00020F0070038433060306800F00700B8425F
:1006F00051D128683B4C810712D5400703D560686B
:1007000040F4E06060602878000703D5606840F43A
:10071000605060606068A96820F0F0000843606085
:100720002878C00728D06868012810D021680228DE
:1007300010D0890700292EDA616821F003010143F6
:100740006160FFF723FF804641F288390DE02168A0
:100750008903EFE78901EDE7FFF718FFA0EB080138
:10076000494502D90320BDE8F0876068696800F058
:100770000C00B0EB810FEFD1306800F00700B842F9
:100780000BD9306820F0070038433060306800F043
:100790000700B84201D00120E5E72878400705D5D9
:1007A0006068E96820F4E06008436060287800072A
:1007B00006D56068296920F4605040EAC100606095
:1007C00000F038F86168084AC1F30311515CC84071
:1007D0000649086006480068FFF7F8FE0020C2E7F7
:1007E0000020024000100240022300080C000020FC
:1007F000040000200448054900684968044AC1F320
:100800000221515CC84070470C00002000100240DB
:10081000122300080448054900684968044AC1F3E6
:10082000C221515CC84070470C00002000100240FB
:10083000122300080F4A516801F00C00042803D06D
:10084000082803D00C4870470C4870470C48C1F387
:100850008343C903C05C0AD55168094AC1F34041CA
:10086000921E515C054A5043B0FBF1F070470549B8
:10087000484370470010024000127A00001BB70086
:10088000F222000800093D002DE9F84F040070D065
:100890002078C04DC00749D06868C0F381000128A6
:1008A00007D06868C0F38100022809D16868C003D6
:1008B00006D52868800339D560680028E7D035E080
:1008C0006068B0F5803F0BD010B1B0F5A02F11D00B
:1008D000286820F480302860286820F4802002E016
:1008E000286840F480302860606890B1FFF74EFEC1
:1008F00006460AE0286840F480202860F0E700BF40
:10090000FFF744FE801B642873D828688003F7D55E
:100910000CE0FFF73BFE064605E000BFFFF736FEA2
:10092000801B6428F0D828688003F7D420789A4E7A
:1009300080074FF001094FF0000839D5686810F0C2
:100940000C0F07D06868C0F38100022809D16868DD
:10095000C00306D42868800714D52069012808D16F
:1009600010E02069B0B1C6F80090FFF70FFE07460F
:1009700005E00AE1FFF70AFEC01B0228C4D8286878
:100980008007F7D52868616920F0F80040EAC100C7
:1009900028600DE0C6F80080FFF7F8FD074604E088
:1009A000FFF7F4FDC01B022823D828688007F7D47E
:1009B000207800072CD57948A169D9B1C0F80090FA
:1009C000FFF7E4FD074604E0FFF7E0FDC01B022847
:1009D0000FD8686A8007F7D571484FF4FA5100685C
:1009E000B0FBF1F0009000BF0098411E0091FAD2D8
:1009F0000EE080E0C0F80080FFF7C8FD074604E085
:100A0000FFF7C4FDC01B022875D8686A8007F7D4B9
:100A10002078400760D5E8690027C00008D4E8695D
:100A200040F08050E861E869012700F080500090B4
:100A30005C480168C90513D40168834641F480719C
:100A40000160FFF7A3FD824606E000BFFFF79EFDB1
:100A5000A0EB0A0064284ED8DBF80000C005F5D5ED
:100A6000E06801280AD008B1052813D0286A20F0D0
:100A700001002862286A20F0040002E0286A40F0A1
:100A800001002862E06841F2883B98B1FFF77EFDE3
:100A900082460BE0286A40F004002862EEE700BFBF
:100AA000FFF774FDA0EB0A0159455AD8286A800760
:100AB000F6D50CE0FFF76AFD824605E0FFF766FD1C
:100AC000A0EB0A0159454CD8286A8007F6D41FB11B
:100AD000E86920F08050E861E06988B36968C1F393
:100AE0008101022944D00228C6F8608004D0FFF7B3
:100AF0004DFD044638E034E0FFF748FD074604E0CA
:100B0000FFF744FDC01B02282BD828688001F7D4CA
:100B1000206AB0F5803F05D16868A16820F40030F4
:100B200008436860D4E908010843696821F4741136
:100B300008436860C6F86090FFF728FD044606E0A9
:100B400025E000BFFFF722FD001B022809D8286816
:100B50008001F7D51BE000BFFFF718FD001B02283E
:100B600002D90320BDE8F88F28688001F4D40EE094
:100B70000128F7D06868226A00F48031914204D1DC
:100B8000616A00F47010884201D00120EAE7002079
:100B9000E8E70000001002400000424280044242A8
:100BA0000C0000200070004010B5401EB0F1807FA6
:100BB00001D3012010BD4FF0E02460610F216017C8
:100BC00000F06CFF0020A06107202061002010BD14
:100BD0007047704770B590F83C20012A2CD0012452
:100BE00080F83C40022280F83D2003685A689D68E6
:100BF00022F070060A6832435A60104B02689A422B
:100C00000ED00F4B9A420BD0B2F1804F08D00D4B53
:100C10009A4205D00C4B9A4202D00C4B9A4204D116
:100C2000496825F080031943916080F83D40002118
:100C300080F83C10084670BD022070BD002C0140B9
:100C4000003401400004004000080040000C004057
:100C500010B5040003D094F83D0010B107E0012066
:100C600010BD002084F83C00204600F01FF8022050
:100C700084F83D00211D206800F02EFD012084F83D
:100C8000460084F83E0084F83F0084F8400084F871
:100C9000410084F8420084F8430084F8440084F85A
:100CA000450084F83D00002010BD000008B5016833
:100CB0001448B1F1804F14D0134A914220D1C16938
:100CC00041F00401C161C069002200F004000090FD
:100CD00011461E20FFF7C6FC1E20BDE80840FFF7A6
:100CE000B3BCC16941F00101C161C069002200F0DB
:100CF0000100009011461C20FFF7B4FC1C20ECE71B
:100D000008BD0000001002400008004090F83D10AF
:100D1000012901D001207047022180F83D100168AF
:100D2000CA6842F00102CA6000680E4988420ED0CB
:100D30000D4988420BD0B0F1804F08D00B49884252
:100D400005D00B49884202D00A49884204D1816803
:100D500001F00701062903D0016841F0010101609B
:100D600000207047002C0140003401400004004086
:100D700000080040000C004070B5044690F83C00AC
:100D80000025012817D0012684F83C60022084F851
:100D90003D002068826822F0770222F47F42826060
:100DA0000868502838D00DDC20284FD005DC90B3DF
:100DB000102811D14AE0022070BD302846D04028CA
:100DC0000AD13BE060282FD070280DD0B0F5805FAD
:100DD00003D0B0F5005F12D0012584F83D600020FB
:100DE00084F83C00284670BDCB68D1E90121206819
:100DF00000F0C0FC2068816841F0770109E0CB6811
:100E0000D1E90121206800F0B5FC2068816841F437
:100E100080418160E1E719E0CA684968206800F014
:100E2000BBFC5021206806E0CA684968206800F0D1
:100E3000C4FC6021206800F0A7FCCEE7CA684968BE
:100E4000206800F0A9FC40212068F4E722680146F0
:100E50001046F0E770472DE9F04104460068C66887
:100E600005694FF00007A90713D5B10711D5F91E81
:100E7000016101202077206880698007204602D028
:100E8000FFF7E8FF04E000F07EF8204600F07CF871
:100E90002777680716D5700714D521686FF004000E
:100EA0000861022020772068806910F4407F204686
:100EB00002D0FFF7CFFF04E000F065F8204600F015
:100EC00063F82777280715D5300713D521686FF009
:100ED00008000861042020772068C0698007204648
:100EE00002D0FFF7B7FF04E000F04DF8204600F015
:100EF0004BF82777E80616D5F00614D521686FF071
:100F000010000861082020772068C06910F4407F35
:100F1000204602D0FFF79EFF04E000F034F82046A0
:100F200000F032F82777E80708D0F00706D02168EC
:100F30006FF001000861204600F028F8280608D567
:100F4000300606D521686FF0800008612046FFF763
:100F50003FFE680608D5700606D521686FF0400090
:100F60000861204600F028F8A8060AD5B00608D582
:100F700021686FF0200008612046BDE8F041FFF7CE
:100F800028BEBDE8F08170477047000008498842DC
:100F90000CD108488168491C8160C168491CC16046
:100FA0000169491C01614169491C416170470000A8
:100FB0007800002010000020704770477047000044
:100FC000F8B5016804460868CA684B6910F00F0F4D
:100FD0004FF0000559D003F0010602F49077374333
:100FE00065D0C10705D0D10503D5616C41F0010181
:100FF0006164410705D5D90703D0616C41F0020156
:101000006164810705D5D90703D0616C41F0040103
:101010006164010707D502F02001314303D0616C00
:1010200041F008016164616C00293AD0800604D562
:10103000900602D5204600F001FC20684069616CF2
:10104000C0F38010090700D460B3204600F0CFFB46
:1010500020684069400621D52068143050E8001F00
:1010600021F0400140E80012002AF5D1E06BA8B160
:101070006D494163E06BFFF7EFF8002811D0E06B9A
:10108000416B01B0BDE8F040084783060FD59306D9
:101090000DD52046BDE8F84000F0D0BB2046FFF754
:1010A0008DFFF8BD2046FFF789FF6564F8BD266B0C
:1010B0002023012E7CD1C6067AD5D60678D50868BD
:1010C0004868009048694FF00206400640D5E16B41
:1010D000086840680004000CE8D0A28D8242E5D97F
:1010E000E085886920282DD020680C3050E8001F4A
:1010F00021F4807140E80012002AF5D120681430F4
:1011000050E8001F21F0010140E80012002AF5D14B
:101110002068143050E8001F21F0400140E8001220
:10112000002AF5D184F84230256320680C3050E85D
:10113000001F21F0100140E80012002AF5D1E06BF9
:10114000FFF766F86663A08DE18D401A81B22AE050
:10115000A08DE18D401A81B2E08D0028A6D0002933
:10116000A4D022680C3252E8000F20F4907042E8BC
:101170000007002FF5D12068143050E8002F22F02E
:10118000010240E80027002FF5D184F842302563A2
:1011900020680C3050E8002F22F0100240E80023B5
:1011A000002BF5D166632046FFF707FFF8BDFFE788
:1011B00005062BD5150629D594F841002128F5D12F
:1011C000A068B0F5805F01D12069B0B1206A411CF0
:1011D0002162216800784860E08C401E0004000C09
:1011E000E084E3D12068C16821F08001C1602068FB
:1011F000C16841F04001C160D8E7206A0088C0F3AF
:1012000008004860206A801C2062E5E74006CDD5D2
:101210005006CBD5CA68204622F04002CA6084F846
:10122000413000F02DF9C1E7DF17000870B5040068
:1012300004D094F84100002510B106E0012070BDF3
:1012400084F84050204600F023F8242084F8410020
:101250002068C16821F40051C160204600F050FBB5
:101260002068016921F4904101612068416921F001
:101270002A0141612068C16841F40051C160656480
:10128000202084F8410084F842006563002070BD8E
:1012900070B586B0002400940194029403942E4EFD
:1012A00003682E49022003222D4DB34226D18B69BB
:1012B00043F480438B618B6903F4804304938B690F
:1012C00043F004038B618969039201F004010491E6
:1012D0000102CDE9001069462846FFF755F82815A8
:1012E000CDE90004694628460294FFF74DF8002234
:1012F00011462520FFF7B6F9252028E0194EB34204
:1013000027D1CB6943F40033CB61CB6903F40033BD
:1013100004938B6943F004038B618969039201F0A4
:10132000040104910421CDE9001069462846FFF725
:101330002BF80820CDE90004694628460294FFF7FF
:1013400023F8002211462620FFF78CF92620FFF70C
:101350007BF906B070BD000000380140001002406B
:10136000000801400044004090F84230202B01D09A
:101370000220704721B11AB10023036300F01CBBA7
:101380000120704710B51249124C88420CD1A07848
:1013900028B100230122611D0F4800F021F80D49FA
:1013A0000122491D0A480EE00B4988420FD1094924
:1013B0000122891D094800F0BFFC00200549A060FA
:1013C00001220548891DBDE81040FFF7CDBF10BDC3
:1013D000C000002010000020080100205001002063
:1013E0002DE9F843044690F84100984616460D460C
:1013F000202802D00220BDE8F88385B17EB100200C
:101400006064212084F84100FFF7C0F8A68481467B
:10141000E684A0682027B0F5805F02D003E00120B9
:10142000E9E7206910B12E4600250EE000260CE009
:101430008021204600F0DBFAA8B9C6B116F8010BEE
:1014400021684860E08C401EE084E08C4B464FF001
:101450000002CDF800800028EAD14FF0400120467C
:1014600000F0C5FA40B184F841700320C3E735F8B5
:10147000020BC0F30800E3E784F841700020BAE7EC
:101480007047FEE72DE9F04186B000242048009423
:10149000019402940394816941F00401816181699E
:1014A00001F004010491816941F0100181618069BA
:1014B000DFF8608000F010000490012240214046D7
:1014C000FFF75EF84FF40077002239464046FFF7F9
:1014D00057F801254020CDE900050226CDE9025646
:1014E00069464046FEF750FF2802CDE900046946F0
:1014F00040460294FEF748FF00970396CDE9015459
:1015000069464046FEF740FF06B0BDE8F0810000A6
:10151000001002400010014010B586B000241648AB
:10152000009401940294039404944FF08041059434
:1015300001604721C0E9011440F2E731C0E903141A
:101540008461FFF785FB08B1FEF760FE4FF4805021
:10155000009069460848FFF70FFC08B1FEF756FEF9
:10156000049404A904480594FFF734FB002801D033
:10157000FEF74CFE06B010BD3000002010B586B05E
:10158000002417480094019402940394049413498E
:10159000059401604721C0E9011440F2E731C0E938
:1015A00003148461FFF754FB08B1FEF72FFE4FF4DC
:1015B0008050009069460A48FFF7DEFB08B1FEF74D
:1015C00025FE049404A906480594FFF703FB0028B0
:1015D00001D0FEF71BFE06B010BD00000008004061
:1015E000780000200C4810B50A4901604FF4E13141
:1015F0004160002181600C22C160C0E90412816158
:10160000C161FFF713FE002803D0BDE81040FEF7CC
:10161000FDBD10BD00380140C00000200C4810B5D1
:101620000A4901604FF4E1314160002181600C22E0
:10163000C160C0E904128161C161FFF7F7FD0028B4
:1016400003D0BDE81040FEF7E1BD10BD00440040EE
:1016500008010020FEE7FEE770477047FEF79CBFD9
:1016600030B58FB028216846FEF797FD14210AA8EF
:10167000FEF793FD01210804CDE900100024029437
:1016800002250491CDE90750000109906846FFF753
:10169000FBF808B172B6FEE70F20CDE90A054FF45A
:1016A0008060CDE90C4002210AA80E94FFF70CF8E7
:1016B000002801D072B6FEE70FB030BD70470000C1
:1016C0000148FFF7C8BB0000300000200148FFF7C9
:1016D000C2BB000078000020F0B50268204C214D0C
:1016E000214E224F224B4FF0804CA04209D098420D
:1016F00007D0604505D0A84203D0B04201D0B8421F
:1017000004D122F0700E4A6842EA0E02A04209D0CB
:10171000984207D0604505D0A84203D0B04201D01E
:10172000B84203D122F44075CA682A434D6922F0B9
:1017300080022A4302608A68C2620A688262A0420A
:1017400001D0984201D10969016301214161016918
:10175000C90703D0016921F001010161F0BD00005A
:10176000002C01400004004000080040000C004034
:101770000034014010B5846842EA032224F47F4417
:101780000A432243826010BD826822F070020A433D
:1017900042F007018160704710B5036A046A24F0C3
:1017A00001040462846924F0F00444EA021423F082
:1017B0000A020A438461026210BD10B5036A046A1A
:1017C00024F010040462846923F0A00324F470441C
:1017D00044EA023243EA01118261016210BD10B590
:1017E000406A0021C185C184FFF7E8FB10BD016894
:1017F0000C3151E8002F22F4907241E80023002BB5
:10180000F5D10168143151E8002F22F0010241E8BE
:101810000023002BF5D1016B012909D101680C319E
:1018200051E8002F22F0100241E80023002BF5D1EF
:10183000202180F8421000210163704708B590F81C
:101840004210222901D0022008BD82684FF4805343
:101850009A4201D1016921B1816A9A421BD04AB1F1
:101860000AE00268816A5268C2F308020A80816A4B
:10187000891C08E0026972B10268526802F07F02B6
:101880000A70816A491C8162C18D491E0904090CD4
:10189000C18503D01BE002685268F1E70168CA689D
:1018A00022F02002CA600168CA6822F48072CA600D
:1018B00001684A6922F001024A61202180F8421041
:1018C00000214163026B012A03D0FFF75BFD00207A
:1018D00008BD016301680C3151E8002F22F01002AD
:1018E00041E80023002BF5D101680A68D20602D531
:1018F0000A6849680091818DFFF75FFBE7E7000008
:1019000070B5044600680169E26821F44051114352
:1019100001612169A0680843616908432168CA68B8
:1019200041F20C639A430243CA6020684169A2698C
:1019300021F44071114341611E492068884202D15F
:10194000FEF768FF01E0FEF755FF00EBC00101EB79
:101950000012606864218000B2FBF0F3B3FBF1F386
:101960006FF018067343B2FBF0F5B2FBF0F605EB2F
:101970008305322303EB0515B5FBF1F5B6FBF1F654
:1019800005F0F00505EB0615B2FBF0F6B2FBF0F042
:10199000B0FBF1F06FF01802504306EB800003EB50
:1019A0000010B0FBF1F0216800F00F0028448860BF
:1019B00070BD00000038014081628285C28500212F
:1019C0004164222180F84210016921B10168CA688E
:1019D00042F48072CA6001684A6942F001024A61B9
:1019E0000068C16841F02001C160002070472DE906
:1019F000F843984617460D460446089E24E0701C9E
:101A000022D0FEF7C3FDA0EB0800B0421AD8CEB139
:101A10002068C168490717D5802D15D0402D13D0F7
:101A20000168C94309070FD4016800254068009088
:101A30002046FFF7DCFE0820606484F84050012057
:101A4000BDE8F8830320FBE72068006835EA000062
:101A500004D00020B842D2D00020F1E70120F9E7FD
:101A60000148FFF7ADBA0000C00000200148FFF7B1
:101A7000A7BA000008010020FEE700000FB4054BE4
:101A800010B503A9044A029800F027F810BC5DF8CD
:101A900014FB0000B11B00082C0000200907090EF0
:101AA000002804DB00F1E02080F80014704700F00B
:101AB0000F0000F1E02080F8141D704702E008C814
:101AC000121F08C1002AFAD170477047002001E0B8
:101AD00001C1121F002AFBD170472DE9F84F99462A
:101AE000924688460546002706E025280AD051463A
:101AF0004A4690476D1C7F1C28780028F5D138464F
:101B0000BDE8F88F002315F8011F18462E2915D1BE
:101B100015F8011F04232A290DD06FF02F02297810
:101B2000A1F13004092C09D800EB800002EB400041
:101B300008446D1CF3E758F8040B6D1C2A78002A42
:101B4000DDD0632A07D0732A0FD0104651464A468B
:101B500090477F1C2AE018F8042B8DF80020002104
:101B60008DF801106E46012103E058F8046B4FF028
:101B7000FF315A074FF0000401D409E0641C84428D
:101B80000BDA8C42FADB325D002AF7D105E0641CE7
:101B90008C42FCDB305D0028F9D1274404E016F8C4
:101BA000010B51464A469047641EF8D26D1CA3E7CC
:101BB00013B54FF0FF33012269460248FFF710FCCE
:101BC00000981CBDC000002098B10D4A01689142E8
:101BD0000FD18169D24391420BD1416849B18168EB
:101BE00039B10269C068824207D0904203D9811A94
:101BF00003E000207047101A091A481E70470000C1
:101C0000EFBEADDE78B10E4A016891420BD1816919
:101C1000D243914207D1416829B182681AB1016962
:101C2000C068814202D14FF00000704702D9A1EB99
:101C300000007047A0EB0100A2EB0000704700001D
:101C4000EFBEADDE70B515460E4604000CD05EB199
:101C500055B11C21FEF7A1FA0448A560C4E90006AD
:101C6000C043A061012070BD002070BDEFBEADDE9D
:101C70002DE9F041134604000E463CD01F4A20686F
:101C8000904238D1A069D243904234D1606888B381
:101C9000A06878B376B36BB32046FFF7B3FF9842E2
:101CA00000D31846070026D0D4E902100D1ABD4211
:101CB00000D33D4661682A4601443046FEF754FA97
:101CC000E0687F1B2844E06005D070193A466168DF
:101CD000FEF74AFAE760D4E90201814201D300200D
:101CE000E06063691BB1EA19002120469847E819B2
:101CF000BDE8F081FFE70020FAE70000EFBEADDEAF
:101D0000002816D00B4A0168914212D18169D24352
:101D100091420ED1416800290BD08168002908D07A
:101D200000210161C1604369002B02D00022022121
:101D300018477047EFBEADDE2DE9F04113460400B1
:101D40000E463CD01F4A2068904238D1A069D24349
:101D5000904234D1606888B3A06878B376B36BB32F
:101D60002046FFF731FF984200D31846070026D0DF
:101D7000A16820690D1ABD4200D33D4661682A461C
:101D800008443146FEF7F0F920697F1B28442061A2
:101D900005D071193A466068FEF7E6F92761A16837
:101DA0002069884201D30020206163691BB1EA19D0
:101DB000012120469847E819BDE8F081FFE700209F
:101DC000FAE70000EFBEADDEFEF7EEFBFFF748FCE2
:101DD000FFF758FBFFF706FCFFF720FCFFF79CFB23
:101DE000FFF7CCFB04A0FFF749FE00F059F800BF55
:101DF00000F078F8FCE7000079756E647475205582
:101E00004450206578616D706C650D0A000000001B
:101E100010B50E4CA169086858B10B894A680C4985
:101E200000F032FA002807DDA06900F10C00A06183
:101E300008E04FF0010010BD04DA0648A0614FF041
:101E4000FF3010BD4FF0000010BD0000100000205A
:101E50006C1100201C23000870B50F4C0F480025A2
:101E6000E2784FF4007112B1012A07D012E000228B
:101E7000FEF786FB01206561E0700BE0626940F6C9
:101E8000B8339A4206D30122FEF77AFB6561E5700A
:101E9000012070BD002070BD100000200010014026
:101EA0000B4910B54FF48052A1F11C00FFF7CAFE98
:101EB0000848FEF72BFF012207490848FFF754FAAC
:101EC00005490122BDE81040491C0548FFF74CBAFE
:101ED0006C0100207800002015000020C0000020C8
:101EE00008010020F8B54F4C002500952079042604
:101EF00001274FF47A7306283AD2DFE800F003098D
:101F0000233C4D6FFFF7A8FF002831D046A037E0F3
:101F10004C4800F04BF9009050B14BA14948FEF7F6
:101F200047F9002824D04BA0FFF7A8FD02201EE0AF
:101F3000606947F2305188421AD350A0FFF79EFDE6
:101F4000656116E05DA23F495FA000F09DF90028A1
:101F500009DD6248FFF792FD61A0FFF78FFD684839
:101F6000FFF7CEFE51E003DA401C02D003202071BF
:101F7000F8BD2571F8BDFFF74BFF002807DD61A014
:101F8000FFF77CFD5E48FFF7BBFE2771F8BDFDDA69
:101F900065A0FFF773FDECE72A4800F007F9009011
:101FA0000028F3D06946274800F018F9A0780028E7
:101FB000ECD0009848B182B24FF0FF33214962481B
:101FC000FFF70EFAA0780028E0D060492069884227
:101FD000DCD35FA0FFF752FD0520C8E765A21949D1
:101FE00066A000F051F9002811DD62A11548FEF746
:101FF000DFF8074665A11348FEF7DAF80570791D8A
:1020000064A0FFF73BFD256165702671F8BDFDDA20
:102010002561607800F10100C0B260700328A8D289
:10202000F3E70000100000205B445D79756E647476
:10203000752072657365742073756363657373656A
:10204000640D0A006C110020667265657374726F0E
:102050006E6700005B445D72656164207265736544
:102060007420696E666F6D6174696F6E3A20667276
:1020700065657374726F6E670D0A00005B445D33B3
:1020800030207365636F6E647320776974686F7551
:10209000742072656164696E67207265736574206F
:1020A000696E666F726D6174696F6E2C20726573F4
:1020B0006574206465766963650D0A002B50415292
:1020C0004D535645523A320061646D696E41542B4E
:1020D0005041524D535645523F0D0A00E823000827
:1020E0005B445D656E746572206461746120747216
:1020F000616E736D697373696F6E0D0A0000000085
:1021000050010020777269746520636F6E6669679D
:1021100020706172616D65746572207375636365AB
:1021200073730D0A00000000777269746520636F95
:102130006E66696720706172616D65746572206694
:1021400061696C0D0A000000C0000020C027090072
:10215000726567756C61726C792071756572792032
:102160007369676E616C20737472656E6774680D55
:102170000A0000002B4353513A00000061646D696E
:102180006E41542B4353513F0D0A00000D0A0D0AB6
:102190004F4B00005B445D7369676E616C20766134
:1021A0006C7565203D2025730D0A000010B50446AE
:1021B0000848FFF727FD58B107488068142807D959
:1021C0002146BDE810404FF400620248FFF750BDC1
:1021D000002010BD50010020100000202DE9F0412A
:1021E0000D46804617A1FDF7E3FF194C06004FF09E
:1021F000000707D017A0FFF741FC0120A07027615E
:10220000677009E017A14046FDF7D2FF060016D01F
:1022100018A0FFF733FCA77011A13046FDF7C8FFE7
:102220002968044601EB0800021BA11C3046921EDF
:10223000FDF79AFF2868A11B401A801E2860BDE8A0
:10224000F0810000465340554450204F4B000000A1
:10225000100000205B445D465340554450204F4BD6
:102260000D0A000046534055445020434C4F5345FF
:10227000200000005B445D46534055445020434CD1
:102280004F53450D0A0000002DE9F047164C8046DB
:102290000025207891460F462E4620B1E0689842EE
:1022A0000FD36D1E18E04046FDF794FF82B24FF445
:1022B0007A7341460D48FFF793F80120E6602070DD
:1022C0000BE00846FFF772FF38B13E5449463846E6
:1022D000FDF76EFF20B1012526702846BDE8F08786
:1022E0006FF00105F8E70000100000200801002051
:1022F000010202030405060708090A0B0C0D0E0F64
:102300001010000000000000000001020304060796
:10231000080900000000010203040000382400083E
:102320003C240008E8030000C42300083C24000803
:10233000E8030000D82300083C240008E80300005C
:102340007C2300083C240008E8030000B0230008B8
:102350003C240008E8030000A02300083C240008F7
:10236000E8030000D02300083C240008E803000034
:1023700000000000000000000000000041542B534A
:102380004F434B313D5544502C3131322E31323593
:102390002E38392E382C34373831320D0A000000EF
:1023A00041542B5041524D535645523D320D0A0077
:1023B00041542B4845415254454E313D4F46460D00
:1023C0000A00000041542B453D4F46460D0A0000CF
:1023D00041542B530D0A000041542B574B4D4F4491
:1023E000313D4E45540D0A005B445D7265616420C9
:1023F000706172616D657465722076657273696F64
:102400006E20737563636573732C206E6F206E6529
:10241000656420746F2075706461746520636F6EED
:1024200066696775726174696F6E20706172616D43
:1024300065746572730D0A002B2B2B004F4B000047
:10244000602400080000002030000000BC1A0008D2
:10245000902400083000002040290000CC1A000819
:102460000100000010000000000000000024F40043
:10247000000000000000000000000000000000005C
:1024800000000000000000001C2300080000000005
:0400000508000131BD
:00000001FF
